S02B0000416C6C5F4D65676152665F41746D656761323536726672325F31364D687A5F4763632F4578652F4141
S2840000000C94A7260C94EFF00C941BF10C9447F10C9473F10C949FF10C94CBF10C94F7F10C9423F20C944FF20C947BF20C94EE260C94EE260C9404ED0C94EE260C945AED0C94EE260C94EE260C94EE260C94EE260C94EE260C94EE260C94EE260C94EE260C94ADF30C94B9EF0C945CEF0C948BEF0C94EE260C943EF30C9415F30C94EE26AE
S2840000800C94EE260C94EE260C94EE260C94EE260C9453F00C94F6EF0C9425F00C94AEF20C94EE260C94EE260C9405DF0C94EFE00C94EE260C94EE260C94EE260C94EE260C94EE260C94EE260C94EE260C94EE260C94EE260C94EE260C94EE260C94EE260C94EE260C94EE260C94EE260C94EE260C944BE10C94EE260C94EE260C9473E10B
S2840001000C94EE260C94EE260C94EE260C94EE260C94EE260C94EE260C94EE260C949BE10C94EE260C94EE260C94EE260C94EE260C94EE2600000000000000000000000000000000000000000000000000000000000000000000000000000000000000000000000000000000000000000000000000000000000000000000000000000000EE
S2840001800000000000000000000000000000000000000000000000000000000000000000000000000000000000000000000000000000000000000000000000000000000000000000000000000000000000000000000000000000000000000000000000000000000000000000000000000000000000000000000000000000000000000000FA
S284000200000000000000000000000000000000000000000000000000000000000000000000000000000000000000000000000000000000000000000000000000000000000000000000000000000000000000000000000000000000000000000000000000000000000000000000000000000000000000000000000000000000000000000079
S2840002800000000000000000000000000000000000000000000000000000000000000000000000000000000000000000000000000000000000000000000000000000000000000000000000000000000000000000000000000000000000000000000000000000000000000000000000000000000000000000000000000000000000000000F9
S284000300000000000000000000000000000000000000000000000000000000000000000000000000000000000000000000000000000000000000000000000000000000000000000000000000000000000000000000000000000000000000000000000000000000000000000000000000000000000000000000000000000000000000000078
S2840044001A0F160019000D0D030018004908BD001700BC1301001600701408001500FD1301001400F41302001300601401002600031401001E00F31301000F007A1401000E00641401000D006C1402000C00BD1301000B00B71302000A00DA1311000900D01301000800CF1301000700CE13010006006114010005006A1401000400B213EB
S28400448004000300EB1308000200B01301000100941308000000844712002E00A84715002D00D24719002C00044804002A000C4811002900FA273128512871289128BB28E52839294D506A4F8B508B508B506F4F794F8B508B50814F864FAE4FB74F8B50BC4FC44FCE4F8B50D74FDC4F8B50E54F205032508B5025502D504D504D504D5049
S28400450044504450445044504450445044504450445044504450445044504450445044504450F84F44508B508B508B508B508B508B508B508B508B508B508B508B508B508B5044503F504D504450F24F37504F504D50665074507B504D504D504D50E75154512E522E522E525A515F5102522E526251655176517B512E527E51815184519B
S2840045802E5289518C5102529151DB51F0512E52DE51E1515851E451E45102520252025202520252025202520252025202520252025202520252025202520252C15102522E522E522E522E522E522E522E522E522E522E522E522E522E522E520252F851FB510252B951F3510A5213520D5210522E52215226522C523353355340533753CD
S28400460039533B533D53125343534553125348539D53A053A453A753AB53AF53B253B653B65312585058505850581958365827582E58615820583D583D584458505858585C58BC58BF58C258C258C458CE58C858CB58DB58C658D158D358D558D858C45AC75AE85ACA5ACE5AE85AD25AE85ADD5AE05AE65A4F5EFC5E0B5F0A5E525F525F55
S284004680075F0B5F105F3E5F275F525F525F3E5F3D5E405F589760977797E997E99740974D97E997E997E9979797A697C397CF97E9973D976B970997D69BD69BFF9A079B079B149B149B319B319B319B8F9B8F9B8F9B2A9CD69BD5A927AAFBA9FFA9FFA9FFA9FFA9FFA903AA03AA62BD65BD06BE06BE6ABD06BE74BD5DBE5DBE5DBE5DBEAE
S2840047005DBE5DBE5DBE5DBE5DBE06BE06BE5DBE5DBD6FBD06BEDDC82BC92BC92BC92BC92BC91AC904C922C92BC914C92BC91EC926C901CBDCCBB9CCE4CC23CD4FCE98CE7AD47AD47AD47AD47AD47AD47AD47AD47AD4CFCDDDCD7AD47AD404CE9BCC82D68AD69CD6A5D6A7D6A9D6ABD6AED681D7F9D7F9D7A7D7B0D7C0D7C9D7CCD7CFD74A
S284004780D2D7D8D700000100020003000400050006000700080009000A000B000C000D000E000F001E00180000000100020003000400050006000700080009000A000B000C000D000E000F001E00130014001500160000000100020003000400050006000700080009000A000B000C000D000E000F001E00130014001500160017001800AF
S28400480019002600130014001500160000000100020003000400050006000700080009000A000B000C000D000E000F001E00B206000049080000A3070000060900003D08000000000000300900009A0E0000F20E0000440C0000960C0000600C0000CD0C0000100D0000540E000000000000000000000D0D00001A0F00000000000000002B
S2840048800000000000000000000000000000000000000000000000000000000000000000000000000000000000000000000000000000300F0000580F000037070000B64A0200BA4A0100BD4A0100BB4A0200C04A0100C14A0100C24A0100C34A0100C44A0100C54A0100C64A0200BE4A0200C84A0100C94A0100E24A0200D34A0100D44ABB
S2840049000100D54A0100DE4A0400CA4A0100CB4A0400CF4A0100D04A0100DA4A0100DB4A0100DC4A0200000000000000000000000000000000000000000000000000000000000000000000000000000000000000000000000000D14A0100D24A0100E44A0100E54A0100E64A0100E74A010000000000D64A0400B84A0200941308009E138C
S2840049800100AC130400B0130100B21304006814010069140100701408006C140200F4130200FD130100641401007A1401006A140100B9130100BA130100BB130100BC130100B7130200BD130100BE13010066140100651401006F13010070130100EB130800D1130400C6130400CA130400CE130100CF130100D0130100DA13110061144A
S284004A000100D5130100D61304005E13010071130200F3130100B613010000000000000000005F1301000000000000000000000000000000000000000000000000000000000000000000000000000000000000000000BF130500C4130100C513010000000000000000000000000000000000000000000000000000000000A01301000000E2
S284004A80000000000000000000000000000000000000000000000000000000000000000000000000000000000000B1130100A61301009F13010085006C0001000007050007040205040204000308FF140000000108030303020A901A00000100000000000303141061620003001E000003F4008000000134120003030000020000000000AA
S284004B0003034C1D000010270000010001E803000004E80300001041746D656C2020202020202020202020FECAAAAAAAAAAA1A0002030100000000000000000000000000000005FF0000000000000000000000000000000000000000000000000000000000000000000000000000000000000000000000000000000000000000000000000D
S284004B800000000000000000000000000000000000000000000000000000000000000000000000000000000000000000000000000000000002010002020508080000FFFF341200000000000000000202013741734600000000000000000000000002927D70780107DA981C730101DA981C730101517D83900101D67CE29F0101D67CB19FB9
S284004C0001078B7C0C730101337CFE8501010000000001070000000001010000000001030000066B01040000066B010500000000010600000000010D000000000101DA980000000100000000010E00000000010700000000010A0000000001000000000001010000000001010000000000000000F97600090000F976000C0000F97600005D
S284004C800000F976009479667F99965DA99975CF9CA97A4F7B1F740C82558832770BA0307A9E748773000000005173D48100000000BB68CB6B516926694A690000C268D0683F69C968C16B7968BD6AC46A336BB56A586900001B6C020102030302020101010101010101010202010101020102020202020201020202020202010303020255
S284004D000394A7C09D7796F39E0000F6A5768FADAA00000000DFB7FABCAFC6C2BF8AD494C5FFE2FFE2FFE2FFE271E437E233F4D5EC19E057DF6AEB0AEE0EEB9BE916E800E352E47EE591E350E47CE58FE30011248091DC18823159F084B780FD04C08F718093DC1807C081E08093DC1803C081E18093DC1814BE809160008861809360008A
S284004D8010926000EDEDF8E18DEC01C0819390E7E030F907D9F3D0F311241FBEC0E0D0E7DEBFCDBF00E00CBF13E0A0E0B2E0EAEFFCEE01E00BBF02C007900D92A23DB107D9F728E1A2EDB3E001C01D92AC3DB207E1F70E9425320E943B32FDCF0C9400007F937FB7F8949D9AA5988AEF4DD08AEF4BD09D9886E448D081E0959980E08F93C3
S284004E0080EF42D08F917FBF7F9108957F937FB7F8949D9AA59886E037D09D988AE034D0889495990894881F8F9384E62DD08F917FBF7F9108959F937F9398E0E7DF879577959A959923D1F7872F7F919F9108957F937FB7F894A5989D9A8F9386E014D08F91879508F49D988F9384E60DD08F919D987FBF7F9108959F9398E0E9DF9A95CD
S284004E809923E1F79F9108950000000000000000000000000000000000000000000000008A95882389F7089582E080931B042FB7F89480916A0590916B05906190936B0580936A052FBF089583E080931B042FB7F89480916A0590916B05906190936B0580936A052FBF089582ED93E08839910511F485E001C088E080931B042FB7F894A4
S284004F0080916A0590916B05906190936B0580936A052FBF089564E18AEC92E082D284E080931B042FB7F89480916A0590916B05906190936B0580936A052FBF089584E690E0A0E0B0E08093FA039093FB03A093FC03B093FD031092FE0384E797E2909300048093FF0384EF93E00C9486E208958AE090E0A0E0B0E080930704909308044A
S284004F80A0930904B0930A0481E080930B0484E697E290930D0480930C0481E094E00C9486E2089584E190E0A0E0B0E08093140490931504A0931604B093170481E08093180484E597E290931A04809319048EE094E00C9486E20895EF920F9380911B0490E08830910508F050C1FC01E65AFD4D0C944DF588EC8093DE031092DF0383E3AE
S28400500090E09093E1038093E00386E08093E2031092E3031092E4031092F3031092E8031092E7031092EA031092E9031092F0031092EF031092EC031092EB031092EE031092ED031092F2031092F103BBD180E092E00E9496E66DE08FED92E0E2D181E0F9C082ED97E29093100280930F0285E192E0909309028093080285E090E0909305
S28400508007028093060280E092E00E94B4E6019621F46CE08DEE92E0C4D163E18AEF92E0F3C088EB97E29093100280930F0284E192E0909309028093080281E090E0909307028093060280E092E00E94B4E6019621F46CE08DEE92E0A4D163E18EE093E0D3C08BE897E29093100280930F0282E192E0909309028093080281E090E0909325
S28400510007028093060280E092E00E94B4E6019621F46CE08DEE92E084D165E182E293E0B3C08FE997E29093100280930F0282ED93E0909309028093080281E090E0909307028093060280E092E00E94B4E6019621F46CE08DEE92E064D180E092E00E94DCE6019621F46AE088E393E05AD164E184E493E089C08FE997E2909310028093A0
S2840051800F0282ED93E0909309028093080281E090E0909307028093060280E092E00E94B4E6019621F46CE08DEE92E03AD180E092E00E94DCE6019621F46AE088E393E030D161E189E593E05FC06DE08BE693E028D12091700630E0322F222780917106282B442737FD4095542F209375063093760640937706509378068091720690E015
S284005200982F882760917306862BAA2797FDA095BA2F80936C0690936D06A0936E06B0936F0674E0E72E05E06CE087E292E02DD120916C0630916D0640916E0650916F0606E06DE08AE192E020D162E189E793E0E8D087E080931B042FB7F89480916A0590916B05906190936B0580936A052FBF0CC06CE087E292E0D4D062E08CED92E083
S284005280D0D06DE08AE192E0CCD00F91EF9008950895089508950895CF92DF92FF920F931F93CF93DF93E42FF0E0F09018052AEF30E02F1931092E173F0734F15091170520E030E0EC01C60FD11D0AEF10E02E173F07ACF4852F90E0BC01645E7B4F6B01BE01620F731FDB015C91D6015C932F5F3F4F0196B8010E94FCF4582FE8CF509393
S2840053001705F40EF0921805DF91CF911F910F91FF90DF90CF9008951F93CF93DF9310924B0510924C0510911805112309F446C080911605E9E1F5E01333E0F4212F30E0CAEFD0E0AF0149515540421753075CF490E0DC01A45EBB4F4C9141930196BE010E94FCF4EFCF8093160510934B051092180518C02AEF30E090E0DC01A45EBB4F77
S2840053804C9141930196B9010E94FCF495E0EB34F90791F78093160582E380934B0512531093180581E080934C0540914B0550E069E175E08BE496E00E94E7E5DF91CF911F91089588EC809356061092570683E390E0909359068093580686E080935A0610925B0610925C0610926B061092600610925F06109262061092610610926406EC
S2840054001092630610926606109265068CE899E290936A06809369068BE496E00C9488E50895462F20914C05222319F060E034CF0895FC01A9E1B5E0633370F4862F90E09D0129513540281739071CF421912D93F7CF40934B050CC021912D9325E0AB34B207D1F722E320934B05425362E314DF81E080934C0540914B0550E069E175E0EA
S2840054808BE496E00C94E7E50895A0E0B0E0EBE4FAE20C947EF5F12CF701E00FF11DC62FD0E0CE17DF07ECF0C0E0D0E08C010E0F1F1F6AE0862E912CA12CB12C2197F701EC0FFD1F319669F06801CC0EDD1EB901CA01A50194010E940FF5605DF6016083EDCFCDB7DEB7ECE00C949AF5A2E0B0E0ECE7FAE20C9480F56C010091790610910A
S2840055007A06E12CF12C80917D0690917E06E816F906A8F45801B8016C5F7F4F42E050E0CE0101960E9446F60A5F1F4F29813A812C153D0539F08FEFE81AF80AE4CF80E090E001C0C5012296EAE00C949CF5ADE0B0E0EDEAFAE20C9482F57C016B0123E0969587952A95E1F7FC01E758F94F228D30E0B70167707727062E02C036952795A4
S2840055800A94E2F78E010F5F1F4F20FF42C027E0E3E9F6E0D80101900D922A95E1F7A0E020E030E04A2F50E048175907D8F4F801E40FF51F4081542F569555754575540F452F4695469543735373450F4083E42FEF7042954F7050E04E0F511D240F351FAF5FE0CFE0E0D801A80FB91F4E2F50E04617570780F44C9150E00E2E02C0569582
S28400560047950A94E2F741705527240F351FEF5FEDCF2FEF3FEF1B870A8746E0429FC001439F900D112404969987888786E090E09D878C8769E57CE2CE01089672D18D819E81E816F90639F084E090EA9093AD068093AC06E1D589819A81F601918380832D96E8E00C949EF5A6E0B0E0EAE3FBE20C9484F57C018B0180E090E0FC0133E0B2
S284005680F695E7953A95E1F7EE0DFF1D6081AC0147705527262F30E0042E02C0369527950A94E2F720FF0DC021E030E001C0220F4A95EAF720952623208318DF009731F431C0019683339105C9F62CC046E050E0BC01CE0101960E9446F689819A81F80193838283B8018D819E8131DFF801808191810596918380838B819C8195838483BA
S28400570082819381892B39F480E090EA9093AD068093AC0681D58D819E81F7019087878381E006C08FEF9FEFF7019087878380E02696E6E00C94A0F5A8E0B0E0E2EAFBE20C947EF57C01A0907B06B0907C06FC01868182FD09C000E010E0812C76E0972ECC24C394D12C0CC047E050E06FEF70E0C7010E9476F66DC0882483940F5F1F4F59
S28400578080917F06909180060817190708F05BC0909EB001919E700D11246A0D7B1D46E050E0CE0101960E9446F62D813E81F90163E0F695E7956A95E1F7EE0DFF1D408127703327842F90E0022E02C0969587950A94E2F780FFD2CFC60102C0880F991F2A95E2F79C01209524232083812C882D90E02B813C818217930708F0BDCF880F33
S284005800991F69817A81680F791F42E050E0CE0107960E9446F68F819885FC0153E0F695E7955A95E1F7EE0DFF1D87709927960102C0220F331F8A95E2F7C9019081982B90838394D4CF882021F000E010E0812C97CF2896ECE00C949AF5CF93DF93EC018FEF9FEF98878F8387E0FB01DE0101900D928A95E1F7CE015FDFE3E9F6E0919116
S28400588088818923899386E0EA39F807C1F7DF91CF9108958091A7069091A806A7C208951092A4068AE49CE29093A6068093A50608950895ECE8F6E0DC013D91CD012081232B2193B6E0E339FB07B1F78091A90684608093A90608950E9494E9882311F0DFD5FACF0895A2E0B0E0E9E7FCE20C9486F58B0189839A83EFDFB80189819A814D
S2840059000E94B7E8019631F08CE20935180721F4E3DF02C081E001C080E02296E4E00C94A2F5A2E0B0E0E7E9FCE20C9486F58B0189839A83D1DFB80189819A810E9444E8019631F08CE20935180721F4C5DF02C081E001C080E02296E4E00C94A2F5A2E1B0E0E5EBFCE20C947BF58091A906982F92609093A90682FF0AC06CE876E08DE4EF
S28400598095E06BDF8091A9068B7F8093A906CC24C394D12C7E013DE0E30EF11C55E0A52EB12C4E0182E1880E911CBE01695F7F4F8DE495E059DE882309F462C06090540570905505F30163E0F695E7956A95E1F7E758F94FC30187709927960102C0220F331F8A95E2F7C901809593898923838BFC82EB82BE82AD828F81988505979A83E0
S284005A00898369E57CE2CE0101968BDF4B855C8569857A8580E05ED0582E8D8558123AC08889998968167906A9F52B853C858E859F852817390771F59C828B82DE82CD8200E010E02B853C850217130708F0ADCF2F813885200F311F3A83298369E57CE2CE0101965EDFAB81BC81E985FA85E00FF11F9C91808198130DC00F5F1F4FE2CF28
S284005A808091A9068D7F8093A90660E070E08FE001D21CC05D86798A688A8B859C859F878E87FC82EB8285E090E09E838D838F81988505979A8389836FEA7CE2CE01079612DF69E57CE2CE0101960DDF6296EFE00C9497F5FB01460F571FE417F50719F09191890FFACF08954F925F927F928F929F92AF92BF92CF92DF92EF92FF920F9305
S284005B001F93CF93DF93CDB7DEB762970FB6F894DEBF0FBECDBF80E094E490937A068093790686E994E490937C0680937B0606E914E400501444C80166E070E00E94E8F4892B39F080E290EA9093AD068093AC0663D326E030E0C801B9010E94E8F440917D0650917E06642B752B70937E0660937D0604EB14E406591444C801B9010E945F
S284005B80E8F4892B39F081E290EA9093AD068093AC0642D3C80166E070E00E94E8F480917F0690918006682B792B7093800660937F060091790610917A061092810610928206109283061092840687E0E3E9F6E0DF011D928A95E9F7D12CEE24E394F12C80917D0690917E062D2D30E028173907C8F546E050E0B801CE0101960E9446F6C1
S284005C002B813C812B5F3F4F8091810690918206A0918306B0918406820F931FA11DB11D8093810690938206A0938306B09384068D819E81FC0133E0F695E7953A95E1F7E758F94F87709927970102C0220F331F8A95E2F7C901928D982B928F0A5F1F4FD394BECF26E0289F6001299FD00C112434E0C30ED11CE12CF12CCE010796988B13
S284005C808F8786E090E09A8B898BA12CB12C00E010E096E0792E22E2822E20EA922EF80183E0F695E7958A95E1F7E758F94F828D90E098012770332702C0969587952A95E2F780FF41C07A9CC0017B9C900D112404969E878D8769E57CE2CE010D9621DE8B859C858017910749F48F819885A985BA858C159D05AE05BF0559F01C870B873B
S284005D00CF82D886E986FA8669E57CE2CE010D96EADDC801EBDB2C01009729F49092AD068092AC0679D246E050E0B201CE0101960E9446F68B819C810596C80ED91EE11CF11C8FEFA81AB80A0F5F1F4F0333110509F0A5CFA5DD62960FB6F894DEBF0FBECDBFDF91CF911F910F91FF90EF90DF90CF90BF90AF909F908F907F905F904F9052
S284005D80089520E0FC013191CF01311105C02F5F2730C1F780E0089581E0089527E0FB0111922A95E9F7FC0123E0F695E7952A95E1F7E60FF71F8770992721E030E001C0220F8A95EAF78081822B8083CB01B4CC0895A3E9B6E0FC013D9120812323219326E0AA39B207C1F7CCCF0895A7E0B0E0ECEFFEE20C9487F5BE016F5F7F4FCEDF81
S284005E00CE010196E6DFCE010196BBDF182F882339F0CE0101964EDD8091A90681FF9FDD812F2796E3E00C94A3F508950895A2E0B0E0EDE1FFE20C9488F5809156058823E9F0BE016F5F7F4F81E290E00BD4BE016E5F7F4F8DE190E005D48981823071F48A8181110BC086E19FE290935F0580935E0587E595E00E9470C202C00E946CE029
S284005E802296E2E00C94A4F58091560508950C9493EB0895A0E0B0E0E0E5FFE20C9480F5B82E7B01082F10E093E0169507959A95E1F78770C1E0D0E001C0CC0F8A95EAF7AC2E8FE38B1538F484E090E89093AD068093AC06A1D1F801E05AFA4F80818C2311F1C0916805D091690585E0C82E80E8D82E2097C1F0FE01E00FF11F82818A2194
S284005F0071F02A853B85232B29F4D092AD06C092AC0682D1EA85FB85B7018B2D19950990D881C02DE6CFCDB7DEB7EAE00C949CF5E82FF0E023E0F695E7952A95E1F7E05AFA4F208130E0877041E050E002C0440F551F8A95E2F72423352381E0232B09F480E00895282F30E043E0369527954A95E1F7620F731F877021E030E001C0220F2E
S284005F808A95EAF7FB019281922381E009F480E008951F93CF93DF93182FEB01803438F023E030E83093AD062093AC0635D1BE01812FD8DF81112AC0BE0188E695E09AD081110BC088E0FE013296DF011D928A95E9F7BE0188E695E09DD0412F50E063E0569547956A95E1F7177021E030E001C0220F1A95EAF7C40FD51F8A81822B8A83EE
S284006000FA01E05AFA4F8081822B8083DF91CF911F9108951F93CF93DF93182FEB01803438F023E030E83093AD062093AC06F4D0BE01812F97DF882369F1212F30E073E0369527957A95E1F7177041E050E0012E01C0440F0A94EAF7942F9095C20FD31F8A8189238A83E0916805F0916905309759F0DF01A20FB31F12968C91842351F47B
S2840060800190F081E02DF3CFF901E05AFA4F808189238083DF91CF911F910895DC01ED91FC911197309721F0208131812D933C93CF01089561157105A1F0DC01ED91FC911197E617F70759F4208131812D933C930FC0808191818617970729F0FC013097C1F780E00895DB018D919C919183808381E00895DC01ED91FC91309739F0E617D2
S284006100F70731F00190F081E02DF7CF80E0089581E008950F931F93CF93DF938C01EB01E9DF882349F080E090E89093AD068093AC065AD080E014C019821882D801ED91FC911197309719F4CD93DC9308C080819181009711F0FC01FACFD183C08381E0DF91CF911F910F910895CF93DF93FC0182819381009781F40E94D9E2C22FD32F77
S2840061800E94335244E0FC0121913191CF01C227D3274150C1F7CE010E943BF681E08093390281E492E00E9486E2DF91CF91089583E392E00C94A452089580913902882369F081E492E00E94B6E285EB90E39093400280933F0210923902EACF089581E492E00C94B6E2089582E090E09093AF068093AE068091AC069091AD069093B1067A
S2840062008093B006E091AA06F091AB06309719F08EEA96E01995089583E090E09093AF068093AE068091AC069091AD069093B1068093B006E091AA06F091AB06309719F08EEA96E019950895EF920F93FC01618372834F3740F081E090E89093AD068093AC06C2DF20C0403808F04FE7440F808181700187842BE0FA80F980833483238373
S284006280CB01AC016081669504962181328174E0679F200D311D11244217530720F4DC0111971C92EECF0F91EF900895A0E0B0E0ECE5F1E30C9481F5EC018B01B42E0E94D9E269017A018D819E81AF81B885A7019601281B390B4A0B5B0BCA01B9012B813C8140E050E00E940FF52F3F31054105510518F42223F9F001C02FEF89819A81F3
S284006300BC0138813695049649815A81E4E03E9F400D511D11246417750748F4FC013291432F231708F4422F341B3083E9CFCD82DE82EF82F886A981BA814881842F86959D0154E0859F200D311D1124C901E0E0F0E0A817B907C0F413965C911397552359F02D913C9111972017310729F412962C9112972B15C1F0309719F023815217D8
S28400638008F4FD011496E5CF40FD06C0309771F0838181110BC002C0309751F011830083B2828985838304C080E003C082E001C081E0CDB7DEB7E9E00C949DF5FECE08950895CF93DF9360914E0270914F0280E090E0E1E0F0E09F01082E02C0220F331F0A94E2F740916A0550916B054623572342235323452B11F16FB7F89440916A05F9
S28400640050916B05209530952423352330936B0520936A056FBFFC01EE0FFF1FE457FC4FC081D181209739F486E090E89093AD068093AC06F1DEFE01199504C001968F30910549F6DF91CF9108950E947CE00E94C0B1882371F02FB7F89480916A0590916B05806190936B0580936A052FBF81E0089582E00895A5DF60E070E08BE20ADDDB
S28400648080916A0590916B05892B09F4D0DC20916A0530916B0581E0232B09F480E0089590CF0895FC012081211105C021E02193CF010C9486E20895FC012081213021F41192CF010C94B6E20895A5E0B0E0EBE6F2E30C9484F57C012A833B834C835D836983EADFF7011082698163872A813B814C815D812783308741875287158704876F
S2840065002596E6E00C94A0F5089589E3E3E7F3E1DF011D928A95E9F7E4E9F3E181E080839AE0918312821382148215821682178295E090939E138093A61387E080939F1347E850E066E47BE484EF93E10E9446F643E150E063E37BE480E693E10E9446F643E050E060E37BE48DE593E10E9446F648E450E068EE7AE48CEA93E10E9446F6C1
S2840065808BEA9CE0E2EBF6E0DF019C011D9221503040E1F70895A4E0B0E0E1EDF2E30C9488F5BC011A8219821C821B828827811521E0920769F0811522E09207B9F0892BE9F4660F771F660F771F6658764B07C07727660F771F660F771F6254774B44E050E0CE0101960E9446F60FC07727660F771F660F771F625D774BF1CF8AE090E616
S2840066009093AD068093AC0607DE69817A818B819C812496E2E00C94A4F577DF65CA0895A4E0B0E0E6E1F3E30C9484F57C018B01B2DFEE24E11422E0F20669F026E030E63093AD062093AC0669837A838B839C83E3DD7A816981F801718360832496E6E00C94A0F5A4E0B0E0E8E3F3E30C9484F58C017B0190DFE114F10479F420E030E608
S2840066803093AD062093AC0669837A838B839C83C3DD9C818B817A81698100270115110549F0011521E0120751F4AC01C7010E9446F60CC0AC01C7010E945CF607C081E090E69093AD068093AC06A6DD2496E6E00C94A0F5A0E0B0E0E0E7F3E30C9482F58C01EB0158DF6B017C01209739F484E090E69093AD068093AC068EDD002701159E
S284006700110539F085E090E69093AD068093AC0683DDA701BE01C6010E945CF6CDB7DEB7E8E00C949EF5FC0195A5892F887090FF09C0882379F081E021A532A52236310550F408C0882331F081E021A532A52436310508F480E08170089521E030E001C0220F8A95EAF780916F05822B80936F052FB7F89480916A0590916B058062909356
S2840067806B0580936A052FBF0895CF93DF93E0918014F09181148E179F0718F482E894E446C08E1B9F0B6CE670E00E94E8F480917B14681718F083E894E439C08CE6689FE00DF11D11248781869590E08230910559F014F00397D1F580917F148823B1F1815080937F1432C080917E14882319F0815080937E14DF01AC5ABF4FCD91DC915C
S2840068002091831430918414CE01821B930B63E270E00E94E8F4C217D30718F484E894E406C080917C14681740F085E894E49093AD068093AC06D8DC0CC0D90183E2689FA00DB11D11248C9181111C9287818E7F8783DF91CF910895CF93DF93EC0118A68EA19FA1892B39F484E494E49093AD068093AC06D1DCEEA1FFA1CE0188961995FC
S284006880DF91CF910895EF92FF920F931F93CF93DF93A0917B14409180145091811420E030E090E09A1709F45AC0FA01E20FF31FB90164597F4FB781B0FD63C07F0194E5E90EF11CD7011D921C928230B1F010F08330F1F590917F1440917D14941708F03EC09F5F90937F14138214821582168290859F709087128235C010917E149091C3
S2840069007C14191760F500918214409183145091841490E09017B9F0EA014D5D5F4FBA0163527109DB016C9161110BC01F5F10937E1441E048836896D701CD93DC93428302C09F5FE7CF4091821449130BC007C081E894E49093AD068093AC065DDC80E090E012C09085907F9087880F81608783118210828091801490918114820F931F47
S28400698003C09F5F9B018ECFCDB7DEB7E6E00C94A0F520918005215020938005BC018AE995E0B8DB81E0D9CE0F931F93CF93DF938C01C0917005D091710580916C0590916D0580519140813F954048F4B80180E795E0A0DBCD2B59F480E0BFDE08C083E694E49093AD068093AC0616DCEFCFDF91CF911F910F910895BC01615171098CE96A
S284006A0095E088DB81E0A9CE209180052F5F209380050C943A926F927F929F92AF92BF92CF92DF92EF92FF920F931F93CF93DF931F92CDB7DEB78C017B01FB01E25AFF4F89EC94E3918380833E9782E08083D80159968D919C915A973196918380839E968C919E97379680833196108231969D968C919D978095881F8827881F80833196CA
S284006A8081E08083319680839D968C919D9786FD0BC021E059968D919C915A97883F9F4F08F020E0822F01C081E0F701E35AFF4F81708083C80137DEF701ED5AFF4F6F0197012C5A3F4F3901882309F442C090902D1540912E15242F30E08091311590E001972817390739F4D80199968C91499D80191124982EA92CB12CC5014E9682366C
S284006B00910538F081E594E49093AD068093AC0683DB30912D1520912E158091431590914415F80163A574A5329F600D711D1124A5014E960E945CF68AE0890DD6018C9380914315909144154496F301918380830EC0D80199968C919997885F80839B968D919C919C970897D9018D939C93F301C080D180D6012C912C7F2F7E2C93F8019D
S284006B80818D928D237F883F9F4F10F02860D6012C93F60180818F7D8083D8019D969C9192FD03C08F7B808322C08064F6018083D70118962C911897207F216018962C93C8012983B0DD29812F70882341F0809133158295807F822BF701808708C080915E138295807F822BD70118968C93C8019ADDF60190818823A1F09068908390916C
S284006C002E1580858C7F911106C08160808780913115818709C08260808780912E15818703C09F77F6019083D80193968C919397F601818396968D919C9197979383828394968D919C9195979583848398968C918683C80168DD882331F080913215D60117968C9308C08091970591E0980F90939705F6018783C7010996C6DE80E00F90D8
S284006C80DF91CF911F910F91FF90EF90DF90CF90BF90AF909F907F906F900895E0914115F0914215BF0180819181B5CEE0E2F5E1F093F114E093F01492E09093EC1420919314309194143093EE142093ED149BE09093EF141092F4141092F51491E09093F6149093F7141092F8142CEB38E33093FB142093FA149093F91490819078926060
S284006D009068908390919A14909321152091961430919714309323152093221520919814309199143093251520932415909195149093261590919B149093271592E09093281590919114909329159091921490932A1590912B159093091510928C1410928D1410928E1410928F148093851485EA94E14ACEA4E0B0E0E0ECF6E30C9486F5D6
S284006D80182FBE016F5F7F4F8AE190E06BDC20918505309186054091870550918805A12FB0E00E9468F509811A812B813C81600F711F821F931F2496E4E00C94A2F50F931F93CF93DF93EC018C0107551109FC013C970190F081E02D6FEF818192810E945989882361F0FE01329789EC94E39183808323971882C8010E942A9202C0CE01C3
S284006E00C8DDDF91CF911F910F91089562E874E180E191E027DC63E874E18EE092E000DC809183149091841420E030918214231748F4FC0133E2239FE00DF11D112410822F5FF3CF6BE774E18FE091E00BDC60E874E18DE092E0E4DB20917B14E0918014F091811480E0821739F097819E7F97838F5FE459FF4FF7CF9091821490937C14A9
S284006E8080937D1410927E1410927F146DE275E188E291E0E7DB6BE874E189E291E0E2DB6AE874E188E191E0DDDB80918A14882351F066E874E18FE092E0B2DB63E475E180E192E0ADDB30918A1420918B148091861490918714329F800D911D1124909389148093881410928514089561EA75E082E192E095DB60EA75E087E191E0B2DB98
S284006F008091A005E091A105F091A205882349F0309739F489E294E49093AD068093AC0663C99F0146E1849F200D311D1124C90128EAE817F90718F4258B7696FACF08951F93CF93DF93EC01162F0097B1F08D819E81892B91F080E795E0A0D81F83ED81FE81CE01079619958091700590917105892B59F080E0F1DB08C08BE694E4909389
S284006F80AD068093AC0648D9E6CFDF91CF911F910895A1E1B0E0EFECF7E30C9478F58C01262E29873A874B875C870E94FBDEE091890529853A854B855C85EE2361F130907B14C0908C05D0908D05E0908E05F0908F052B013C014C185D086E087F084D825E826F827886E0918014F0918114198A66246A94762C430169827A828B829C8207
S28400700046015701861A970AA80AB90A8D869E86AF86B88A0BC00DE019E3A3C0A781A0FD09C0A989AF5FA98BE459FF4FB989B311F5CF40C0B085BF70B23099F7AA7FA23081F783809480A580B68081149104A104B10439F3E017F10721F34D805E806F807884481459046A047B0468F44D845E846F847888840C951CA61CB71C83829482FD
S284007080A582B68204C0138214821582168283809480A580B68049805A806B807C8084149504A604B70408F0BCCF89829A82AB82BC82B7CF211046C080908C1490908D14A0908E14B0908F1481149104A104B104C9F12B013C014C185D086E087F08481459046A047B0488F4C80CD91CEA1CFB1CC61AD70AE80AF90AC0928C14D0928D1464
S284007100E0928E14F0928F1408C010928C1410928D1410928E1410928F1480918C1490918D14A0918E14B0918F1449805A806B807C8084159505A605B70520F489839A83AB83BC8389819A81AB81BC81281739074A075B0710F4DA01C9010DE019E39C01AD0161E089E895E0B0D989E895E09AD96196E2E10C9494F5809180058150809300
S284007180800580918514833009F43CC0823039F082E594E49093AD068093AC063DD8E0912C15EE2379F181E080938514A0915F13B0E011972AE030E00E9462F59B01AC018091810590918205A0918305B0918405280F391F4A1F5B1FA0915E13B0E00E9468F59B01AC0160938C1470938D1480938E1490938F14E150E0932C1561E080E0EE
S28400720090E0C7CE1092851410928C1410928D1410928E1410928F140895A4E0B0E0E3E1F9E30C9480F52FEF3FEFA90110E0AA24AA94B12C80917B14181708F054C0E0918014F09181148CE6189FE00DF11D1124678160FF46C07085872F8F70823009F040C0862F8A7F8230E1F583819481A581B681C0909005D0909105E0909205F09077
S28400728093058C199D09AE09BF0983839483A583B6830097A105B105E9F4872F807F846080876E7F663059F4C50100905F1302C0880F991F0A94E2F780958093301581E029833A834B835C8348DA29813A814B815C8107C082179307A407B50710F49C01AD011F5FA7CF80918C1490918D14A0918E14B0918F140097A105B10551F1C090B2
S2840073009005D0909105E0909205F09093058C199D09AE09BF0980938C1490938D14A0938E14B0938F140097A105B10559F482E029833A834B835C83B9DC29813A814B815C8107C082179307A407B50710F49C01AD012F3FEFEF3E074E075E0751F00DE019E361E089E895E0B0D889E895E09AD803C089E895E0A0D82496EAE00C949CF505
S284007380A0E0B0E0E6ECF9E30C947FF58C01962EC091A105D091A2058091A0056E0196E1899FC00CD11C1124F8018589811109C07E01F6E1EF0EF11C58018CE0A80EB11C09C085E294E432C08A3A89F06696F6E1EF0EF11CF801CC15DD0508F04AC0908521853285F70131978081843A69F7F7013E9780819813EACF89859A852817390709
S28400740029F748E050E0B801CE010E944FF6892BE9F6F8018385F7013B9790818913D6CF813059F0833091F086E294E49093AD068093AC060E94F4301DC0F801248535858C859D852817390709F617C0F8019489F701329780819813B9CF48E050E0BE01645F7F4FC5010E944FF6892B09F0AECF04C0958A80E090E001C0CE01CDB7DEB75A
S284007480EBE00C949BF5CF93DF93EC010097B1F18AEA8D8B0E94335248E050E0BC01CE010E944FF6892B51F582E88D8B888581508E3F20F58B858330C9F48C8981508E3FE8F42C853D854E855F85688979898A899B89A0E00E94E3F571F480E194E49093AD068093AC060E94F43008C0813019F086EA8D8B03C01D8A81E001C080E0DF9176
S284007500CF910895CF93DF93EC01009761F169AB4115510551F0FA0140815181628173814AAB5BAB6CAB7DAB04C01AAA1BAA1CAA1DAAEFA5F8A9309749F484E594E49093AD068093AC060E94F4300DC0CE01C1961995CE01E8D8882331F0109242151092411581E0FAD8DF91CF910895A1E0B0E0ECEBFAE30C9486F58C01FC012081318120
S28400758080918314909184142817390740F487E494E49093AD068093AC060E940C31F801808191812091831430918414821B930B63E270E00E94E8F480917C14681750F088E494E49093AD068093AC0669830E940C3169818091831490918414F3E26F9F800D911D11242196E4E00C94A2F5FC0120814597211107C0BC018EE995E00E9462
S2840076008A3081E0AAC840E050E069EA7BCFA3E0B0E0EDE0FBE30C9486F58C01675F7F4F7A836983BE016D5F7F4F8EE090E01AD88B81D80199965C91999740919705882309F442C089819A81FC01E95BFF4F21E0208359962D913C915A973196318320833296585F50839B96ED91FC919C979C01255B3F4F3897D901ED93FC938FEF8183B0
S284007680D80196968D919C9197979383828394968D919C9195979583848398968C91868381E0840F809397054783D901ED91FC918081807888608F778083E981FA81EB5AFF4F89EC94E344C089819A81FC01E95BFF4F22E0208331962DEF3FEF318320833296575F5083D8019B96ED91FC919C979C01255B3F4F3997D901ED93FC93D8019D
S28400770059968D919C915A979283818396968D919C9197979483838394968D919C9195979683858398968C91878381E0840F809397054087D901ED91FC91808180788C608F778083E981FA81EB5AFF4F8FED96E391838083E981FA81D8019E968C919E97E15BFF4F8083E981FA81E05BFF4F80915D138083E981FA81EF5AFF4F9D968C9197
S2840077808095881F8827881F8083E981FA81EE5AFF4F81E08083E981FA81ED5AFF4F8083E981FA81EC5AFF4F808389819A812CD980E02396E4E00C94A2F5DC01ED91FC91909342158093411510922E1510922F1580915E138093331520912D1530E081A592A5B9010E94E8F4462F6093311581A592A5B9010E94E8F4892B19F04F5F4093CD
S28400780031158FEF90E000905F1302C0880F991F0A94E2F780958E7F809330158091970591E0980F90939705809332150895A0E0B0E0EDE1FCE30C947FF5EC016B01942E59010091A1051091A2058091A005780196E1899FE00CF11C1124209761F0C017D107F0F583E294E49093AD068093AC060E940C3135C0E801CE01801B910B66E171
S28400788070E00E94E8F4892B79F084E294E49093AD068093AC060E940C3106C01D89143A39F01A3A29F06696CE15DF05B8F313C088859812F8CF89859A85C816D90699F748E050E0B501CE010E944FF6892B59F7143A49F703C080E090E004C0CE0102C06696CACFCDB7DEB7EBE00C949BF54F925F927F928F929F92AF92BF92CF92DF9237
S284007900EF92FF920F931F93CF93DF931F92CDB7DEB72C017B010E9433526C0157018AE6A80EB11CF501008111814114510431F0E114F10419F0C114D10451F484E194E49093AD068093AC060E94F43088EA5EC058EAF20166A177A1960140A5C801598366DF8C015981009709F44FC0F20186899789892B19F5F8017384F3E07F121EC018
S28400798048018CE0880E911CC4010E940CC2892BA9F4F2017286D2011D9688E0F40101900D928A95E1F787E19DE3F201978B868BC20106960E9401C280E028C0F50111830083F80183858330B1F4C8010C960E940CC2009711F459EABCCFF8012489F20123A3FC0180819181F201928F818FB701C20111D80BC0F80184859585F201928F58
S284007A00818FB701C20103DE01C0852F0F90DF91CF911F910F91FF90EF90DF90CF90BF90AF909F908F907F905F904F900895FF920F931F93CF93DF938C010551110920917B14C0918014D0918114F12CF216E9F08F8180FF16C0888199818017910789F4BE01C80144DF882381F040E050E0682FC80148DDCE010E94C53381E00E94AD3344
S284007A8004C0F394C459DF4FE1CF80917B14F81640F085E194E49093AD068093AC060E940C31CDB7DEB7E5E00C94A1F5EF92FF921F93CF93DF931F921F92CDB7DEB77B010097A1F06115710589F0FC01178A168AF701E659FF4F11821082B70108DF182F882389F0C7010E94C5330DC023E134E43093AD062093AC0689839A830E940C31B5
S284007B0089819A81E2CF812F0F900F90DF91CF911F91FF90EF900895A1E0B0E0E2E9FDE30C9484F58C01262FDC01ED90FC90009709F444C0E114F10409F440C02E3C61F0822F8F7D803D41F0213D11F082E005C0F70185A587FFFACF83E0F801EB59FF4F4081518162817381D701D2964D935D936D937C93D597D1962C93833071F0D801A2
S284007B80ED91FC91808D811108C0F701178A168AB801C701ACDE883AE1F4A7014E5C5F4FD701D1966C91F80180819181ABDCC8010E94C53381E00E94AD330BC08FE494E49093AD068093AC0629830E940C312981B5CF2196E6E00C94A0F5CF93DF93EC0152DC882309F454C060E0CE01C9DB892BC1F5209709F43EC08D8981113BC0509164
S284007C00A0052091A1053091A20540E0451781F0C9012A5E3F4FF90131976081683A31F424EAFC01258B009731F432C04F5FEECF8EEA8D8B2DC0209719F03D89332349F087E294E49093AD068093AC060E94F4301AC036E1FE01DC0101900D923A95E1F706C066EACE018CDB009791F024EAFC01258B09C080E294E49093AD068093AC06BB
S284007C800E940C31BCCF60E070E080E10E944A2FDF91CF910895CF93DF93EC010097D9F08091A1059091A205C817D907A0F02091A00536E1239F800D911D1124C817D90750F48D89843A11F08A3A71F488EA8D8BDF91CF91089581E294E49093AD068093AC060E940C31EDCF82E294E49093AD068093AC060E940C31E9CFCF93DF93EC0136
S284007D00C2DB882359F064EACE013ADB009731F0C2DF60E070E080E10E944A2FDF91CF9108952091A1053091A205009751F0FC0176968091A00596E1899F200D311D112408C0F901F6CF8589843A49F08A3A39F07696E217F307B8F380E090E00895CF010895CF93DF93EC01BC018EE995E00E948A301F8A1E8A81E00E94AD33DF91CF91FD
S284007D800895CF93DF93EC01BC018CE995E00E948A301B8A1A8A81E00E94AD33DF91CF910895AAE0B0E0E7EDFEE30C947EF510919E13BE01665F7F4F87E091E00E943233BE016F5F7F4F8AE190E00E943233C980DA80EB80FC80812F90E0A0E0B0E08C159D05AE05BF0578F0CC0CDD1CEE1CFF1CC982DA82EB82FC82BE016F5F7F4F8AE1B8
S284007E0090E00E946A33C12ED12C87E0C80ED11CEE24D7FCE094FE2CC0928505D0928605E0928705F09288052A8530E0A3E0B0E00E9453F59B01AC01C701B6010E94CDF409811A812B813C81600F711F821F931F6093810570938205809383059093840581E08887BE01675F7F4F87E091E00E943233BE01685F7F4F84E290E00E943233FB
S284007E80898590E0A0E0B0E0880F991FAA1FBB1F8F3F9105A105B10529F020F08FEF90E0A0E0B0E00E94BA36E885EE2309F45AC0812C912C54018B019C0101501E4F2F4F3F4F800E911EA21EB31E660F771F881F991FE15081F718867501640129E0F694E794D794C7942A95D1F7D501C4019170AA27BB2741E050E060E070E0892B8A2BEF
S284007F008B2B19F440E050E0BA01C40ED51EE61EF71E1E821D821F82BE01695F7F4F81E191E00E943233BE016B5F7F4F88E092E00E941033970186010F3F11052105310529F020F00FEF10E020E030E06D817E81C12CEE24E39420E032E04F8182E795E00E9424312A96ECE00C949AF5882331F00E9438F6809397051092800510929F0598
S284007F8010929E0510929D0510929C0510929B0510929A0510929905109298058AE090E0A0E0B0E080933A1590933B15A0933C15B0933D158EE496E39093401580933F1581E080933E151092921410929B1410929014109297141092961410929114109295141092991410929814109294141092931410929A141092851410928C1410929C
S2840080008D1410928E1410928F148CE6ECE9F4E1DF011D928A95E9F783E2E8E0F5E1DF011D928A95E9F780918B1490E0019620918A14289FA001299F500D112460E070E080918614909187140E9476F680E295E19093F1148093F014A4CE4F925F927F928F929F92AF92BF92CF92DF92EF92FF920F931F93CF93DF931F92CDB7DEB77C0126
S284008080009781F02C0127E0421A510880917005909171058415950529F4D20112968C91893149F086E694E49093AD068093AC060E94F430CBC080916C0590916D058115B7E09B0709F07FC000919E0510919F050115110551F08EE995E00E944E3040E050E063EAC8010EDAEFCF6CE6C62ED12C7CE6772EE2E4AE2EE4E4BE2EF3E48F2E74
S284008100F4E49F2E00919A0510919B050115110509F444C0B8018AE995E00E945A308091801490918114F801E81BF90BCF01B6010E94E8F480917B14681740F0B092AD06A092AC0669830E940C316981E0918014F0918114679DE00DF11D1124808191812781269530E02130310561F02230310549F2232B61F4A8014B5F5F4FD801129618
S2840081806C9103C040E050E067EABCD9BBCF9092AD068092AC060E940C31B4CF10E080917B141817D8F48091801490918114BCE61B9F800D911D1124FC01278120FD0E94C5331F5FECCF8115924041F087E694E49093AD068093AC060E940C3110926F0510926E0581E0C2DE0E9406370E94763782E393E090936D0580936C05D7018C9180
S284008200F201828780E795E00E944E30D20118968D919C911997892B41F489E694E49093AD068093AC060E940C31D2011896ED91FC911997C701039619958091700590917105892B19F080E00E94AD330F90DF91CF911F910F91FF90EF90DF90CF90BF90AF909F908F907F905F904F900895CF93DF93C0917005D0917105209741F484E67C
S28400828094E49093AD068093AC060E940C318A818A38F9F0853C09F44FC0893109F06CC080916C0590916D058031914019F480E092E002C080E097E090936D0580936C058DE290E49E838D83CE0103960E9417A95BC080916C0590916D05823323E0920719F08031964049F48FE394E090936D0580936C0556DD1D8202C083EA8D8380E75A
S28400830095E00E944E308B819C81892B41F48AE694E49093AD068093AC060E940C31EB81FC81CE01059619958091700590917105892B51F180E018C080916C0590916D058F339440A1F480E095E090936D0580936C0582E090E09C838B8389E895E00E945C321092800581E00E94AD330DC063EACE010E94A03708C085E694E49093AD0673
S2840083808093AC060E940C31DF91CF910895AAE0B0E0EDECF1E40C9488F5DC011396ED91FC9114972181328140E450E05A834983AE01495F5F4F5C834B8341E050E05E834D836F3FBFEF7B0719F437FF15C003C02617370789F098878F837A876987BE016F5F7F4F8EE10E944A2F81E02D813E81232B19F080E001C081E02A96E2E00C94C3
S284008400A4F5009729F480917E0590917F050895FC01808191810895CF93C82FE0E0F0E0CF01EFDFFC01009739F0A381B4818C91C813F6CFCF0102C080E090E0CF910895DF92EF92FF920F931F93CF93DF938C01009741F480E394E49093AD068093AC060E940C31C0E0D0E0A1E3EA2EA4E4FA2ECE01C7DFEC01009789F18A818111F8CFA2
S2840084808B819C81892B31F4F092AD06E092AC060E940C31F80160A171A1CE0178DF882339F3EB81FC81D0806D2DF801878190850E9459898823E1F2F801D18AED81FE81309749F482E394E49093AD068093AC060E94F43003C0C8011995CACFCDB7DEB7E7E00C949FF5A1E3B0E0E9E7F2E40C947EF58C01B62EDC015C96ED90FC905D97D5
S28400850057966D917C915897F701478182E795E00E945631882309F414C1D70111968C919FEF980F9E3F28F477DF6C01009719F408C1C12CD12CF801248985899689213009F022E02F8399878887D70111968C918A8BF8018789908D0E940FC2FC01009799F083E08B8B708161815281438134812581968187817E8B6F8B588F498F3A8F98
S2840085802B8F9C8F8D8F02C082E08B8BD80157968D919C9158979D8B8C8B59968D919C915A979F8F8E8FF701868188A3848195819AA389A3828193819CA38BA35B968C9190E09C012A5031093EA32DA319A6208127FD04C09C012850310906C02085237029F49C01295031093EA32DA32DA13EA1821B930BF801248D358D280F391F38A75F
S2840086002FA3BAA684A18BA7868D8CA740A151A162A173A14DA75EA76FA778AB878D89ABD7018C9187FF48C018968C918370823009F042C0E0918814F0918914808190E09EA38DA38080912CAA24A394B12C2091901430E08091861490918714A216B3064CF5E0918814F0918914EA0DFB1D408150E020918B142A9DB0012B9D700D11243D
S284008680680F791F880D991D0E945CF6E0918814F0918914EA0DFB1D20818DA19EA1820F911D9EA38DA3BFEFAB1ABB0A8081880E911CCDCF98A78FA3C114D10449F0D6011596ED91FC911697CE010196199539C0F8018489813021F4CE010196B1DE31C0D70111968C918F3F41F5E12CF12CC70188DE7C01009729F1D7011396ED91FC9118
S28400870014978081882399F312968C918111EFCF69A17AA1C7013BDE882349F3D7011396ED91FC91149780818A8B1596ED91FC911697CE0101961995DACFCE0101960E947DC9C8010E942C34E196ECE00C949AF5A1E0B0E0EEEAF3E40C9480F55C01DC015C960D911C915D97F80181812FEF280F2E3F80F4298350DE7C012981009751F0CD
S284008780D80114966D917C91159701DE882309F405C105C02E3F08F401C1E12CF12CF801808187FF04C09085937009F0F7C086FFF7C08C70883009F4F1C0D50157968D919C915897883FBFEF9B0708F0E7C0E114F10421F0F70122812111E0C0D5015C960D911C915D97F801208126FD02C090E0D2C02370213009F027E0F0907B14E09122
S2840088008014F091811430E0422F50E0B801640F751F3F15E9F0A781A530B1F4DF01AF5ABF4F0D90BC91A02D8A179B0769F4DF01AC5ABF4FCD90DC90C40ED51EDB01EC90D601DC90ED1499F23F5FE459FF4FE1CF82E029830E9443342981009741F2FC01EC5AFF4F0190F081E02DDF0158973FEA11963C9311971396BC92AE92129762E0C6
S284008880DC01A05BBF4F6C93D50157964D915C915897DC01AF5ABF4F11965C934E9317961C9211961C9231E011963C9311963C9311961C9249EC54E3129611965C934E9311973C9330813C7F32603083D8014C914C70337F342B30834C914295417040FB34F93E7D3F7B30834C9147FB442740F940FB37F930834C9130E0DC01AD5ABF4F06
S2840089007D0144FF0DC0D5015C964D915C915D97420F531FDA012C912183F701608337C048E04C93D80116964C911697418312964D915C9113975383428314964D915C9115975583448311964C914683D5015C964D915C915D97420F531FDA012C912783D8012C9127FF13C018962C91237031F41086F70120812F5F208309C0D7012C9171
S2840089802D5F2C93D80118962C912370208709960E94043591E081E08927A1C190E001C091E0F801808187FF92C18085837009F48EC1D5015C960D911C915D975B968C91F801F18420918A14222309F487C196EFE92EE80E80918514813009F456C030F0843008F06BC180E494E46AC1D084B1E0DB1274C12F1508F471C180918B148E156B
S284008A0008F46CC190E00196289FA001299F500D112460E070E080918614909187140E9476F68FEA80932B15D0928514F0929014F5018789908D9093941480939314D80111968C9111978093951412968D919C911397909397148093961414968D919C911597909399148093981416968C91169780939A1417968C9180939B1480915E13C7
S284008A8080932C1510929114F12CF8018085982F9370923011F0F11021C18C7F09F01EC1809190148F1508F419C12091931430919414D50157968D919C9158972817390709F00CC190919514F8018181981306C12091961430919714828193812817390709F0FCC02091981430919914848195812817390709F0F2C090919A14868198135C
S284008B00EDC090919B1487819813E8C02091911440915F130F2D10E0822F90E0840F911D081719070CF0DAC08F2D642F0E94DCF4D92EF21668F48F2D891B8093911421E030E001C0220F4A95EAF721952093921420918B1480918614909187144E2D50E0D5015C966D917C915D97665F7F4FF29E800D911D11240E945CF6E0918814F091C8
S284008B808914E00FF11FE08270919114209190147F1111C090915F13822F8F19981708F4892F41E050E0082E01C0440F0A94EAF741954093921441E050E00D2C01C0440F0A94EAF760919214642B609392146F3F79F4FF24FA94F70E822F90E040915F1350E0871B9109481759070CF4CA01F80E8F2D90E030E0215031098217930751F4F2
S284008C006F3F21F483E00E94563663C082E00E94563664C0A0915F13B0E011979D01270F311D8217930711F06F3F09F582E00E945636809192148F3F09F050C080915F1390919114980F909391142091901421502F19821708F4282F81E090E0022E01C0880F0A94EAF781958093921437C02AE030E00E9462F59B01AC0180918105909165
S284008C808205A0918305B0918405280F391F4A1F5B1FA0915E13B0E00E9468F59B01AC0160938C1470938D1480938E1490938F1461E080E090E00E94C93710C083E594E49093AD068093AC060E940C3107C0992329F06FEAC50107DC80E001C081E02196EAE00C949CF5A4E3B0E0E9E7F6E40C9478F5C0906C05D0906D0520E1C21621E0DD
S284008D00D20609F46CC12EE4222E24E4322EAA24A394B12C8AE995E00E944E307C01009709F45DC10091801410918114C701801B910B6CE670E00E94E8F480917B14681748F089E494E49093AD068093AC060E94F43045C13CE6639F000D111D1124D80117968C91B0E1CB16B6E0DB0621F0C114E5E0DE0699F58E7F843019F5C8018C5A31
S284008D809F4F0E94B63A4C01DC0111966C91119712968D919C911397892B51F4EAE4F4E4F093AD06E093AC066CAB0E940C316CA9D70112968C91811104C0F4018281938192DBA7014B5F5F4F63EAD8018D919C910E94823AC7010E94C5339CCF8695482E512CB1E04B165104B1F054F4452809F0EFC0D70112966C91C8010E948C3D8ACF71
S284008E00F2E04F16510409F4BCC023E04216510409F47CC0DDC0F80180858F70813009F079CF80809180D70119968C910E94BA369B01AC01A0915E13F801808582958F70A81BC20102C0880F991FAA95E2F7DC010E9472F52B013C01D70112966C91611115C043825482658276820E9438F69170B301A201480F591F611D711DD80113966C
S284008E804D935D936D937C9316972EC06E3C51F0603F41F0603D31F0613D89F4F40195A597FF0DC0A7014B5F5F4FC4010E94823AC7010E94C53381E00E94AD3390C0D80113964D925D926D927C9216970E9438F69170B301A201480F591F611D711DF8014383548365837683D80118968C911897807F826018968C93189713962D913D91AC
S284008F004D915C91169760E0C80104C2F80180858F70813009F0FECE20912E1530E08091311590E001972817390709F4B5C1E0915F1370913015272F30E080E090E0682F8E1708F0A9C10196A901062E02C0559547950A94E2F740FFF2CFC501062E01C0880F0A94EAF7809587238093301580912F15860F80932E1584E395E10E9486E25D
S284008F80C9CEC8018C5A9F4F0E94B63A8C01DC0111966C91119712968D919C911397892B51F4EDE4F4E4F093AD06E093AC066CAB0E940C316CA9D80112968D919C91139792DAC7010E94C53381E00E94AD33A2CE3092AD062092AC060E940C319BCE1BAA1AAAACEF4A2EA4E35A2EBFEA2B2E13E0312EAA24A394B12C66246A94712C95E414
S284009000892E94E4992E8CE995E00E944E308C01C0906C05D0906D05009751F1F80182899389892B09F079C1048CF58DE02D80818370813009F071C18281853009F46DC1D80157968D919C9158970E940FC2892B09F063C122E0F80126838789908D90878783538A428AC80102960E9401C2CBCFC1FE11C050E5C52E54E4D52E62E0462E31
S28400908072E1A72E74E4B72EE8E05E2EF7EF8F2EFAE39F2E3BC000919E0510919F050115110509F458C0B8018EE995E00E945A3040E050E063EAC8010E94823AECCF808D833081F57801FBE1EF0EF11CC7010E940CC2892B39F5D8011D96F701852D01900D928A95E1F7D80158968C9158971A968C931A9757969C928E925697C801069674
S2840091000E9401C28EE995E00E944E3000919E0510919F0501151105F1F0F80186899789892B69F28091411590914215892B09F4BEC2C8010E949333882309F4B8C2C8010E949333882309F4B2C2F8010081118101151105A1F780916C0590916D058115B5E09B0721F08031F6E09F0769F5F12C0EC02CE6F29E80011124E0918014F091F5
S2840091808114E00FF11F8781833031F0F39480917B14F81670F320C080858F70843011F08230A1F740E050E063EA808191810E94823A8091801490918114800F911F805A9F4F0E94C533E2CF8F33944029F4F12C80917B14F81648F080916C0590916D058115954009F080C351C000918014109181148CE6F89E000D111D1124D8011796E8
S2840092008C91179780FF40C018969C911897292F2F702430C9F5282F2A7F2230A9F5907F79F19160905118969C938E7F823071F4C80109960E940435F801238134814581568160E0C8010E94C9371EC08630E1F4809130158E7F8093301580912F1580932E1580913315815080933315E0914115F0914215BF01808191810E940B3504C087
S28400928067EAC8010E948C3DF394A2CF80918005882309F4AAC228C3F70181850E94BA369B01AC01A0915E13F801808582958F70A81BC50102C0880F991FAA95E2F7DC010E9472F52B013C0100914115109142150E9438F69170B301A201480F591F611D711DD80113964D935D936D937C931697E0914115F09142158085807F826080874B
S2840093008091411590914215FC01238134814581568160E00E94C937FDCCD8015C96ED90FC905D97BFE3CB16B4E0DB0669F0D7018C918370813041F0F80185A1811104C0C8010E942C34A4C1D7014C91642F607446FF11C050917E1420917B1430E080917F1490E0850F911D821793074CF780917C14581728F7242F2C70243009F366232B
S28400938031F0842F83708230D9F243FDD9CF45FDD7CFF801D488F1E0DF1671F032E0D312CFCF4370842F90E0009721F0029709F47AC0C6CF2C3031F0C801CAD9882309F467C1BECFD80157966D917C915897F701408582E795E00E945631882309F4B0CFD8015B968C91893008F4AACFB1E0BF83F7018181928199878887D80157968D9167
S2840094009C9158970E940FC2FC01009791F03B8A708161815281438134812581968187817E8B6F8B588F498F3A8F2B8F9C8F8D8F01C0DB8AF8018789908D9D8B8C8B818D928D9F8F8E8FD70117968C91179788A315968D919C9116979AA389A313968D919C9114979CA38BA3838D90E009979EA38DA3848D958D099698A78FA319A62AA615
S28400948084A18BA7868D8CA780A191A1A2A1B3A18DA79EA7AFA7B8AB878D89ABCE0101960E9420424DCF423031F09092AD068092AC060E940C31C0908014D090811480917B14F6012CE6829FE00DF11D1124CF01C816D90608F034CFD60117966C91179760FFD2C018962C9118972F70223009F0CBC0F601EC5AFF4F0190F081E02D2D9173
S2840095003C91D80157964D915C915897D90159962D913C915A974217530709F0B5C0D70117963C91179727813213AEC014964D915C911597248135814217530709F0A4C012964D915C911397228133814217530709F09AC011963C9111972681321394C016963C91218132138FC06E7F623031F4F6018085807F836080873FC0663009F0B0
S28400958083C0D70119969C91199780912F159813D7CE60915F13262F30E0C501062E01C0880F0A94EAF781951A969C911A97982B1A969C931A97F6018085807F836080871A96EC91EF3F99F54091311550E070912F15E70FCA01871B9109281739070CF4C9018E0F80932E1590E0415051098417950741F4C6010E94DD3B60E0C6010E9406
S2840096008C3D9ECE760F70932F1580915E138093331570932E15930102C0220F331F6A95E2F7B90160956E7F6093301523C0E095E093301580E090E02E2F30E0782F8617C8F40196A901072E02C0559547950A94E2F740FFF3CFC501072E01C0880F0A94EAF780958E238093301580912F15870F80932E15E0914115F0914215BF018081E8
S28400968091810E940B355CCE3CE6C30ED11C20CFD8015E968C915E978AAB5F968C918BABBE016E5C7F4F8BE30E944A2FACCCC8010E949333882361F08091431590914415892B09F4BDC0D8019D968C9182FFB8C0F80181A592A58536910518F085A583FFB1C0D80198963C90332031F0832D0E940C42892B09F448C0F80185A5208D382FC1
S284009700347082FF0AC0223031F4818D928D883F9F4FD0F502C02130B9F18EEF820F823038F4D80193968C91815F8E3068F18CC021118AC0332309F487C0F80166A077A092D67C01009719F080E090E00CC0B092AD06A092AC060E94F43076C0DC011B962C91213089F09701432DB3010E94173C0097A1F769C0813008F475C0823009F4FB
S2840097809AC0833009F48AC026EAE12CF12C612C712CB8018EE995E02CAB0E945A302CA921111CC0E114F10431F4D092AD06C092AC060E940C31F30111830083C8010E949333882319F0C3010E94DD3BB301C801F7011995282F882309F498CC40E050E0622FC8010E94823A91CC0091700510917105F8018281853C41F08DE694E49093A8
S284009800AD068093AC060E940C31D80113968D919C9114978D7F14969C938E931397892B09F062C080E00E94B63F80E196E090936D0580936C0560E0C8010E94A03754C02AEAA3CF20EAA1CFD80158968C91813009F091CF80E00E9443343C0137E0E32E3BE3F32E0DC0C8010E949333882371F083E00E9443343C0146E5E42E4DE3F42EBB
S2840098806114710409F467CC20E083CFF80185A582FF02C081E0EDCF80E0EBCFC8014B960E940CC20097F1F0DC018D919C91F801928F818F408EC8010E949333882311F083E008C0D8019D968C9182FF02C081E001C080E00E9443343C012BE0E22E25E3F22ECECF29EA51CFE496E2E10C9494F5AFE1B0E0EEE7FCE40C9485F5009749F420
S28400990085E495E49093AD068093AC060E94F43082C0FC012081233009F07DC0218132813A83298328E03396DE01139601900D922A95E1F7FC0123852B87248535853D872C8728E03E96DE011E9601900D922A95E1F7FC01218D2D8F238D2E8F0789108DF688F6E0FF1508F056C0F8018081982F9370933009F04FC0807E09F04CC08181E6
S284009980811149C0BE01615E7F4F85E190E00E943233F801208126952695277030E08F8D90E028173907B9F58281982F9370933091F5982F907F79F58C708C3091F481E08B87F8E0FF1538F5F801838194819F878E876FEF0E9459898823E9F0F80129E003C0F801329727E085819681998F888F878190859F8B8E8BF21AFA8E020F111D3B
S284009A001C8F0B8FE0917C05F0917D05309719F0CE01019619956F96E5E00C94A1F580E191E090936D0580936C05109271051092700510926F0510926E0510927F0510927E050E9406370C9436A9CF93DF93EC0160E572E085E20E94C92F60E572E088E30E94C92F209749F480E694E49093AD068093AC060E94F43005C089E18A83CE01A2
S284009A800E94D434DF91CF910895009741F481E694E49093AD068093AC060C94F4302AE8FC0122830C94D434009741F482E694E49093AD068093AC060C94F43025ECFC0122830C94D434CF9330918214809183149091841420E0231751F08396FC01B3974081442311F081E029C02F5FF4CFC0E080917B14C817E0F40E94442F9CE6C99FD3
S284009B00900111244091801450918114FA01E20FF31F882341F0878180FF08C080858F70823021F0E0CF878180FDDDCFCF5FE0CF81E090918514911101C080E0CF9108951F93CF93DF93EB01853239F41881BBDF91E09827912398831FC08833E9F4388140917B14E0918014F091811480E0841771F0278120FF07C090859F70923019F4A7
S284009B802A7F223031F08F5FE459FF4FF0CF80E001C081E0832B8883DF91CF911F910895FC01808184FD0C9476370895A2E0B0E0ECEDFDE40C9488F5E0916E05F0916F052F2F30E09E2F9F5F983008F090E0692F70E0A901092E02C0569547950A94E2F740FF26C090936E0581E090E0062E01C0880F0A94EAF78F2780936F05660F771F78
S284009C006353744B42E050E0CE0101960E9446F689819A81892B41F480E094E49093AD068093AC060E940C31E981FA81199504C0E913C9CFE0936E0580916F05882361F02FB7F89480916A0590916B05806290936B0580936A052FBF2296E2E00C94A4F58091A713853091F028F4882349F0823069F004C0843141F0863141F080E008956C
S284009C808091A0138B3010F488E0089582E00895833014F083E01BC096E0980F923010F48BEF15C098E0980F923010F489EF0FC09AE0980F923010F487EF09C09EE0980F943010F484EF03C0823F0CF48FEE8093A5130895C5DF282F220F220F280F30E0A90160E8869F400D511D1124CA0108958091A7138530E9F028F4882349F0823078
S284009D0079F004C0843189F0863189F080E008958091A013882349F08B3058F489E108958091A013811105C002C082E3089588E2089580E10895CF93DF93EC01D9DFE82F9E01A0ECB3E00E9453F59B01AC01AE2FB0E00E9468F528EE33E040E050E00E940FF5CA01B901DF91CF910895CF93DF93B1DFEC01BDDF282F2C9FC0012D9F900D85
S284009D801124BC0180E090E028EE33E040E050E00E940FF52F5F20939E13DF91CF910895CF93DF938BE08093A01380E098EFAFEFB7E08093A1139093A213A093A313B093A41365EA73E183E090E00E9432338091A5135EDF65EA73E183E090E00E946A331092A71377DF9093A9138093A81338DF94E0899F800D11248093AA1331DF80937C
S284009E00AB1386E390E0A0E0B0E08093731390937413A0937513B0937613109277131092781381E08093791310927B1310927A1310927C130E9438F680937D13EEE7F3E18FEF80838183828383838483858386838783CFEFDFEFD0938713C09386130E9438F68093881385E08093891384E080938A1383E080938B1380938C13D0938E13D0
S284009E80C0938D1380E280938F131092901310929113D0939313C093921310929C1310929D1364DFDF91CF910895A4E0B0E0EBE5FFE40C9488F5DC014C9150E0CA01805491098534910508F0DFC08E599D4DFC010C944DF511968C918093781308C011968D919C91129790937B1380937A1380E015C111968C91853308F00FC180937C13A5
S284009F00F6CF11968C9180937D13F1CF11968C91119780937E1312968C91129780937F1313968C9113978093801314968C9114978093811315968C9115978093821316968C9116978093831317968C9117978093841318968C9180938513C9CF11968D919C9112979093871380938613C0CF11968C9180938813BBCF11968C91863008F032
S284009F80CCC080938A13B3CF11968C9190918913981708F4C2C080938C13A9CF11968D919C91129790938E1380938D13A0CF11968C91809390139BCF11968D919C911297909393138093921392CF11968D919C911297B1DE69837A838B839C83BE016F5F7F4F03C0BD016F5F7F4F82E090E079C011967C91119712966C91129713965C91E1
S28400A000139714964C91149715963C91159716962C91169717969C91179718968C9170939413609395135093961340939713309398132093991390939A1380939B1357CF11968C918093771352CF11968C91883008F063C080938B134ACF11968C9180938F1345CF11968C918093891340CF11968C91803108F051C080939F1338CF1196BD
S28400A0808C9180939D1333CF4830510508F043C049555D4DFA010C944DF58BEF3FC011962C918091A1139091A213A091A313B091A413022E04C0B695A795979587950A94D2F780FF2AC02093A01323C011968C9190E2980F903408F5DBDD65EA73E183E090E00E946A3303CF11968C918430A8F48093A613FCCE11968C91853041F018F41B
S28400A100833058F404C0843111F0863131F48093A7132CDEECCE84EF01C088EE2496E2E00C94A4F5A4E0B0E0E8E9F0E50C947AF560908A136091891370E0E0918C13F0E0262D30E0CB018E1B9F0B281739070CF4C901AA2797FDA095BA2F0097A105B10521F481E090E0A0E0B0E0712CC12CD12C76018C019D01015011092109310942E031
S28400A180442E512C872C912CA12CB12C081519052A053B05B0F0AF01470D511D41505109520102C0AA0CBB1C4A95E2F74501AA2497FCA094BA2CC80CD91CEA1CFB1C7394E1CF262D30E040E050E0281B390B4A0B5B0B61507109A2E0B0E002C0AA0FBB1F6A95E2F711970E9472F59B01AC012C0D3D1D4E1D5F1DA4E1B0E00E9468F59B016F
S28400A200AC0169833A834B835C8364DD29813A814B815C81280F391F411D511D29833A834B835C8365DDA82FB0E029813A814B815C810E9468F528EE33E040E050E00E940FF5CA01B9012496E0E10C9496F550DDE82F20918F1330E0A0ECB3E00E9453F59B01AC01AE2FB0E00E9468F528EE33E040E050E00E940FF5CA01B9010895A4E0EC
S28400A280B0E0E5E4F1E50C9482F58C01FC01408150E0FA01E054F109E534F10508F0B2C0E155FD4D0C944DF580917813F801818380E0D5C080917A1390917B13C3C080917C13F4CF80917D13F1CF70917E1360917F135091801340918113309182132091831390918413809185135BC08091861390918713A7C080918813D8CF80918A139E
S28400A300D5CF80918C13D2CF80918D1390918E1399C080919013CACF809192139091931391C0BE016F5F7F4F82E090E00E943233C980DA80EB80FC80C114D104E104F10491F0D6DC282F30E0A0ECB3E00E9453F528EE33E040E050E00E940FF5C701B6010E940FF502C024EF31E0F801328321839FCFBC016F5F7F4F82E090E00E943233FB
S28400A38097CF70919413609195135091961340919713309198132091991390919A1380919B13F801718362835383448335832683978380877DCF8091771378CF80918B1375CF80918F1372CFFC01118271CF8091731390917413A0917513B09176132BC08091891363CF80919F13F801818336C080919D135BCF2BDFF80161837283838371
S28400A400948356CF4830510548F5FA01EC50FD4D0C944DF58091A01349CF8091A51346CF8091A61343CF8091A1139091A213A091A313B091A413F80181839283A383B48337CF48DCF8019283818332CF09DCF4E08F9F800D11242ACF03DC28CF84EF2496E8E00C949EF584E993E1089548E050E0BC0184E993E10E944FF621E0892B09F0C8
S28400A48020E0822F0895CF92DF92EF92FF92CF936B017C01E5DBC82F2BDC2C2F30E0A82FB0E00E9453F59B01AC01C701B6010E94CDF428EE33E040E050E00E940FF5CA01B901CF91FF90EF90DF90CF9008952FB7F8948091E8059091E90594609093E9058093E8053FB7F8948091A30581110FC04FB7F89480916A0590916B0581609093F1
S28400A5006B0580936A054FBF81E08093A3053FBF2FBF0895BC0185EA95E00E948A308091A405811101C0D3CF0895FC011282F2CF21E0FC012283EECF22E0FC012283EACF23E0FC012283E6CF25E0FC0122831186108622E02783DECFA1E0B0E0E2EBF2E50C9487F51092A6051092A5055AD11FB7F894CE0101960E9431D8811104C082E092
S28400A5808093A40502C01092A4051092E9051092E8051FBF2196E3E00C94A3F5A2E0B0E0E4EDF2E50C9486F51FB7F8941092A305CE0102960E9431D8882339F08091A4058230C9F41092A40516C081E090E00A8002C0880F991F0A94E2F7809590952091E8053091E905282339233093E9052093E80580E001C081E01FBF8111BAC081E0FE
S28400A6008093A4058A818A3029F50091A5051091A60520915C0230915D0241E050E00115110539F4CE0101960E9431D881114BC033C0CA01F801028002C0880F991F0A94E2F782239323892B09F065C0F80100811181E5CF90E08C30910520F7FC01E450FD4D0C944DF5B0D214C0B7D212C02AD410C0C5D30EC05ED30CC00E94B6D509C06C
S28400A6800E943AD506C03DD104C00E9485D501C0A5D0811127C0C6CF2FB7F8948091A30581110FC03FB7F89480916A0590916B05816090936B0580936A053FBF81E08093A3052FBF56C08091AE05811152C08091A5059091A605892B11F0F9DE4AC01092A40547C0813009F044C04FB7F89421E030E00A8002C0220F331F0A94E2F780911A
S28400A700E8059091E905822B932B9093E9058093E8054FBF2EC0B80185EA95E00E945A30F801428150E04930510508F07BCFFA01E85FFC4DC8010C944DF597D393E002C040D394E09A83A5CF87D295E0FBCF0E94A2D596E0F7CF0E9417D592E0F3CFB5D098E0F0CF0E9465D599E0ECCF06D09BE0E9CF2296E4E00C94A2F5CF93DF93EC01B5
S28400A78018868B819C819C01215031092F333105C8F4805C9E4F9C838B838A81873031F0883081F4CE010E94F2B103C0CE010E94D8B1882339F0813061F4D093E705C093E60507C01886EE81FF81CE010896199580E08093A705DF91CF910895CF93DF93C091E605D091E7058A81873031F0883041F4CE010E94F2B107C0CE010E94D8B1B6
S28400A80003C081E0888702C0811106C0EE81FF81CE010896199580E08093A705DF91CF910895AEE0B0E0E7E1F4E50C9486F50E940CB282E088871E861D861A86198681E08F83CE0101960E9442B58B859C850E943BF673D00E94CAD589D2F0D26ED30E9460D568D00E949FD58EE4898380918A138A83CE0101960E9407B68FE489838091B4
S28400A8808C138A83CE0101960E9407B689E5898380918B138A83CE0101960E9407B680E589830FEF1FEF1B830A83CE0101960E9407B683E589831B830A83CE0101960E9407B62E96E4E00C94A2F51F93CF93DF93EC010E9442B5182F882339F0813051F4D093E705C093E60505C0EC85FD85CE01089619951093A805812FDF91CF911F915A
S28400A90008951F93CF93DF93C091E605D091E705CE010E9442B5182F811105C0EC85FD85CE01089619951093A805812FDF91CF911F9108951092A8050895A2E0B0E0E3EAF4E50C9488F56FE578E180E092E00E941033BE016F5F7F4F80E091E00E94323329813A8180915F1890916018909364188093631890936618809365189093681816
S28400A98080936718280F391F30936A182093691810926218109261186BE678E183E292E00E941033BE016F5F7F4F8EE291E00E94323329813A8180916B1890916C189093701880936F1890937218809371189093741880937318280F391F309376182093751810926E1810926D182296E2E00C94A4F59CE0899FF0011124E15AF74E8681EC
S28400AA009781019608959CE0899FF0011124E15AF74E4FB7F894A681B7818C9190E001968A0F9B1F978386831C9226813781808591852817390751F484819581918780878081918195838483978386834FBF08959CE0899FF0011124E15AF74EA681B78182819381A817B90721F081E09C91911101C080E0089581E0EBDF8823F9F080917C
S28400AA80E8059091E90581609093E9058093E8052FB7F8948091A30581110FC03FB7F89480916A0590916B05816090936B0580936A053FBF81E08093A3052FBF80E0C8DF8823F9F08091E8059091E90582609093E9058093E8052FB7F8948091A30581110FC03FB7F89480916A0590916B05816090936B0580936A053FBF81E08093A3057C
S28400AB002FBF0895A6E3B0E0E8E8F5E50C9487F5182F6FDFFC01208130E0DC01A20FB31F12968C912F5F3F4F2E0F3F1FD9016C91813220F4811103C081E001C080E26295669566956370689FB00111248FEF869FA001879F500D1124CA0160E670E00E94E8F4D9016C93BF01CE0101960E9419D6882319F18A81982F977029F4807619F40A
S28400AB808B818C70B1F020914E0230914F022E7F30934F0220934E02CE010196BED420914E0230914F02216030934F0220934E0204C08091A013898FE6CF812F24DF80E0E696E3E00C94A3F581E042DF882311F081E098DF50DF80E0089580E039DF882311F080E08FDF47DF80E00895A9E0B0E0ECEFF5E50C9485F58C018091AB0565E08C
S28400AC00813029F4C4D0F82E811121C01EC080E0BED0F82E81111BC0F8018381898388E03496DE01129601900D928A95E1F7CE0101960E9407B6F82E8091AB05823039F48091AA05B3D065E0A2D01092AB058F2D2996E5E00C94A1F5A9E0B0E0E2E3F6E50C9486F58C01DC0113968C91833511F148F4853028F4823088F4811124C01AC0F6
S28400AC8092EB09C08438B1F028F4893579F08F36D1F410C090E1980F9330A8F4813F41F4F80194812091A905921339C091E00CC08935E1F390917B189093AA05963119F492E09093AB0590E02091AB05211111C0911113C0898388E0F8013496DE01129601900D928A95E1F7CE0101960E9407B602C0C8017BDF811108C0D8011C96ED91EF
S28400AD00FC911D97199580E004C01093E7050093E6058093AC052996E4E00C94A2F59093A90590917B189093AA05963109F0BECF91E0C7CFA1E0B0E0E0EAF6E50C9486F50091E6051091E705C80150DF811108C0D8011C96ED91FC911D978983199589818093AC052196E4E00C94A2F51092AC051092AB051092A9050895882331F08130C6
S28400AD8011F083E0089586E1089589E1089560934515F3DF0C940CB7882331F0813011F088E0089586E1089589E108958850823130F4E82FF0E0E655FC4F8081089588E008951F93CF93DF93EC0110917B188B81E3DF181729F064E08B81D9DF811105C0EC81FD81199580E004C0D093E705C093E6058093AD05DF91CF911F910895A1E0AA
S28400AE00B0E0E5E0F7E50C9486F50091E6051091E70564E0D80113968C91B9DF811108C0D8011496ED91FC9115978983199589818093AD052196E4E00C94A2F51092AD050895CF93DF93EC0163E080E0A0DF811109C082E08093AE05CE0103960E945BD70E946AB7DF91CF910895CF93DF93EC0189AD83DF80937918D093E705C093E605E1
S28400AE8080918B13809346150E9438F6909348158093471580917B18893151F482E08093AE05CE0103960E945BD70E946AB705C081E08093AE05CE01C4DF8093AF05DF91CF910895A2E0B0E0E8E6F7E50C9486F50091E6051091E7058091AE05813021F4C801AFDF811123C00E94A3B10E947AB11A8219820E9436B5D801DC968C93DC977B
S28400AF00DA96ED91FC91DB97C801CC96199580918B1390E020914615821B91099A838983BE016F5F7F4F8DE30E944A2F80E08093AF052296E4E00C94A2F51092AF051092AE050895A9E0B0E0E8EAF7E50C9488F583E08983CE01019692D98A81833021F40E9436B5813029F0809146158150809346150E949FE063E080E009DF81110DC06F
S28400AF808091E6059091E70522E02093AE0503960E945BD70E946AB70EC081E08093AF058093AE058091E8059091E90588609093E9058093E8052996E2E00C94A4F52FB7F89480916A0590916B05846090936B0580936A052FBF0895BC0188EF97E10E948A308091E71781110CC02FB7F89480916A0590916B05846090936B0580936A0537
S28400B0002FBF0895CF93DF93DC0112964C9150E0FA013197E031F10508F053C0EF5EFC4D0C944DF5DC011C96ED91FC911D970E963DC0DC011B96ED91FC911C970D9636C0DC011796ED91FC91189709962FC0DC015196ED91FC915297439628C0DC015396ED91FC9154974596199543C0DC011996ED91FC911A970B9619C0DC011E96ED9155
S28400B080FC911F97409612C0FC01C08DC470D0E0018CF28DE02D4B961995CD2B51F511C0DC011496ED91FC9115970696199509C0809158188E7F03C0809158188D7F809358181092E717209158188091F8179091F917892B11F4222361F02FB7F89480916A0590916B05846090936B0580936A052FBFDF91CF910895CF93DF938091E717AE
S28400B100882319F0833009F06AC080915818882389F080FF09C08FE08093E7170E94056761EF0E945D655BC080E18093E7170E94D7DB55C080915E02882309F450C0C091F817D091F917209709F449C088EF97E10E944E308A818093E717D093EA17C093E9178A8190E0FC013197EE30F10518F5EF5DFC4D0C944DF50E944C631AC00E94DD
S28400B180266317C05CD415C0C7D713C0AAD411C00E9437DA0EC00E947EDA0BC00E941B6508C0EED006C052D304C00E94E3DC01C01ED4811114C01092E7178091F8179091F917892B61F02FB7F89480916A0590916B05846090936B0580936A052FBFDF91CF91089527E0FC012283F6CE28E0FC012283F2CE2BE0FC012283EECE22E0FC0102
S28400B2002283EACECF93DF93EC018B81882331F183E08A838093E7171092F9171092F817109258186FE572E085E20E94C92FBE0188EF97E10E948A308FD98BEE97E10E94B6E22FB7F89480916A0590916B05846090936B0580936A052FBF04C084E08A83CE01BADEDF91CF9108952AE0FC012283B3CE25E0FC012283AFCE21E0FC01228331
S28400B280ABCE26E0FC012283A7CE2CE0FC012283A3CE2DE0FC0122839FCE2091E717233011F00C94D8A408952091E717233011F00C947DAD08952091E717233011F00C94FAA008952091E717233011F00C94CDB008952091E717233011F00C94C5A808952091E717233011F00C94A5B00895809158188160809358188091E717811101C032
S28400B3005ECE0895809158188260809358188091E717811101C053CE08952091E717211104C021E12093E7171DC3089580915818811105C00E94706891E0982701C091E0892F08951F93CF93DF93EB011881EEDF91E0982791239883DF91CF911F910895CF93DF93C091E917D091EA17FC0180810E9446DC8CA3CE0145DEDF91CF91089550
S28400B3801F93CF93DF93C091E917D091EA1780918D1390918E13998B888B13E01A8B63D8DE01539628E0FC0101900D922A95E1F71B8F8B818C8F8C818D8F8D818E8F8E818F8F8F8188A3888589A389858AA38A858BA38D85811105C01CA2CE0113DE80E077C08BE0809307188091881391E0980F9093881380930A18809108188078209114
S28400B40009182C6083628F77809308182C7C209309188FEF9FEF90930C1880930B18EB817C816D815E814F81388599858A85E0930D1870930E1860930F185093101840931118309312189093131880931418206C2093091880918D1390918E13909316188093151800D828E0FC01A7E1B8E101900D922A95E1F780918D1390918E139093EC
S28400B480201880931F18809192139091931390932218809321188B859C8590932518809324188091A0138093231880EB99E590933F1880933E1880919013882311F081E001C082E080933D1884E098E12ED881E0DF91CF911F910895A8E0B0E0E2E7FAE50C9488F5FC018281807C81F08089898381898A8382898B8383898C8384898D836D
S28400B50085898E8386898F8387898887CE010196E0DE2896E2E00C94A4F5EF92FF920F931F93CF93DF93EC018A81807C8038C1F4AE014C5C5F4FBE016D5C7F4F888999890E9414DB811144C0488150E0FA013197EB30F10508F03CC0E15DFC4D0C944DF5803C91F7288939894A895B896C897D897E0184E3E80EF11C8E010D5C1F4F8E8941
S28400B5809F890E9452DBDECFCE018DD621C0CE01ADD01EC0CE010E940EDA1AC0CE010E948EDA16C08DA980FD05C0CE010E94136781119DDECE0173D00BC0CE018DDF08C080919D13882321F09DDE02C0CE01A7D7CDB7DEB7E6E00C94A0F581E080939D13089510929D13089583E08093E8171092541861E07BE584E098E10C944465F4CF5B
S28400B60008958091E9179091EA17FCDC1092E8170895A3E0B0E0EFE0FBE50C9488F581E18B83CE010196EEDC2396E2E00C94A4F5CF93DF93C091E917D091EA17FC018081833028F4813048F00E9446DC03C0833001F58BEE888BC8DF1CC08BEE888B81E08093F5178FEF9AE59093F7178093F6170E9492506093F1177093F2178093F3172E
S28400B6809093F41782E08093E8178BEE97E10E9486E2DF91CF9108951092E8170895AEE0B0E0E5E5FBE50C9488F5FC01228122952695269523702983268537853B832A8328E07096DE01149601900D922A95E1F7FC0123A92C8723812D8784A98E87CE010196FEDD2E96E2E00C94A4F5ACE1B0E0ECE7FBE50C947CF5FC0142814295469573
