S02B0000416C6C5F4D65676152665F41746D656761323536726672325F384D687A5F4763632F4578652F417000
S2840000000C94AF260C948AF30C94B6F30C94E2F30C940EF40C943AF40C9466F40C9492F40C94BEF40C94EAF40C9416F50C94F6260C94F6260C949BEF0C94F6260C94F1EF0C94F6260C94F6260C94F6260C94F6260C94F6260C94F6260C94F6260C94F6260C9448F60C9454F20C94F7F10C9426F20C94F6260C94D9F50C94B0F50C94F62633
S2840000800C94F6260C94F6260C94F6260C94F6260C94EEF20C9491F20C94C0F20C9449F50C94F6260C94F6260C940AE10C946DE30C94F6260C94F6260C94F6260C94F6260C94F6260C94F6260C94F6260C94F6260C94F6260C94F6260C94F6260C94F6260C94F6260C94F6260C94F6260C94F6260C94C9E30C94F6260C94F6260C94F1E34D
S2840001000C94F6260C94F6260C94F6260C94F6260C94F6260C94F6260C94F6260C9419E40C94F6260C94F6260C94F6260C94F6260C94F626000000000000000000000000000000000000000000000000000000000000000000000000000000000000000000000000000000000000000000000000000000000000000000000000000000000D
S2840001800000000000000000000000000000000000000000000000000000000000000000000000000000000000000000000000000000000000000000000000000000000000000000000000000000000000000000000000000000000000000000000000000000000000000000000000000000000000000000000000000000000000000000FA
S284000200000000000000000000000000000000000000000000000000000000000000000000000000000000000000000000000000000000000000000000000000000000000000000000000000000000000000000000000000000000000000000000000000000000000000000000000000000000000000000000000000000000000000000079
S2840002800000000000000000000000000000000000000000000000000000000000000000000000000000000000000000000000000000000000000000000000000000000000000000000000000000000000000000000000000000000000000000000000000000000000000000000000000000000000000000000000000000000000000000F9
S284000300000000000000000000000000000000000000000000000000000000000000000000000000000000000000000000000000000000000000000000000000000000000000000000000000000000000000000000000000000000000000000000000000000000000000000000000000000000000000000000000000000000000000000078
S2840044002911160019001C0F03001800580ABD001700CB15010016007F16080015000C16010014000316020013006F1601002600121601001E00021601000F00891601000E00731601000D007B1602000C00CC1501000B00C61502000A00E91511000900DF1501000800DE1501000700DD1501000600701601000500791601000400C11572
S28400448004000300FA1508000200BF1501000100A31508000000944712002E00B84715002D00E24719002C00144804002A001C4811002900EE2872297B297D29A729B329C52950296229DA29EC29EE29002A432A542A662A4C5269518A528A528A526E5178518A528A5280518551AD51B6518A52BB51C351CD518A52D651DB518A52E45170
S2840045001F5231528A5224522C524C524C524C5243524352435243524352435243524352435243524352435243524352435243524352F75143528A528A528A528A528A528A528A528A528A528A528A528A528A528A5243523E524C524352F15136524E524C52655273527A524C524C524C52E65353532D542D542D5459535E5301542D54B7
S2840045806153645375537A532D547D53805383532D5488538B5301549053DA53EF532D54DD53E0535753E353E35301540154015401540154015401540154015401540154015401540154015401540154C05301542D542D542D542D542D542D542D542D542D542D542D542D542D542D540154F753FA530154B853F253095412540C540F54AF
S2840046002D54205425542B54325534553F55365538553A553C55115542554455115547559C559F55A355A655AA55AE55B155B555B555115A4F5A4F5A4F5A185A355A265A2D5A605A1F5A3C5A3C5A435A4F5A575A5B5ABB5ABE5AC15AC15AC35ACD5AC75ACA5ADA5AC55AD05AD25AD45AD75AC35CC65CE75CC95CCD5CE75CD15CE75CDC5CB6
S284004680DF5CE55C4E60FB600A6109605161516106610A610F613D612661516151613D613C603F6157995F997699E899E8993F994C99E899E899E8999699A599C299CE99E8993C996A990899D59DD59DFE9C069D069D139D139D309D309D309D8E9D8E9D8E9D299ED59DD4AB26ACFAABFEABFEABFEABFEABFEAB02AC02AC61BF64BF05C005
S28400470005C069BF05C073BF5CC05CC05CC05CC05CC05CC05CC05CC05CC005C005C05CC05CBF6EBF05C0E2CA30CB30CB30CB30CB30CB1FCB09CB27CB30CB19CB30CB23CB2BCB06CDE1CDBECEE9CE28CF54D09DD07FD67FD67FD67FD67FD67FD67FD67FD67FD6D4CFE2CF7FD67FD609D0A0CE87D88FD8A1D8AAD8ACD8AED8B0D8B3D886D9D5
S284004780FED9FED9ACD9B5D9C5D9CED9D1D9D4D9D7D9DDD900000100020003000400050006000700080009000A000B000C000D000E000F001E00180000000100020003000400050006000700080009000A000B000C000D000E000F001E00130014001500160000000100020003000400050006000700080009000A000B000C000D000E00F2
S2840048000F001E0013001400150016001700180019002600130014001500160000000100020003000400050006000700080009000A000B000C000D000E000F001E00C1080000580A0000B2090000150B00004C0A0000000000003F0B0000A910000001110000530E0000A50E00006F0E0000DC0E00001F0F000063100000000000000000D1
S28400488000001C0F00002911000000000000000000000000000000000000000000000000000000000000000000000000000000000000000000000000000000000000000000003F1100006711000046090000C64A0200CA4A0100CD4A0100CB4A0200D04A0100D14A0100D24A0100D34A0100D44A0100D54A0100D64A0200CE4A0200D84AD2
S2840049000100D94A0100F24A0200E34A0100E44A0100E54A0100EE4A0400DA4A0100DB4A0400DF4A0100E04A0100EA4A0100EB4A0100EC4A0200000000000000000000000000000000000000000000000000000000000000000000000000000000000000000000000000E14A0100E24A0100F44A0100F54A0100F64A0100F74A0100000065
S2840049800000E64A0400C84A0200A3150800AD150100BB150400BF150100C115040077160100781601007F1608007B160200031602000C160100731601008916010079160100C8150100C9150100CA150100CB150100C6150200CC150100CD15010075160100741601007E1501007F150100FA150800E0150400D5150400D9150400DD15DD
S284004A000100DE150100DF150100E915110070160100E4150100E51504006D1501008015020002160100C515010000000000000000006E1501000000000000000000000000000000000000000000000000000000000000000000000000000000000000000000CE150500D3150100D41501000000000000000000000000000000000000006C
S284004A8000000000000000000000AF1501000000000000000000000000000000000000000000000000000000000000000000000000000000000000000000C0150100B5150100AE15010085006C0001000007050007040205040204000308FF140000000108030303020A901A00000100000000000303141061620003001E000003F4008001
S284004B000000013412000303000002000000000003034C1D000010270000000001E803000004E80300001041746D656C202020202020202020202001AAAAAAAAAAFECA0002030100000000000000000000000000000005FF0000000000000000000000000000000000000000000000000000000000000000000000000000000000000000D8
S284004B80000000000000000000000000000000000000000000000000000000000000000000000000000000000000000000000000000000000000000000000000000000000000000202010002020508080000FFFF341200000000000000000202011343724800000000000000000000000002917F6F7A0107D99A1B750101D99A1B7501012C
S284004C00507F82920101D57EE1A10101D57EB0A101078A7E0B750101327EFD8701010000000001070000000001010000000001030000056D01040000056D010500000000010600000000010D000000000101D99A0000000100000000010E00000000010700000000010A000000000100000000000101000000000101000000000000000058
S284004C80F87800090000F878000C0000F87800000000F87800937B658198985CAB9877CE9EA87C4E7D1E760B84548A31790AA22F7C9D768675000000005075D38300000000BA6ACA6D506B256B496B0000C16ACF6A3E6BC86AC06D786ABC6CC36C326DB46C576B00001A6E02010203030202010101010101010101020201010102010202EC
S284004D00020202020102020202020201030302020393A9BF9F7698F2A00000F5A77591ACAC00000000DEB9F9BEB4C8C1C18FD693C77EE57EE57EE57EE5F0E6B5E4CEF66CEF1EE25CE101EEA1F0A5ED32ECADEA7FE5D1E6FDE710E6CFE6FBE70EE60011248091EB1A823159F084B780FD04C08F718093EB1A07C081E08093EB1A03C081E1EE
S284004D808093EB1A14BE8091600088618093600010926000ECEEFAE18DEC01C0819390E7E030F907D9F3D0F311241FBEC0E0D0E7DEBFCDBF00E00CBF15E0A0E0B2E0E0E3F2EF01E00BBF02C007900D92A031B107D9F72AE1A0E1B5E001C01D92AB3EB207E1F70E94DE330E94F433FDCF0C9400007F937FB7F8949D9AA5988AEF4DD08AEFAE
S284004E004BD09D9886E448D081E0959980E08F9380EF42D08F917FBF7F9108957F937FB7F8949D9AA59886E037D09D988AE034D0889495990894881F8F9384E62DD08F917FBF7F9108959F937F9398E0E7DF879577959A959923D1F7872F7F919F9108957F937FB7F894A5989D9A8F9386E014D08F91879508F49D988F9384E60DD08F91AB
S284004E809D987FBF7F9108959F9398E0E9DF9A959923E1F79F91089500000000000000008A958823C9F708955F937F937FB7F894CF93DF93C0E0D0E07F935091B2007091B2007517E1F3739521965091B2005717D9F77F91CE01DF91CF917FBF7F915F91089581E08093100508958DE08093BD052FB7F894809140079091410790619093F9
S284004F004107809340072FBF0895FC0164A186A197A100D462E086EA94E0FCC30895EF920F9380917C0890E0982F882720917D08822BA0E0B0E08093840890938508A0938608B093870880917E0890E0982F882720917F08822BA0E0B0E08093420890934308A0934408B093450862E175E082E190E00E940E354091120550E02BE069E3CA
S284004F8080E292E018D462E175E088E090E00E940E354091120550E028E169E380E292E00AD42091840830918508409186085091870864E0E62E04E269E380E292E01ED42091420830914308409144085091450801E369E380E292E011D48FE08093BD052FB7F8948091400790914107906190934107809340072FBF0F91EF90089584E652
S28400500090E0A0E0B0E08093D1059093D205A093D305B093D40581E08093D5058BE798E29093D7058093D6058BEC95E00E9404E580E18093BD05089584E190E0A0E0B0E08093DE059093DF05A093E005B093E10581E08093E2058BE798E29093E4058093E30588ED95E00C9404E50895FC01808181110FC080E18093BD052FB7F894809197
S284005080400790914107906190934107809340072FBF0895FC018785811128C062E175E081E290E00E940E3580911205811108C06DE084E193E02ED380E00E943E340EC0813031F468E082E293E024D380E007C0823041F46CE08BE293E01CD382E00C943E34089565E188E393E003C06FE08EE493E010C308958091BC058093BD052FB7BF
S284005100F8948091400790914107906190934107809340072FBF08951F93CF93DF93E901988B8F877987688750E05F834E83C9010E9415E911E0019609F010E01195CE010E944BE9019609F41250812FDF91CF911F910895F901908B87877187608750E057834683C9010E9473E921E0019609F020E0822F819508951F93CF93DF93182FD9
S284005180EB01CA010E9433E9AC0118838FB7F8942091400730914107306130934107209340078FBF81E04F3F5F4F09F080E08195DF91CF911F910895A0E2B0E0E2EEF8E20C9420F88091BD0590E08031910508F0D4C1FC01E65AFD4D0C94E8F78AE498E29093BB058093BA0584EA95E00E94DBC701E010E010939C0500939B0510939A052E
S28400520000939905FF24F394F092980580919D05807F816080939D0588E995E0909317058093160585E897E2909319058093180583E195E00E94FC4310936B0800936A0882E080935E081092600810925F08F092690889E395E090937208809371088FE590E09093700880936F08F0926E0886E398E290937608809375081DD20E9456344D
S28400528087E08093BD052FB7F8948091400790914107906190934107809340072FBF6DC188E08093BC0520E032E045E066E772E08CE198E231DF882309F404C161E28EE593E0FFC081E08093BC0540E052E06DEB75E052DF882309F450C16AE180E893E019D24BC182E08093BC0520E032E041E061E175E034C083E037C080917C0880313B
S284005300C9F084E08093BC0540E052E06DEB75E033DF182F6CE181EC93E0FCD129E040917C086EE082E192E029D26EE082E192E0F1D109C089E08093BC0540E052E06DEB75E01ADF182F112309F417C1C6CF85E08093BC0520E032E041E06CE772E08BE798E2DADE0BC086E08093BC0520E032E041E06CE778E08BE798E2ECDE882309F4AB
S284005380A1C065E28BE993E09CC089E08093BC0529E040917C086EE082E192E0EFD16EE082E192E0B7D140E052E06DEB75E08091BC058FCF8AE08093BC0520E032E041E062E772E08FEF97E2A7DE882309F47AC066E289ED93E075C08BE075CF8CE08093BC0520E032E042E064E772E08BE798E293DE882309F466C062E280E094E061C071
S28400540080E18093BC0540E052E06DEB75E0B4DE882321F06BE183E294E07CD18DE08093BC0580E197E2A0E0B0E08093EB059093EC05A093ED05B093EE051092EF0585E797E29093F1058093F00585EE95E00E9404E580E89FE4A2E1B0E08093C4059093C505A093C605B093C70581E08093C80581E797E29093CA058093C9058EEB95E0D0
S2840054800E9404E51FC08EE08093BC0520E032E041E063E772E08BE798E23EDE882391F068E38FE394E00DC020E032E048E06CE778E08FE897E24EDE882321F060E388E794E028D180E18093BD0557C080E18093BC0540E052E06DEB75E04EDE882321F06BE183E294E016D180911005882359F0E0E2F2E0A9E3B5E081918D9382E0E93528
S284005500F807D1F736C0809111028823B1F11092110280E2E9EAF4E0DE01119601900D928A95E1F762E175E082E190E00E940E354091120550E02BE060E2CE0101963BD162E175E088E090E00E940E354091120550E028E160E2CE0101962DD1FE013196A9E3B5E0CE01819621912D93E817F907D9F786E498E00E948D40A096E5E00C9450
S2840055803CF80895089508950895CF92DF92FF920F931F93CF93DF93E42FF0E0F090EE062AEF30E02F1931092E173F0734F15091ED0620E030E0EC01C60FD11D0AEF10E02E173F07ACF4852F90E0BC016E507A4F6B01BE01620F731FDB015C91D6015C932F5F3F4F0196B8010E9497F7582FE8CF5093ED06F40EF092EE06DF91CF911F914C
S2840056000F91FF90DF90CF9008951F93CF93DF9310922107109222071091EE06112309F446C08091EC06EFEEF6E01333E0F4212F30E0CAEFD0E0AF014F5E5640421753075CF490E0DC01AE50BA4F4C9141930196BE010E9497F7EFCF8093EC06109321071092EE0618C02AEF30E090E0DC01AE50BA4F4C9141930196B9010E9497F797E068
S284005680E132F90791F78093EC0682E38093210712531093EE0681E0809322074091210750E06FEE76E081E298E00E9466E8DF91CF911F91089588EC80932C0810922D0889E190E090932F0880932E0886E0809330081092310810923208109241081092360810923508109238081092370810923A081092390810923C0810923B0885E02D
S2840057009BE29093400880933F0881E298E00C9407E80895462F20912207222319F060E034CF0895FC01AFEEB6E0633370F4862F90E09D012F5E3640281739071CF421912D93F7CF409321070CC021912D9327E0A132B207D1F722E320932107425362E314DF81E0809322074091210750E06FEE76E081E298E00C9466E8089530E0F9017D
S284005780319670E0E617F707ACF4E80FF91F542F5F705A3010F0595C01C0505D5083FC01E20FF31F42954F704A3010F4405D01C0495C4083089570E030E0F9013396E617F707DCF463E070E0280F391FE42FEF70CA018F7099270A9710F480E301C087E38E0FF901E60FF71F808384E0569547958A95E1F76150710948F70895A0E0B0E07D
S284005800E4E0FCE20C9419F8F12CF701E00FF11DC62FD0E0CE17DF07ECF0C0E0D0E08C010E0F1F1F6AE0862E912CA12CB12C2197F701EC0FFD1F319669F06801CC0EDD1EB901CA01A50194010E94AAF7605DF6016083EDCFCDB7DEB7ECE00C9435F8A2E0B0E0E5E3FCE20C941BF86C010091880810918908E12CF12C80918C0890918D08F8
S284005880E816F906A8F45801B8016C5F7F4F42E050E0CE0101960E94E1F80A5F1F4F29813A812C153D0539F08FEFE81AF80AE4CF80E090E001C0C5012296EAE00C9437F8ADE0B0E0E6E6FCE20C941DF87C016B0123E0969587952A95E1F7FC01E857F74F228D30E0B70167707727062E02C0369527950A94E2F78E010F5F1F4F20FF42C033
S28400590027E0E2EAF8E0D80101900D922A95E1F7A0E020E030E04A2F50E048175907D8F4F801E40FF51F4081542F569555754575540F452F4695469543735373450F4083E42FEF7042954F7050E04E0F511D240F351FAF5FE0CFE0E0D801A80FB91F4E2F50E04617570780F44C9150E00E2E02C0569547950A94E2F741705527240F351FF8
S284005980EF5FEDCF2FEF3FEF1B870A8746E0429FC001439F900D112404969987888786E090E09D878C8762E17EE2CE01089672D18D819E81E816F90639F084E090EA9093BC088093BB08E1D589819A81F601918380832D96E8E00C9439F8A6E0B0E0E3EFFCE20C941FF87C018B0180E090E0FC0133E0F695E7953A95E1F7EE0DFF1D608135
S284005A00AC0147705527262F30E0042E02C0369527950A94E2F720FF0DC021E030E001C0220F4A95EAF720952623208318DF009731F431C0019683339105C9F62CC046E050E0BC01CE0101960E94E1F889819A81F80193838283B8018D819E8131DFF801808191810596918380838B819C819583848382819381892B39F480E090EA90934A
S284005A80BC088093BB0881D58D819E81F7019087878381E006C08FEF9FEFF7019087878380E02696E6E00C943BF8A8E0B0E0EBE5FDE20C9419F87C01A0908A08B0908B08FC01868182FD09C000E010E0812C76E0972ECC24C394D12C0CC047E050E06FEF70E0C7010E9411F96DC0882483940F5F1F4F80918E0890918F080817190708F011
S284005B005BC0909EB001919E700D11246A0D7B1D46E050E0CE0101960E94E1F82D813E81F90163E0F695E7956A95E1F7EE0DFF1D408127703327842F90E0022E02C0969587950A94E2F780FFD2CFC60102C0880F991F2A95E2F79C01209524232083812C882D90E02B813C818217930708F0BDCF880F991F69817A81680F791F42E050E088
S284005B80CE0107960E94E1F88F819885FC0153E0F695E7955A95E1F7EE0DFF1D87709927960102C0220F331F8A95E2F7C9019081982B90838394D4CF882021F000E010E0812C97CF2896ECE00C9435F8CF93DF93EC018FEF9FEF98878F8387E0FB01DE0101900D928A95E1F7CE015FDFE2EAF8E0919188818923899388E0E93AF807C1F741
S284005C00DF91CF9108958091B6089091B708A7C208951092B30883E09EE29093B5088093B40808950895EBE9F8E0DC013D91CD012081232B2193B8E0E23AFB07B1F78091B80884608093B80808950E942BEC882311F0DFD5FACF0895A2E0B0E0E2E3FEE20C9421F88B0189839A83EFDFB80189819A810E944EEB019631F08EE202311807E4
S284005C8021F4E3DF02C081E001C080E02296E4E00C943DF8A2E0B0E0E0E5FEE20C9421F88B0189839A83D1DFB80189819A810E94DBEA019631F08EE20231180721F4C5DF02C081E001C080E02296E4E00C943DF8A2E1B0E0EEE6FEE20C9416F88091B808982F92609093B80882FF0AC06BE978E083E297E06BDF8091B8088B7F8093B808A4
S284005D00CC24C394D12C7E013DE0E30EF11C55E0A52EB12C4E0182E1880E911CBE01695F7F4F83E297E059DE882309F462C060902A0770902B07F30163E0F695E7956A95E1F7E857F74FC30187709927960102C0220F331F8A95E2F7C901809593898923838BFC82EB82BE82AD828F81988505979A83898362E17EE2CE0101968BDF4B85B4
S284005D805C8569857A8580E05ED0582E8D8558123AC08889998968167906A9F52B853C858E859F852817390771F59C828B82DE82CD8200E010E02B853C850217130708F0ADCF2F813885200F311F3A83298362E17EE2CE0101965EDFAB81BC81E985FA85E00FF11F9C91808198130DC00F5F1F4FE2CF8091B8088D7F8093B80860E070E0C6
S284005E008FE001D21CC05D86798A688A8B859C859F878E87FC82EB8285E090E09E838D838F81988505979A83898368E67EE2CE01079612DF62E17EE2CE0101960DDF6296EFE00C9432F8FB01460F571FE417F50719F09191890FFACF08954F925F927F928F929F92AF92BF92CF92DF92EF92FF920F931F93CF93DF93CDB7DEB762970FB6B6
S284005E80F894DEBF0FBECDBF80E094E4909389088093880886E994E490938B0880938A0806E914E400501444C80166E070E00E9483F7892B39F080E290EA9093BC088093BB0863D326E030E0C801B9010E9483F740918C0850918D08642B752B70938D0860938C0804EB14E406591444C801B9010E9483F7892B39F081E290EA9093BC0838
S284005F008093BB0842D3C80166E070E00E9483F780918E0890918F08682B792B70938F0860938E0800918808109189081092900810929108109292081092930887E0E2EAF8E0DF011D928A95E9F7D12CEE24E394F12C80918C0890918D082D2D30E028173907C8F546E050E0B801CE0101960E94E1F82B813C812B5F3F4F80919008909144
S284005F809108A0919208B0919308820F931FA11DB11D8093900890939108A0939208B09393088D819E81FC0133E0F695E7953A95E1F7E857F74F87709927970102C0220F331F8A95E2F7C901928D982B928F0A5F1F4FD394BECF26E0289F6001299FD00C112434E0C30ED11CE12CF12CCE010796988B8F8786E090E09A8B898BA12CB12C86
S28400600000E010E096E0792E22E2822E20EA922EF80183E0F695E7958A95E1F7E857F74F828D90E098012770332702C0969587952A95E2F780FF41C07A9CC0017B9C900D112404969E878D8762E17EE2CE010D9621DE8B859C858017910749F48F819885A985BA858C159D05AE05BF0559F01C870B87CF82D886E986FA8662E17EE2CE0181
S2840060800D96EADDC801EBDB2C01009729F49092BC088092BB0879D246E050E0B201CE0101960E94E1F88B819C810596C80ED91EE11CF11C8FEFA81AB80A0F5F1F4F0333110509F0A5CFA5DD62960FB6F894DEBF0FBECDBFDF91CF911F910F91FF90EF90DF90CF90BF90AF909F908F907F905F904F90089520E0FC013191CF01311105C0F6
S2840061002F5F2730C1F780E0089581E0089527E0FB0111922A95E9F7FC0123E0F695E7952A95E1F7E60FF71F8770992721E030E001C0220F8A95EAF78081822B8083CB01B4CC0895A2EAB8E0FC013D9120812323219328E0A93AB207C1F7CCCF0895A7E0B0E0E5EBF0E30C9422F8BE016F5F7F4FCEDFCE010196E6DFCE010196BBDF182F34
S284006180882339F0CE0101964EDD8091B80881FF9FDD812F2796E3E00C943EF808950895A2E0B0E0E6EDF0E30C9423F880912C078823E9F0BE016F5F7F4F81E290E02ED4BE016E5F7F4F8DE190E028D48981823071F48A8181110BC08FEC90E390933507809334078DE297E00E946FC402C00E9471E22296E2E00C943FF880912C070895C1
S2840062000C942AEE0895A0E0B0E0E9E0F1E30C941BF8B82E7B01082F10E093E0169507959A95E1F78770C1E0D0E001C0CC0F8A95EAF7AC2E8FE38B1538F484E090E89093BC088093BB08A1D1F801EA5CF84F80818C2311F1C0913E07D0913F0785E0C82E80E8D82E2097C1F0FE01E00FF11F82818A2171F02A853B85232B29F4D092BC0860
S284006280C092BB0882D1EA85FB85B7018B2D19950990D881C02DE6CFCDB7DEB7EAE00C9437F8E82FF0E023E0F695E7952A95E1F7EA5CF84F208130E0877041E050E002C0440F551F8A95E2F72423352381E0232B09F480E00895282F30E043E0369527954A95E1F7620F731F877021E030E001C0220F8A95EAF7FB019281922381E009F420
S28400630080E008951F93CF93DF93182FEB01803438F023E030E83093BC082093BB0835D1BE01812FD8DF81112AC0BE018EE397E09AD081110BC088E0FE013296DF011D928A95E9F7BE018EE397E09DD0412F50E063E0569547956A95E1F7177021E030E001C0220F1A95EAF7C40FD51F8A81822B8A83FA01EA5CF84F8081822B8083DF91B7
S284006380CF911F9108951F93CF93DF93182FEB01803438F023E030E83093BC082093BB08F4D0BE01812F97DF882369F1212F30E073E0369527957A95E1F7177041E050E0012E01C0440F0A94EAF7942F9095C20FD31F8A8189238A83E0913E07F0913F07309759F0DF01A20FB31F12968C91842351F40190F081E02DF3CFF901EA5CF84F6D
S284006400808189238083DF91CF911F910895DC01ED91FC911197309721F0208131812D933C93CF01089561157105A1F0DC01ED91FC911197E617F70759F4208131812D933C930FC0808191818617970729F0FC013097C1F780E00895DB018D919C919183808381E00895DC01ED91FC91309739F0E617F70731F00190F081E02DF7CF80E048
S284006480089581E008950F931F93CF93DF938C01EB01E9DF882349F080E090E89093BC088093BB085AD080E014C019821882D801ED91FC911197309719F4CD93DC9308C080819181009711F0FC01FACFD183C08381E0DF91CF911F910F910895CF93DF93FC0182819381009781F40E9458E5C22FD32F0E94325444E0FC0121913191CF0117
S284006500C227D3274150C1F7CE010E94D6F881E0809383028BE892E00E9404E5DF91CF9108958DE792E00C94A354089580918302882369F08BE892E00E9434E58EE692E390938A028093890210928302EACF08958BE892E00C9434E5089582E090E09093BE088093BD088091BB089091BC089093C0088093BF08E091B908F091BA08309746
S28400658019F08DEB98E01995089583E090E09093BE088093BD088091BB089091BC089093C0088093BF08E091B908F091BA08309719F08DEB98E019950895EF920F93FC01618372834F3740F081E090E89093BC088093BB08C2DF20C0403808F04FE7440F808181700187842BE0FA80F9808334832383CB01AC0160816695049621813281E1
S28400660074E0679F200D311D11244217530720F4DC0111971C92EECF0F91EF900895A0E0B0E0E5E1F3E30C941CF8EC018B01B42E0E9458E569017A018D819E81AF81B885A7019601281B390B4A0B5B0BCA01B9012B813C8140E050E00E94AAF72F3F31054105510518F42223F9F001C02FEF89819A81BC0138813695049649815A81E4E0BB
S2840066803E9F400D511D11246417750748F4FC013291432F231708F4422F341B3083E9CFCD82DE82EF82F886A981BA814881842F86959D0154E0859F200D311D1124C901E0E0F0E0A817B907C0F413965C911397552359F02D913C9111972017310729F412962C9112972B15C1F0309719F02381521708F4FD011496E5CF40FD06C0309777
S28400670071F0838181110BC002C0309751F011830083B2828985838304C080E003C082E001C081E0CDB7DEB7E9E00C9438F8FECE08950895CF93DF93609198027091990280E090E0E1E0F0E09F01082E02C0220F331F0A94E2F740914007509141074623572342235323452B11F16FB7F894409140075091410720953095242335233093D8
S2840067804107209340076FBFFC01EE0FFF1FE753FB4FC081D181209739F486E090E89093BC088093BB08F1DEFE01199504C001968F30910549F6DF91CF9108950E94FCE20E94BFB3882371F02FB7F8948091400790914107806190934107809340072FBF81E0089582E00895A5DF60E070E08BE20ADD8091400790914107892B09F4D0DCB4
S284006800209140073091410781E0232B09F480E0089590CF0895FC012081211105C021E02193CF010C9404E50895FC012081213021F41192CF010C9434E50895A5E0B0E0E4E2F4E30C941FF87C012A833B834C835D836983EADFF7011082698163872A813B814C815D812783308741875287158704872596E6E00C943BF80895813031F04F
S28400688018F0823029F008952F9A08952E9A08952C9A0895813031F018F0823029F008952F9808952E9808952C980895279A269A249A2F9881E0EEDF82E0ECDF80E0089589E3E2E8F5E1DF011D928A95E9F7E3EAF5E183E080838AE081831282138281E0848315821682178295E09093AD158093B51587E08093AE1547E850E066E57BE446
S28400690083E096E10E94E1F843E150E063E47BE48FE695E10E94E1F843E050E060E47BE48CE695E10E94E1F848E450E068EF7AE48BEB95E10E94E1F88BEA9CE0E1ECF8E0DF019C011D9221503040E1F70895A4E0B0E0EDEAF4E30C9423F8BC011A8219821C821B828827811521E0920769F0811522E09207B9F0892BE9F4660F771F660FA5
S284006980771F6657764B07C07727660F771F660F771F6253774B44E050E0CE0101960E94E1F80FC07727660F771F660F771F625C774BF1CF8AE090E69093BC088093BB08E4DD69817A818B819C812496E2E00C943FF876DF42CA0895A4E0B0E0E2EFF4E30C941FF87C018B01B2DFEE24E11422E0F20669F026E030E63093BC082093BB0857
S284006A0069837A838B839C83C0DD7A816981F801718360832496E6E00C943BF8A4E0B0E0E4E1F5E30C941FF88C017B0190DFE114F10479F420E030E63093BC082093BB0869837A838B839C83A0DD9C818B817A81698100270115110549F0011521E0120751F4AC01C7010E94E1F80CC0AC01C7010E94F7F807C081E090E69093BC08809310
S284006A80BB0883DD2496E6E00C943BF8A0E0B0E0ECE4F5E30C941DF88C01EB0158DF6B017C01209739F484E090E69093BC088093BB086BDD00270115110539F085E090E69093BC088093BB0860DDA701BE01C6010E94F7F8CDB7DEB7E8E00C9439F8FC0195A5892F887090FF09C0882379F081E021A532A52236310550F408C0882331F0D9
S284006B0081E021A532A52436310508F480E08170089521E030E001C0220F8A95EAF780914507822B809345072FB7F8948091400790914107806290934107809340072FBF0895CF93DF93E0918F16F09190168E179F0718F482E894E446C08E1B9F0B6CE670E00E9483F780918A16681718F083E894E439C08CE6689FE00DF11D11248781A1
S284006B80869590E08230910559F014F00397D1F580918E168823B1F1815080938E1632C080918D16882319F0815080938D16DF01AC5ABF4FCD91DC912091921630919316CE01821B930B63E270E00E9483F7C217D30718F484E894E406C080918B16681740F085E894E49093BC088093BB08B5DC0CC0D90183E2689FA00DB11D11248C918C
S284006C0081111C9287818E7F8783DF91CF910895CF93DF93EC0118A68EA19FA1892B39F484E494E49093BC088093BB08AEDCEEA1FFA1CE0188961995DF91CF910895EF92FF920F931F93CF93DF93A0918A1640918F165091901620E030E090E09A1709F45AC0FA01E20FF31FB90164597F4FB781B0FD63C07F0194E5E90EF11CD7011D92F7
S284006C801C928230B1F010F08330F1F590918E1640918C16941708F03EC09F5F90938E16138214821582168290859F709087128235C010918D1690918B16191760F500919116409192165091931690E09017B9F0EA014D5D5F4FBA0163527109DB016C9161110BC01F5F10938D1641E048836896D701CD93DC93428302C09F5FE7CF40910F
S284006D00911649130BC007C081E894E49093BC088093BB083ADC80E090E012C09085907F9087880F816087831182108280918F1690919016820F931F03C09F5F9B018ECFCDB7DEB7E6E00C943BF820915607215020935607BC0180E797E095DB81E0D9CE0F931F93CF93DF938C01C0914607D0914707809142079091430780519140813F4A
S284006D80954048F4B80186E497E07DDBCD2B59F480E0BFDE08C083E694E49093BC088093BB08F3DBEFCFDF91CF911F910F910895BC016151710982E797E065DB81E0A9CE209156072F5F209356070C9439946F927F929F92AF92BF92CF92DF92EF92FF920F931F93CF93DF931F92CDB7DEB78C017B01FB01E25AFF4F85EA96E39183808367
S284006E003E9782E08083D80159968D919C915A973196918380839E968C919E97379680833196108231969D968C919D978095881F8827881F8083319681E08083319680839D968C919D9786FD0BC021E059968D919C915A97883F9F4F08F020E0822F01C081E0F701E35AFF4F81708083C80137DEF701ED5AFF4F6F0197012C5A3F4F390137
S284006E80882309F442C090903C1740913D17242F30E08091401790E001972817390739F4D80199968C91499D80191124982EA92CB12CC5014E968236910538F081E594E49093BC088093BB0860DB30913C1720913D178091521790915317F80163A574A5329F600D711D1124A5014E960E94F7F88AE0890DD6018C93809152179091531736
S284006F004496F301918380830EC0D80199968C919997885F80839B968D919C919C970897D9018D939C93F301C080D180D6012C912C7F2F7E2C93F801818D928D237F883F9F4F10F02860D6012C93F60180818F7D8083D8019D969C9192FD03C08F7B808322C08064F6018083D70118962C911897207F216018962C93C8012983B0DD29814E
S284006F802F70882341F0809142178295807F822BF701808708C080916D158295807F822BD70118968C93C8019ADDF60190818823A1F09068908390913D1780858C7F911106C08160808780914017818709C08260808780913D17818703C09F77F6019083D80193968C919397F601818396968D919C9197979383828394968D919C919597A7
S2840070009583848398968C918683C80168DD882331F080914117D60117968C9308C080916D0791E0980F90936D07F6018783C7010996C6DE80E00F90DF91CF911F910F91FF90EF90DF90CF90BF90AF909F907F906F900895E0915017F0915117BF0180819181B5CEEFE2F7E1F0930017E093FF1692E09093FB162091A2163091A316309319
S284007080FD162093FC169BE09093FE16109203171092041791E090930517909306171092071728E93AE330930A172093091790930817908190789260906890839091A916909330172091A5163091A61630933217209331172091A7163091A81630933417209333179091A416909335179091AA169093361792E0909337179091A0169093F1
S28400710038179091A1169093391790913A179093181710929B1610929C1610929D1610929E168093941684EB96E14ACEA4E0B0E0ECE9F8E30C9421F8182FBE016F5F7F4F8AE190E06BDC20915B0730915C0740915D0750915E07A12FB0E00E9403F809811A812B813C81600F711F821F931F2496E4E00C943DF80F931F93CF93DF93EC0167
S2840071808C0107551109FC013C970190F081E02D6FEF818192810E94588B882361F0FE01329785EA96E39183808323971882C8010E94299402C0CE01C8DDDF91CF911F910F91089561E976E180E191E027DC62E976E18EE092E000DC809192169091931620E030919116231748F4FC0133E2239FE00DF11D112410822F5FF3CF6AE876E1BA
S2840072008FE091E00BDC6FE876E18DE092E0E4DB20918A16E0918F16F091901680E0821739F097819E7F97838F5FE459FF4FF7CF9091911690938B1680938C1610928D1610928E166CE377E188E291E0E7DB6AE976E189E291E0E2DB69E976E188E191E0DDDB80919916882351F065E976E18FE092E0B2DB62E577E180E192E0ADDB3091B0
S284007280991620919A168091951690919616329F800D911D1124909398168093971610929416089567E777E082E192E095DB66E777E087E191E0B2DB80917607E0917707F0917807882349F0309739F489E294E49093BC088093BB0840C99F0146E1849F200D311D1124C90128EAE817F90718F4258B7696FACF08951F93CF93DF93EC012D
S284007300162F0097B1F08D819E81892B91F086E497E07DD81F83ED81FE81CE01079619958091460790914707892B59F080E0F1DB08C08BE694E49093BC088093BB0825D9E6CFDF91CF911F910895A1E1B0E0EBEAF9E30C9413F88C01262E29873A874B875C870E9400E1E0915F0729853A854B855C85EE2361F130908A16C0906207D0904D
S2840073806307E0906407F09065072B013C014C185D086E087F084D825E826F827886E0918F16F0919016198A66246A94762C430169827A828B829C8246015701861A970AA80AB90A8D869E86AF86B88A0BC009EE1AE3A3C0A781A0FD09C0A989AF5FA98BE459FF4FB989B311F5CF40C0B085BF70B23099F7AA7FA23081F783809480A58029
S284007400B68081149104A104B10439F3E017F10721F34D805E806F807884481459046A047B0468F44D845E846F847888840C951CA61CB71C83829482A582B68204C0138214821582168283809480A580B68049805A806B807C8084149504A604B70408F0BCCF89829A82AB82BC82B7CF211046C080909B1690909C16A0909D16B0909E16A4
S28400748081149104A104B104C9F12B013C014C185D086E087F08481459046A047B0488F4C80CD91CEA1CFB1CC61AD70AE80AF90AC0929B16D0929C16E0929D16F0929E1608C010929B1610929C1610929D1610929E1680919B1690919C16A0919D16B0919E1649805A806B807C8084159505A605B70520F489839A83AB83BC8389819A816F
S284007500AB81BC81281739074A075B0710F4DA01C90109EE1AE39C01AD0161E08FE597E08DD98FE597E077D96196E2E10C942FF88091560781508093560780919416833009F43CC0823039F082E594E49093BC088093BB081AD8E0913B17EE2379F181E080939416A0916E15B0E011972AE030E00E94FDF79B01AC01809157079091580786
S284007580A0915907B0915A07280F391F4A1F5B1FA0916D15B0E00E9403F89B01AC0160939B1670939C1680939D1690939E16E150E0933B1761E080E090E0C7CE1092941610929B1610929C1610929D1610929E160895A4E0B0E0EFEEFAE30C941BF82FEF3FEFA90110E0AA24AA94B12C80918A16181708F054C0E0918F16F09190168CE600
S284007600189FE00DF11D1124678160FF46C07085872F8F70823009F040C0862F8A7F8230E1F583819481A581B681C0906607D0906707E0906807F09069078C199D09AE09BF0983839483A583B6830097A105B105E9F4872F807F846080876E7F663059F4C50100906E1502C0880F991F0A94E2F7809580933F1781E029833A834B835C8388
S28400768048DA29813A814B815C8107C082179307A407B50710F49C01AD011F5FA7CF80919B1690919C16A0919D16B0919E160097A105B10551F1C0906607D0906707E0906807F09069078C199D09AE09BF0980939B1690939C16A0939D16B0939E160097A105B10559F482E029833A834B835C83B9DC29813A814B815C8107C0821793071F
S284007700A407B50710F49C01AD012F3FEFEF3E074E075E0751F009EE1AE361E08FE597E08DD88FE597E077D803C08FE597E07DD82496EAE00C9437F8A0E0B0E0E2EAFBE30C941AF88C01962EC0917707D0917807809176076E0196E1899FC00CD11C1124F8018589811109C07E01F6E1EF0EF11C58018CE0A80EB11C09C085E294E432C013
S2840077808A3A89F06696F6E1EF0EF11CF801CC15DD0508F04AC0908521853285F70131978081843A69F7F7013E9780819813EACF89859A852817390729F748E050E0B801CE010E94EAF8892BE9F6F8018385F7013B9790818913D6CF813059F0833091F086E294E49093BC088093BB080E94AD321DC0F801248535858C859D852817390712
S28400780009F617C0F8019489F701329780819813B9CF48E050E0BE01645F7F4FC5010E94EAF8892B09F0AECF04C0958A80E090E001C0CE01CDB7DEB7EBE00C9436F8CF93DF93EC010097B1F18AEA8D8B0E94325448E050E0BC01CE010E94EAF8892B51F582E88D8B888581508E3F20F58B858330C9F48C8981508E3FE8F42C853D854E856A
S2840078805F85688979898A899B89A0E00E947EF871F480E194E49093BC088093BB080E94AD3208C0813019F086EA8D8B03C01D8A81E001C080E0DF91CF910895CF93DF93EC01009761F169AB4115510551F0FA0140815181628173814AAB5BAB6CAB7DAB04C01AAA1BAA1CAA1DAAEFA5F8A9309749F484E594E49093BC088093BB080E9461
S284007900AD320DC0CE01C1961995CE01E8D8882331F0109251171092501781E0FAD8DF91CF910895A1E0B0E0E8E9FCE30C9421F88C01FC012081318180919216909193162817390740F487E494E49093BC088093BB080E94C532F801808191812091921630919316821B930B63E270E00E9483F780918B16681750F088E494E49093BC08B7
S2840079808093BB0869830E94C53269818091921690919316F3E26F9F800D911D11242196E4E00C943DF8FC0120814597211107C0BC0184E797E00E94433281E0AAC840E050E069EA7BCFA3E0B0E0E9EEFCE30C9421F88C01675F7F4F7A836983BE016D5F7F4F8EE090E01AD88B81D80199965C91999740916D07882309F442C089819A8134
S284007A00FC01E95BFF4F21E0208359962D913C915A973196318320833296585F50839B96ED91FC919C979C01255B3F4F3897D901ED93FC938FEF8183D80196968D919C9197979383828394968D919C9195979583848398968C91868381E0840F80936D074783D901ED91FC918081807888608F778083E981FA81EB5AFF4F85EA96E344C07A
S284007A8089819A81FC01E95BFF4F22E0208331962DEF3FEF318320833296575F5083D8019B96ED91FC919C979C01255B3F4F3997D901ED93FC93D80159968D919C915A979283818396968D919C9197979483838394968D919C9195979683858398968C91878381E0840F80936D074087D901ED91FC91808180788C608F778083E981FA81D3
S284007B00EB5AFF4F8BEB98E391838083E981FA81D8019E968C919E97E15BFF4F8083E981FA81E05BFF4F80916C158083E981FA81EF5AFF4F9D968C918095881F8827881F8083E981FA81EE5AFF4F81E08083E981FA81ED5AFF4F8083E981FA81EC5AFF4F808389819A812CD980E02396E4E00C943DF8DC01ED91FC9190935117809350170F
S284007B8010923D1710923E1780916D158093421720913C1730E081A592A5B9010E9483F7462F6093401781A592A5B9010E9483F7892B19F04F5F409340178FEF90E000906E1502C0880F991F0A94E2F780958E7F80933F1780916D0791E0980F90936D07809341170895A0E0B0E0E9EFFDE30C941AF8EC016B01942E5901009177071091D7
S284007C00780780917607780196E1899FE00CF11C1124209761F0C017D107F0F583E294E49093BC088093BB080E94C53235C0E801CE01801B910B66E170E00E9483F7892B79F084E294E49093BC088093BB080E94C53206C01D89143A39F01A3A29F06696CE15DF05B8F313C088859812F8CF89859A85C816D90699F748E050E0B501CE018F
S284007C800E94EAF8892B59F7143A49F703C080E090E004C0CE0102C06696CACFCDB7DEB7EBE00C9436F84F925F927F928F929F92AF92BF92CF92DF92EF92FF920F931F93CF93DF931F92CDB7DEB72C017B010E9432546C0157018AE6A80EB11CF501008111814114510431F0E114F10419F0C114D10451F484E194E49093BC088093BB08C4
S284007D000E94AD3288EA5EC058EAF20166A177A1960140A5C801598366DF8C015981009709F44FC0F20186899789892B19F5F8017384F3E07F121EC048018CE0880E911CC4010E940BC4892BA9F4F2017286D2011D9688E0F40101900D928A95E1F783EF9EE3F201978B868BC20106960E9400C480E028C0F50111830083F80183858330B8
S284007D80B1F4C8010C960E940BC4009711F459EABCCFF8012489F20123A3FC0180819181F201928F818FB701C20111D80BC0F80184859585F201928F818FB701C20103DE01C0852F0F90DF91CF911F910F91FF90EF90DF90CF90BF90AF909F908F907F905F904F900895FF920F931F93CF93DF938C010551110920918A16C0918F16D09171
S284007E009016F12CF216E9F08F8180FF16C0888199818017910789F4BE01C80144DF882381F040E050E0682FC80148DDCE010E94A13581E00E94893504C0F394C459DF4FE1CF80918A16F81640F085E194E49093BC088093BB080E94C532CDB7DEB7E5E00C943CF8EF92FF921F93CF93DF931F921F92CDB7DEB77B010097A1F061157105C3
S284007E8089F0FC01178A168AF701E659FF4F11821082B70108DF182F882389F0C7010E94A1350DC023E134E43093BC082093BB0889839A830E94C53289819A81E2CF812F0F900F90DF91CF911F91FF90EF900895A1E0B0E0EEE6FFE30C941FF88C01262FDC01ED90FC90009709F444C0E114F10409F440C02E3C61F0822F8F7D803D41F010
S284007F00213D11F082E005C0F70185A587FFFACF83E0F801EB59FF4F4081518162817381D701D2964D935D936D937C93D597D1962C93833071F0D801ED91FC91808D811108C0F701178A168AB801C701ACDE883AE1F4A7014E5C5F4FD701D1966C91F80180819181ABDCC8010E94A13581E00E9489350BC08FE494E49093BC088093BB087E
S284007F8029830E94C5322981B5CF2196E6E00C943BF8CF93DF93EC0152DC882309F454C060E0CE01C9DB892BC1F5209709F43EC08D8981113BC050917607209177073091780740E0451781F0C9012A5E3F4FF90131976081683A31F424EAFC01258B009731F432C04F5FEECF8EEA8D8B2DC0209719F03D89332349F087E294E49093BC086A
S2840080008093BB080E94AD321AC036E1FE01DC0101900D923A95E1F706C066EACE018CDB009791F024EAFC01258B09C080E294E49093BC088093BB080E94C532BCCF60E070E080E10E940331DF91CF910895CF93DF93EC010097D9F08091770790917807C817D907A0F02091760736E1239F800D911D1124C817D90750F48D89843A11F03B
S2840080808A3A71F488EA8D8BDF91CF91089581E294E49093BC088093BB080E94C532EDCF82E294E49093BC088093BB080E94C532E9CFCF93DF93EC01C2DB882359F064EACE013ADB009731F0C2DF60E070E080E10E940331DF91CF9108952091770730917807009751F0FC0176968091760796E1899F200D311D112408C0F901F6CF8589B1
S284008100843A49F08A3A39F07696E217F307B8F380E090E00895CF010895CF93DF93EC01BC0184E797E00E9443321F8A1E8A81E00E948935DF91CF910895CF93DF93EC01BC0182E797E00E9443321B8A1A8A81E00E948935DF91CF910895AAE0B0E0E3EBF0E40C9419F81091AD15BE01665F7F4F87E091E00E940E35BE016F5F7F4F8AE10B
S28400818090E00E940E35C980DA80EB80FC80812F90E0A0E0B0E08C159D05AE05BF0578F0CC0CDD1CEE1CFF1CC982DA82EB82FC82BE016F5F7F4F8AE190E00E944635C12ED12C87E0C80ED11CEE24D7FCE094FE2CC0925B07D0925C07E0925D07F0925E072A8530E0A3E0B0E00E94EEF79B01AC01C701B6010E9468F709811A812B813C81EF
S284008200600F711F821F931F60935707709358078093590790935A0781E08887BE01675F7F4F87E091E00E940E35BE01685F7F4F84E290E00E940E35898590E0A0E0B0E0880F991FAA1FBB1F8F3F9105A105B10529F020F08FEF90E0A0E0B0E00E949638E885EE2309F45AC0812C912C54018B019C0101501E4F2F4F3F4F800E911EA21E53
S284008280B31E660F771F881F991FE15081F718867501640129E0F694E794D794C7942A95D1F7D501C4019170AA27BB2741E050E060E070E0892B8A2B8B2B19F440E050E0BA01C40ED51EE61EF71E1E821D821F82BE01695F7F4F81E191E00E940E35BE016B5F7F4F88E092E00E94EC34970186010F3F11052105310529F020F00FEF10E0A6
S28400830020E030E06D817E81C12CEE24E39420E032E04F8188E497E00E94DD322A96ECE00C9435F8882331F00E94D3F880936D071092560710927507109274071092730710927207109271071092700710926F0710926E078AE090E0A0E0B0E08093491790934A17A0934B17B0934C178AE298E390934F1780934E1781E080934D171092A5
S284008380A1161092AA1610929F161092A6161092A5161092A0161092A4161092A8161092A7161092A3161092A2161092A9161092941610929B1610929C1610929D1610929E168CE6EBEAF6E1DF011D928A95E9F783E2E7E1F7E1DF011D928A95E9F780919A1690E0019620919916289FA001299F500D112460E070E08091951690919616E4
S2840084000E9411F98FE297E1909300178093FF16A4CE4F925F927F928F929F92AF92BF92CF92DF92EF92FF920F931F93CF93DF931F92CDB7DEB77C01009781F02C0127E0421A510880914607909147078415950529F4D20112968C91893149F086E694E49093BC088093BB080E94AD32CBC080914207909143078115B7E09B0709F07FC062
S28400848000917407109175070115110551F084E797E00E94073240E050E063EAC8010EDAEFCF6CE6C62ED12C7CE6772EE2E4AE2EE4E4BE2EF3E48F2EF4E49F2E00917007109171070115110509F444C0B80180E797E00E94133280918F1690919016F801E81BF90BCF01B6010E9483F780918A16681740F0B092BC08A092BB0869830E946A
S284008500C5326981E0918F16F0919016679DE00DF11D1124808191812781269530E02130310561F02230310549F2232B61F4A8014B5F5F4FD80112966C9103C040E050E067EABCD9BBCF9092BC088092BB080E94C532B4CF10E080918A161817D8F480918F1690919016BCE61B9F800D911D1124FC01278120FD0E94A1351F5FECCF811519
S284008580924041F087E694E49093BC088093BB080E94C532109245071092440781E0C2DE0E94E2380E94523982E393E09093430780934207D7018C91F201828786E497E00E940732D20118968D919C911997892B41F489E694E49093BC088093BB080E94C532D2011896ED91FC911997C701039619958091460790914707892B19F080E04E
S2840086000E9489350F90DF91CF911F910F91FF90EF90DF90CF90BF90AF909F908F907F905F904F900895CF93DF93C0914607D0914707209741F484E694E49093BC088093BB080E94C5328A818A38F9F0853C09F44FC0893109F06CC080914207909143078031914019F480E092E002C080E097E0909343078093420789E092E49E838D8365
S284008680CE0103960E9416AB5BC08091420790914307823323E0920719F08031964049F48FE394E0909343078093420756DD1D8202C083EA8D8386E497E00E9407328B819C81892B41F48AE694E49093BC088093BB080E94C532EB81FC81CE01059619958091460790914707892B51F180E018C080914207909143078F339440A1F480E094
S28400870095E0909343078093420782E090E09C838B838FE597E00E9415341092560781E00E9489350DC063EACE010E947C3908C085E694E49093BC088093BB080E94C532DF91CF910895AAE0B0E0E9EAF3E40C9423F8DC011396ED91FC9114972181328140E450E05A834983AE01495F5F4F5C834B8341E050E05E834D836F3FBFEF7B07D4
S28400878019F437FF15C003C02617370789F098878F837A876987BE016F5F7F4F8EE10E94033181E02D813E81232B19F080E001C081E02A96E2E00C943FF8009729F480915407909155070895FC01808191810895CF93C82FE0E0F0E0CF01EFDFFC01009739F0A381B4818C91C813F6CFCF0102C080E090E0CF910895CF93DF93EC010097EB
S284008800D9F086EA8F83EB81FC813097A9F080819FEF980F903F80F4DBDF892B69F421E08D819E81892B09F020E02A83BE0184E597E00E9443321F82DF91CF910895DF92EF92FF920F931F93CF93DF938C01009741F480E394E49093BC088093BB080E94C532C0E0D0E0A1E3EA2EA4E4FA2ECE01A4DFEC01009789F18A818111F8CF8B813E
S2840088809C81892B31F4F092BC08E092BB080E94C532F80160A171A1CE0155DF882339F3EB81FC81D0806D2DF801878190850E94588B8823E1F2F801D18AED81FE81309749F482E394E49093BC088093BB080E94AD3203C0C8011995CACFCDB7DEB7E7E00C943AF8A1E3B0E0E8E7F4E40C9419F88C01B62EDC015C96ED90FC905D9757961C
S2840089006D917C915897F701478188E497E00E940F33882309F414C1D70111968C919FEF980F9E3F28F454DF6C01009719F408C1C12CD12CF801248985899689213009F022E02F8399878887D70111968C918A8BF8018789908D0E940EC4FC01009799F083E08B8B708161815281438134812581968187817E8B6F8B588F498F3A8F2B8F29
S2840089809C8F8D8F02C082E08B8BD80157968D919C9158979D8B8C8B59968D919C915A979F8F8E8FF701868188A3848195819AA389A3828193819CA38BA35B968C9190E09C012A5031093EA32DA319A6208127FD04C09C012850310906C02085237029F49C01295031093EA32DA32DA13EA1821B930BF801248D358D280F391F38A72FA343
S284008A00BAA684A18BA7868D8CA740A151A162A173A14DA75EA76FA778AB878D89ABD7018C9187FF48C018968C918370823009F042C0E0919716F0919816808190E09EA38DA38080912CAA24A394B12C20919F1630E08091951690919616A216B3064CF5E0919716F0919816EA0DFB1D408150E020919A162A9DB0012B9D700D1124680F0C
S284008A80791F880D991D0E94F7F8E0919716F0919816EA0DFB1D20818DA19EA1820F911D9EA38DA3BFEFAB1ABB0A8081880E911CCDCF98A78FA3C114D10449F0D6011596ED91FC911697CE010196199539C0F8018489813021F4CE010196B1DE31C0D70111968C918F3F41F5E12CF12CC70165DE7C01009729F1D7011396ED91FC91149744
S284008B008081882399F312968C918111EFCF69A17AA1C70118DE882349F3D7011396ED91FC91149780818A8B1596ED91FC911697CE0101961995DACFCE0101960E9482CBC8010E940836E196ECE00C9435F8A1E0B0E0EDEAF5E40C941BF85C01DC015C960D911C915D97F80181812FEF280F2E3F80F429832DDE7C012981009751F0D801BF
S284008B8014966D917C911597DEDD882309F405C105C02E3F08F401C1E12CF12CF801808187FF04C09085937009F0F7C086FFF7C08C70883009F4F1C0D50157968D919C915897883FBFEF9B0708F0E7C0E114F10421F0F70122812111E0C0D5015C960D911C915D97F801208126FD02C090E0D2C02370213009F027E0F0908A16E0918F1665
S284008C00F091901630E0422F50E0B801640F751F3F15E9F0A781A530B1F4DF01AF5ABF4F0D90BC91A02D8A179B0769F4DF01AC5ABF4FCD90DC90C40ED51EDB01EC90D601DC90ED1499F23F5FE459FF4FE1CF82E029830E941F362981009741F2FC01EC5AFF4F0190F081E02DDF0158973FEA11963C9311971396BC92AE92129762E0DC018A
S284008C80A05BBF4F6C93D50157964D915C915897DC01AF5ABF4F11965C934E9317961C9211961C9231E011963C9311963C9311961C9245EA56E3129611965C934E9311973C9330813C7F32603083D8014C914C70337F342B30834C914295417040FB34F93E7D3F7B30834C9147FB442740F940FB37F930834C9130E0DC01AD5ABF4F7D0165
S284008D0044FF0DC0D5015C964D915C915D97420F531FDA012C912183F701608337C048E04C93D80116964C911697418312964D915C9113975383428314964D915C9115975583448311964C914683D5015C964D915C915D97420F531FDA012C912783D8012C9127FF13C018962C91237031F41086F70120812F5F208309C0D7012C912D5F5F
S284008D802C93D80118962C912370208709960E94E03691E081E08927A1C190E001C091E0F801808187FF92C18085837009F48EC1D5015C960D911C915D975B968C91F801F18420919916222309F487C196EFE92EE80E80919416813009F456C030F0843008F06BC180E494E46AC1D084B1E0DB1274C12F1508F471C180919A168E1508F4E7
S284008E006CC190E00196289FA001299F500D112460E070E080919516909196160E9411F98FEA80933A17D0929416F0929F16F5018789908D9093A3168093A216D80111968C9111978093A41612968D919C9113979093A6168093A51614968D919C9115979093A8168093A71616968C9116978093A91617968C918093AA1680916D1580930F
S284008E803B171092A016F12CF8018085982F9370923011F0F11021C18C7F09F01EC180919F168F1508F419C12091A2163091A316D50157968D919C9158972817390709F00CC19091A416F8018181981306C12091A5163091A616828193812817390709F0FCC02091A7163091A816848195812817390709F0F2C09091A91686819813EDC003
S284008F009091AA1687819813E8C02091A01640916E150F2D10E0822F90E0840F911D081719070CF0DAC08F2D642F0E9477F7D92EF21668F48F2D891B8093A01621E030E001C0220F4A95EAF721952093A11620919A1680919516909196164E2D50E0D5015C966D917C915D97665F7F4FF29E800D911D11240E94F7F8E0919716F0919816EF
S284008F80E00FF11FE0827091A01620919F167F1111C090916E15822F8F19981708F4892F41E050E0082E01C0440F0A94EAF741954093A11641E050E00D2C01C0440F0A94EAF76091A116642B6093A1166F3F79F4FF24FA94F70E822F90E040916E1550E0871B9109481759070CF4CA01F80E8F2D90E030E0215031098217930751F46F3F66
S28400900021F483E00E94323863C082E00E94323864C0A0916E15B0E011979D01270F311D8217930711F06F3F09F582E00E9432388091A1168F3F09F050C080916E159091A016980F9093A01620919F1621502F19821708F4282F81E090E0022E01C0880F0A94EAF781958093A11637C02AE030E00E94FDF79B01AC0180915707909158072A
S284009080A0915907B0915A07280F391F4A1F5B1FA0916D15B0E00E9403F89B01AC0160939B1670939C1680939D1690939E1661E080E090E00E94A53910C083E594E49093BC088093BB080E94C53207C0992329F06FEAC50107DC80E001C081E02196EAE00C9437F8A4E3B0E0E8E7F8E40C9413F8C0904207D090430720E1C21621E0D2063E
S28400910009F46CC12EE4222E24E4322EAA24A394B12C80E797E00E9407327C01009709F45DC100918F1610919016C701801B910B6CE670E00E9483F780918A16681748F089E494E49093BC088093BB080E94AD3245C13CE6639F000D111D1124D80117968C91B0E1CB16B6E0DB0621F0C114E5E0DE0699F58E7F843019F5C8018C5A9F4FB8
S2840091800E94923C4C01DC0111966C91119712968D919C911397892B51F4EAE4F4E4F093BC08E093BB086CAB0E94C5326CA9D70112968C91811104C0F4018281938192DBA7014B5F5F4F63EAD8018D919C910E945E3CC7010E94A1359CCF8695482E512CB1E04B165104B1F054F4452809F0EFC0D70112966C91C8010E94683F8ACFF2E035
S2840092004F16510409F4BCC023E04216510409F47CC0DDC0F80180858F70813009F079CF80809180D70119968C910E9496389B01AC01A0916D15F801808582958F70A81BC20102C0880F991FAA95E2F7DC010E940DF82B013C01D70112966C91611115C043825482658276820E94D3F89170B301A201480F591F611D711DD80113964D9330
S2840092805D936D937C9316972EC06E3C51F0603F41F0603D31F0613D89F4F40195A597FF0DC0A7014B5F5F4FC4010E945E3CC7010E94A13581E00E94893590C0D80113964D925D926D927C9216970E94D3F89170B301A201480F591F611D711DF8014383548365837683D80118968C911897807F826018968C93189713962D913D914D9173
S2840093005C91169760E0C80104C2F80180858F70813009F0FECE20913D1730E08091401790E001972817390709F4B5C1E0916E1570913F17272F30E080E090E0682F8E1708F0A9C10196A901062E02C0559547950A94E2F740FFF2CFC501062E01C0880F0A94EAF78095872380933F1780913E17860F80933D1783E497E10E9404E5C9CEA6
S284009380C8018C5A9F4F0E94923C8C01DC0111966C91119712968D919C911397892B51F4EDE4F4E4F093BC08E093BB086CAB0E94C5326CA9D80112968D919C91139792DAC7010E94A13581E00E948935A2CE3092BC082092BB080E94C5329BCE1BAA1AAAA8ED4A2EA6E35A2EBFEA2B2E13E0312EAA24A394B12C66246A94712C95E4892EA2
S28400940094E4992E82E797E00E9407328C01C0904207D0904307009751F1F80182899389892B09F079C1048CF58DE02D80818370813009F071C18281853009F46DC1D80157968D919C9158970E940EC4892B09F063C122E0F80126838789908D90878783538A428AC80102960E9400C4CBCFC1FE11C050E5C52E54E4D52E62E0462E72E12E
S284009480A72E74E4B72EE8E05E2EF3ED8F2EFCE39F2E3BC000917407109175070115110509F458C0B80184E797E00E94133240E050E063EAC8010E945E3CECCF808D833081F57801FBE1EF0EF11CC7010E940BC4892B39F5D8011D96F701852D01900D928A95E1F7D80158968C9158971A968C931A9757969C928E925697C80106960E94E5
S28400950000C484E797E00E940732009174071091750701151105F1F0F80186899789892B69F28091501790915117892B09F4BEC2C8010E946F35882309F4B8C2C8010E946F35882309F4B2C2F8010081118101151105A1F780914207909143078115B5E09B0721F08031F6E09F0769F5F12C0EC02CE6F29E80011124E0918F16F0919016EC
S284009580E00FF11F8781833031F0F39480918A16F81670F320C080858F70843011F08230A1F740E050E063EA808191810E945E3C80918F1690919016800F911F805A9F4F0E94A135E2CF8F33944029F4F12C80918A16F81648F080914207909143078115954009F080C351C000918F16109190168CE6F89E000D111D1124D80117968C918A
S284009600179780FF40C018969C911897292F2F702430C9F5282F2A7F2230A9F5907F79F19160905118969C938E7F823071F4C80109960E94E036F801238134814581568160E0C8010E94A5391EC08630E1F480913F178E7F80933F1780913E1780933D1780914217815080934217E0915017F0915117BF01808191810E94E73604C067EA2F
S284009680C8010E94683FF394A2CF80915607882309F4AAC228C3F70181850E9496389B01AC01A0916D15F801808582958F70A81BC50102C0880F991FAA95E2F7DC010E940DF82B013C0100915017109151170E94D3F89170B301A201480F591F611D711DD80113964D935D936D937C931697E0915017F09151178085807F82608087809163
S284009700501790915117FC01238134814581568160E00E94A539FDCCD8015C96ED90FC905D97BFE3CB16B4E0DB0669F0D7018C918370813041F0F80185A1811104C0C8010E940836A4C1D7014C91642F607446FF11C050918D1620918A1630E080918E1690E0850F911D821793074CF780918B16581728F7242F2C70243009F3662331F0F5
S284009780842F83708230D9F243FDD9CF45FDD7CFF801D488F1E0DF1671F032E0D312CFCF4370842F90E0009721F0029709F47AC0C6CF2C3031F0C801CAD9882309F467C1BECFD80157966D917C915897F701408588E497E00E940F33882309F4B0CFD8015B968C91893008F4AACFB1E0BF83F7018181928199878887D80157968D919C9197
S28400980058970E940EC4FC01009791F03B8A708161815281438134812581968187817E8B6F8B588F498F3A8F2B8F9C8F8D8F01C0DB8AF8018789908D9D8B8C8B818D928D9F8F8E8FD70117968C91179788A315968D919C9116979AA389A313968D919C9114979CA38BA3838D90E009979EA38DA3848D958D099698A78FA319A62AA684A118
S2840098808BA7868D8CA780A191A1A2A1B3A18DA79EA7AFA7B8AB878D89ABCE0101960E941F444DCF423031F09092BC088092BB080E94C532C0908F16D090901680918A16F6012CE6829FE00DF11D1124CF01C816D90608F034CFD60117966C91179760FFD2C018962C9118972F70223009F0CBC0F601EC5AFF4F0190F081E02D2D913C91B7
S284009900D80157964D915C915897D90159962D913C915A974217530709F0B5C0D70117963C91179727813213AEC014964D915C911597248135814217530709F0A4C012964D915C911397228133814217530709F09AC011963C9111972681321394C016963C91218132138FC06E7F623031F4F6018085807F836080873FC0663009F083C036
S284009980D70119969C91199780913E179813D7CE60916E15262F30E0C501062E01C0880F0A94EAF781951A969C911A97982B1A969C931A97F6018085807F836080871A96EC91EF3F99F54091401750E070913E17E70FCA01871B9109281739070CF4C9018E0F80933D1790E0415051098417950741F4C6010E94B93D60E0C6010E94683F6B
S284009A009ECE760F70933E1780916D158093421770933D17930102C0220F331F6A95E2F7B90160956E7F60933F1723C0E095E0933F1780E090E02E2F30E0782F8617C8F40196A901072E02C0559547950A94E2F740FFF3CFC501072E01C0880F0A94EAF780958E2380933F1780913E17870F80933D17E0915017F0915117BF0180819181E0
S284009A800E94E7365CCE3CE6C30ED11C20CFD8015E968C915E978AAB5F968C918BABBE016E5C7F4F8BE30E940331ACCCC8010E946F35882361F08091521790915317892B09F4BDC0D8019D968C9182FFB8C0F80181A592A58536910518F085A583FFB1C0D80198963C90332031F0832D0E94E843892B09F448C0F80185A5208D382F3470B6
S284009B0082FF0AC0223031F4818D928D883F9F4FD0F502C02130B9F18EEF820F823038F4D80193968C91815F8E3068F18CC021118AC0332309F487C0F80166A077A092D67C01009719F080E090E00CC0B092BC08A092BB080E94AD3276C0DC011B962C91213089F09701432DB3010E94F33D0097A1F769C0813008F475C0823009F49AC087
S284009B80833009F48AC026EAE12CF12C612C712CB80184E797E02CAB0E9413322CA921111CC0E114F10431F4D092BC08C092BB080E94C532F30111830083C8010E946F35882319F0C3010E94B93DB301C801F7011995282F882309F498CC40E050E0622FC8010E945E3C91CC0091460710914707F8018281853C41F08DE694E49093BC0863
S284009C008093BB080E94C532D80113968D919C9114978D7F14969C938E931397892B09F062C080E00E94924180E196E0909343078093420760E0C8010E947C3954C02AEAA3CF20EAA1CFD80158968C91813009F091CF80E00E941F363C0133EEE32E3CE3F32E0DC0C8010E946F35882371F083E00E941F363C0142E3E42E4FE3F42E61141D
S284009C80710409F467CC20E083CFF80185A582FF02C081E0EDCF80E0EBCFC8014B960E940BC40097F1F0DC018D919C91F801928F818F408EC8010E946F35882311F083E008C0D8019D968C9182FF02C081E001C080E00E941F363C0127EEE22E26E3F22ECECF29EA51CFE496E2E10C942FF8AFE1B0E0EDE7FEE40C9420F8009749F485E423
S284009D0095E49093BC088093BB080E94AD3282C0FC012081233009F07DC0218132813A83298328E03396DE01139601900D922A95E1F7FC0123852B87248535853D872C8728E03E96DE011E9601900D922A95E1F7FC01218D2D8F238D2E8F0789108DF688F6E0FF1508F056C0F8018081982F9370933009F04FC0807E09F04CC081818111DC
S284009D8049C0BE01615E7F4F85E190E00E940E35F801208126952695277030E08F8D90E028173907B9F58281982F9370933091F5982F907F79F58C708C3091F481E08B87F8E0FF1538F5F801838194819F878E876FEF0E94588B8823E9F0F80129E003C0F801329727E085819681998F888F878190859F8B8E8BF21AFA8E020F111D1C8F3F
S284009E000B8FE0915207F0915307309719F0CE01019619956F96E5E00C943CF880E191E090934307809342071092470710924607109245071092440710925507109254070E94E2380C9435ABCF93DF93EC016AE972E085E20E9482316AE972E088E30E948231209749F480E694E49093BC088093BB080E94AD3205C089E18A83CE010E944C
S284009E80B036DF91CF910895009741F481E694E49093BC088093BB080C94AD322AE8FC0122830C94B036009741F482E694E49093BC088093BB080C94AD3225ECFC0122830C94B036CF9330919116809192169091931620E0231751F08396FC01B3974081442311F081E029C02F5FF4CFC0E080918A16C817E0F40E94FD309CE6C99F90018E
S284009F00112440918F1650919016FA01E20FF31F882341F0878180FF08C080858F70823021F0E0CF878180FDDDCFCF5FE0CF81E090919416911101C080E0CF9108951F93CF93DF93EB01853239F41881BBDF91E09827912398831FC08833E9F4388140918A16E0918F16F091901680E0841771F0278120FF07C090859F70923019F42A7F25
S284009F80223031F08F5FE459FF4FF0CF80E001C081E0832B8883DF91CF911F910895FC01808184FD0C9452390895A2E0B0E0EBEDFFE40C9423F8E0914407F09145072F2F30E09E2F9F5F983008F090E0692F70E0A901092E02C0569547950A94E2F740FF26C09093440781E090E0062E01C0880F0A94EAF78F2780934507660F771F63528B
S28400A000744B42E050E0CE0101960E94E1F889819A81892B41F480E094E49093BC088093BB080E94C532E981FA81199504C0E913C9CFE093440780914507882361F02FB7F8948091400790914107806290934107809340072FBF2296E2E00C943FF88091B615853091F028F4882349F0823069F004C0843141F0863141F080E008958091D5
S28400A080AF158B3010F488E0089582E00895833014F083E01BC096E0980F923010F48BEF15C098E0980F923010F489EF0FC09AE0980F923010F487EF09C09EE0980F943010F484EF03C0823F0CF48FEE8093B4150895C5DF282F220F220F280F30E0A90160E8869F400D511D1124CA0108958091B6158530E9F028F4882349F0823079F0E9
S28400A10004C0843189F0863189F080E008958091AF15882349F08B3058F489E108958091AF15811105C002C082E3089588E2089580E10895CF93DF93EC01D9DFE82F9E01A0ECB3E00E94EEF79B01AC01AE2FB0E00E9403F828EE33E040E050E00E94AAF7CA01B901DF91CF910895CF93DF93B1DFEC01BDDF282F2C9FC0012D9F900D1124BB
S28400A180BC0180E090E028EE33E040E050E00E94AAF72F5F2093AD15DF91CF910895CF93DF938BE08093AF1580E098EFAFEFB7E08093B0159093B115A093B215B093B31564EB75E183E090E00E940E358091B4155EDF64EB75E183E090E00E9446351092B61577DF9093B8158093B71538DF94E0899F800D11248093B91531DF8093BA15C6
S28400A20086E390E0A0E0B0E08093821590938315A0938415B0938515109286151092871581E08093881510928A151092891510928B150E94D3F880938C15EDE8F5E18FEF80838183828383838483858386838783CFEFDFEFD0939615C09395150E94D3F88093971585E08093981584E08093991583E080939A1580939B15D0939D15C093B8
S28400A2809C1580E280939E1510929F151092A015D093A215C093A1151092AB151092AC1564DFDF91CF910895A4E0B0E0EAE5F1E50C9423F8DC014C9150E0CA01805491098534910508F0DFC086599D4DFC010C94E8F711968C918093871508C011968D919C91129790938A158093891580E015C111968C91853308F00FC180938B15F6CF3E
S28400A30011968C9180938C15F1CF11968C91119780938D1512968C91129780938E1513968C91139780938F1514968C9114978093901515968C9115978093911516968C9116978093921517968C9117978093931518968C9180939415C9CF11968D919C9112979093961580939515C0CF11968C9180939715BBCF11968C91863008F0CCC09B
S28400A38080939915B3CF11968C9190919815981708F4C2C080939B15A9CF11968D919C91129790939D1580939C15A0CF11968C9180939F159BCF11968D919C9112979093A2158093A11592CF11968D919C911297B1DE69837A838B839C83BE016F5F7F4F03C0BD016F5F7F4F82E090E079C011967C91119712966C91129713965C91139737
S28400A40014964C91149715963C91159716962C91169717969C91179718968C917093A3156093A4155093A5154093A6153093A7152093A8159093A9158093AA1557CF11968C918093861552CF11968C91883008F063C080939A154ACF11968C9180939E1545CF11968C918093981540CF11968C91803108F051C08093AE1538CF11968C9169
S28400A4808093AC1533CF4830510508F043C041555D4DFA010C94E8F78BEF3FC011962C918091B0159091B115A091B215B091B315022E04C0B695A795979587950A94D2F780FF2AC02093AF1523C011968C9190E2980F903408F5DBDD64EB75E183E090E00E94463503CF11968C918430A8F48093B515FCCE11968C91853041F018F4833095
S28400A50058F404C0843111F0863131F48093B6152CDEECCE84EF01C088EE2496E2E00C943FF8A4E0B0E0E7E9F2E50C9415F8609099156091981570E0E0919B15F0E0262D30E0CB018E1B9F0B281739070CF4C901AA2797FDA095BA2F0097A105B10521F481E090E0A0E0B0E0712CC12CD12C76018C019D01015011092109310942E0442EED
S28400A580512C872C912CA12CB12C081519052A053B05B0F0AF01470D511D41505109520102C0AA0CBB1C4A95E2F74501AA2497FCA094BA2CC80CD91CEA1CFB1C7394E1CF262D30E040E050E0281B390B4A0B5B0B61507109A2E0B0E002C0AA0FBB1F6A95E2F711970E940DF89B01AC012C0D3D1D4E1D5F1DA4E1B0E00E9403F89B01AC01F4
S28400A60069833A834B835C8364DD29813A814B815C81280F391F411D511D29833A834B835C8365DDA82FB0E029813A814B815C810E9403F828EE33E040E050E00E94AAF7CA01B9012496E0E10C9431F850DDE82F20919E1530E0A0ECB3E00E94EEF79B01AC01AE2FB0E00E9403F828EE33E040E050E00E94AAF7CA01B9010895A4E0B0E043
S28400A680E4E4F3E50C941DF88C01FC01408150E0FA01E054F109E534F10508F0B2C0E954FD4D0C94E8F780918715F801818380E0D5C08091891590918A15C3C080918B15F4CF80918C15F1CF70918D1560918E1550918F1540919015309191152091921590919315809194155BC08091951590919615A7C080919715D8CF80919915D5CF22
S28400A70080919B15D2CF80919C1590919D1599C080919F15CACF8091A1159091A21591C0BE016F5F7F4F82E090E00E940E35C980DA80EB80FC80C114D104E104F10491F0D6DC282F30E0A0ECB3E00E94EEF728EE33E040E050E00E94AAF7C701B6010E94AAF702C024EF31E0F801328321839FCFBC016F5F7F4F82E090E00E940E3597CF3C
S28400A7807091A3156091A4155091A5154091A6153091A7152091A8159091A9158091AA15F801718362835383448335832683978380877DCF8091861578CF80919A1575CF80919E1572CFFC01118271CF8091821590918315A0918415B09185152BC08091981563CF8091AE15F801818336C08091AC155BCF2BDFF80161837283838394838A
S28400A80056CF4830510548F5FA01E450FD4D0C94E8F78091AF1549CF8091B41546CF8091B51543CF8091B0159091B115A091B215B091B315F80181839283A383B48337CF48DCF8019283818332CF09DCF4E08F9F800D11242ACF03DC28CF84EF2496E8E00C9439F883EA95E1089548E050E0BC0183EA95E10E94EAF821E0892B09F020E090
S28400A880822F0895CF92DF92EF92FF92CF936B017C01E5DBC82F2BDC2C2F30E0A82FB0E00E94EEF79B01AC01C701B6010E9468F728EE33E040E050E00E94AAF7CA01B901CF91FF90EF90DF90CF9008952FB7F8948091BE079091BF0794609093BF078093BE073FB7F8948091790781110FC04FB7F8948091400790914107816090934107E5
S28400A900809340074FBF81E0809379073FBF2FBF0895BC018BE797E00E94433280917A07811101C0D3CF0895FC011282F2CF21E0FC012283EECF22E0FC012283EACF23E0FC012283E6CF25E0FC0122831186108622E02783DECFA1E0B0E0E1EBF4E50C9422F810927C0710927B075AD11FB7F894CE0101960E9436DA811104C082E080934D
S28400A9807A0702C010927A071092BF071092BE071FBF2196E3E00C943EF8A2E0B0E0E3EDF4E50C9421F81FB7F89410927907CE0102960E9436DA882339F080917A078230C9F410927A0716C081E090E00A8002C0880F991F0A94E2F7809590952091BE073091BF07282339233093BF072093BE0780E001C081E01FBF8111BAC081E080936E
S28400AA007A078A818A3029F500917B0710917C072091A6023091A70241E050E00115110539F4CE0101960E9436DA81114BC033C0CA01F801028002C0880F991F0A94E2F782239323892B09F065C0F80100811181E5CF90E08C30910520F7FC01EC5FFC4D0C94E8F7B0D214C0B7D212C02AD410C0C5D30EC05ED30CC00E94BBD709C00E94FC
S28400AA803FD706C03DD104C00E948AD701C0A5D0811127C0C6CF2FB7F8948091790781110FC03FB7F8948091400790914107816090934107809340073FBF81E0809379072FBF56C080918407811152C080917B0790917C07892B11F0F9DE4AC010927A0747C0813009F044C04FB7F89421E030E00A8002C0220F331F0A94E2F78091BE0775
S28400AB009091BF07822B932B9093BF078093BE074FBF2EC0B8018BE797E00E941332F801428150E04930510508F07BCFFA01E05FFC4DC8010C94E8F797D393E002C040D394E09A83A5CF87D295E0FBCF0E94A7D796E0F7CF0E941CD792E0F3CFB5D098E0F0CF0E946AD799E0ECCF06D09BE0E9CF2296E4E00C943DF8CF93DF93EC01188670
S28400AB808B819C819C01215031092F333105C8F4805C9E4F9C838B838A81873031F0883081F4CE010E94F1B303C0CE010E94D7B3882339F0813061F4D093BD07C093BC0707C01886EE81FF81CE010896199580E080937D07DF91CF910895CF93DF93C091BC07D091BD078A81873031F0883041F4CE010E94F1B307C0CE010E94D7B303C051
S28400AC0081E0888702C0811106C0EE81FF81CE010896199580E080937D07DF91CF910895AEE0B0E0E6E1F6E50C9421F80E940BB482E088871E861D861A86198681E08F83CE0101960E9441B78B859C850E94D6F873D00E94CFD789D2F0D26ED30E9465D768D00E94A4D78EE48983809199158A83CE0101960E9406B88FE4898380919B1586
S28400AC808A83CE0101960E9406B889E5898380919A158A83CE0101960E9406B880E589830FEF1FEF1B830A83CE0101960E9406B883E589831B830A83CE0101960E9406B82E96E4E00C943DF81F93CF93DF93EC010E9441B7182F882339F0813051F4D093BD07C093BC0705C0EC85FD85CE010896199510937E07812FDF91CF911F9108951C
S28400AD001F93CF93DF93C091BC07D091BD07CE010E9441B7182F811105C0EC85FD85CE010896199510937E07812FDF91CF911F91089510927E070895A2E0B0E0E2EAF6E50C9423F86EE67AE180E092E00E94EC34BE016F5F7F4F80E091E00E940E3529813A8180916E1A90916F1A9093731A8093721A9093751A8093741A9093771A809368
S28400AD80761A280F391F3093791A2093781A1092711A1092701A6AE77AE183E292E00E94EC34BE016F5F7F4F8EE291E00E940E3529813A8180917A1A90917B1A90937F1A80937E1A9093811A8093801A9093831A8093821A280F391F3093851A2093841A10927D1A10927C1A2296E2E00C943FF89CE0899FF0011124E259F54E8681978169
S28400AE00019608959CE0899FF0011124E259F54E4FB7F894A681B7818C9190E001968A0F9B1F978386831C9226813781808591852817390751F484819581918780878081918195838483978386834FBF08959CE0899FF0011124E259F54EA681B78182819381A817B90721F081E09C91911101C080E0089581E0EBDF8823F9F08091BE07CF
S28400AE809091BF0781609093BF078093BE072FB7F8948091790781110FC03FB7F8948091400790914107816090934107809340073FBF81E0809379072FBF80E0C8DF8823F9F08091BE079091BF0782609093BF078093BE072FB7F8948091790781110FC03FB7F8948091400790914107816090934107809340073FBF81E0809379072FBF6F
S28400AF000895A6E3B0E0E7E8F7E50C9422F8182F6FDFFC01208130E0DC01A20FB31F12968C912F5F3F4F2E0F3F1FD9016C91813220F4811103C081E001C080E26295669566956370689FB00111248FEF869FA001879F500D1124CA0160E670E00E9483F7D9016C93BF01CE0101960E941ED8882319F18A81982F977029F4807619F48B81A4
S28400AF808C70B1F020919802309199022E7F3093990220939802CE010196BED420919802309199022160309399022093980204C08091AF15898FE6CF812F24DF80E0E696E3E00C943EF881E042DF882311F081E098DF50DF80E0089580E039DF882311F080E08FDF47DF80E00895A9E0B0E0EBEFF7E50C9420F88C018091810765E081306D
S28400B00029F4C4D0F82E811121C01EC080E0BED0F82E81111BC0F8018381898388E03496DE01129601900D928A95E1F7CE0101960E9406B8F82E80918107823039F480918007B3D065E0A2D0109281078F2D2996E5E00C943CF8A9E0B0E0E1E3F8E50C9421F88C01DC0113968C91833511F148F4853028F4823088F4811124C01AC092EB60
S28400B08009C08438B1F028F4893579F08F36D1F410C090E1980F9330A8F4813F41F4F801948120917F07921339C091E00CC08935E1F390918A1A90938007963119F492E09093810790E020918107211111C0911113C0898388E0F8013496DE01129601900D928A95E1F7CE0101960E9406B802C0C8017BDF811108C0D8011C96ED91FC9169
S28400B1001D97199580E004C01093BD070093BC07809382072996E4E00C943DF890937F0790918A1A90938007963109F0BECF91E0C7CFA1E0B0E0EFE9F8E50C9421F80091BC071091BD07C80150DF811108C0D8011C96ED91FC911D97898319958981809382072196E4E00C943DF8109282071092810710927F070895882331F0813011F00B
S28400B18083E0089586E1089589E1089560935417F3DF0C940BB9882331F0813011F088E0089586E1089589E108958850823130F4E82FF0E0E951FB4F8081089588E008951F93CF93DF93EC0110918A1A8B81E3DF181729F064E08B81D9DF811105C0EC81FD81199580E004C0D093BD07C093BC0780938307DF91CF911F910895A1E0B0E06E
S28400B200E4E0F9E50C9421F80091BC071091BD0764E0D80113968C91B9DF811108C0D8011496ED91FC911597898319958981809383072196E4E00C943DF8109283070895CF93DF93EC0163E080E0A0DF811109C082E080938407CE0103960E9460D90E9469B9DF91CF910895CF93DF93EC0189AD83DF8093881AD093BD07C093BC0780911E
S28400B2809A15809355170E94D3F8909357178093561780918A1A893151F482E080938407CE0103960E9460D90E9469B905C081E080938407CE01C4DF80938507DF91CF910895A2E0B0E0E7E6F9E50C9421F80091BC071091BD0780918407813021F4C801AFDF811123C00E94A2B30E9479B31A8219820E9435B7D801DC968C93DC97DA966C
S28400B300ED91FC91DB97C801CC96199580919A1590E020915517821B91099A838983BE016F5F7F4F8DE30E94033180E0809385072296E4E00C943DF810928507109284070895A9E0B0E0E7EAF9E50C9423F883E08983CE01019692D98A81833021F40E9435B7813029F0809155178150809355170E941FE363E080E009DF81110DC0809182
S28400B380BC079091BD0722E02093840703960E9460D90E9469B90EC081E080938507809384078091BE079091BF0788609093BF078093BE072996E2E00C943FF82FB7F8948091400790914107846090934107809340072FBF0895BC0187E09AE10E9443328091F61981110CC02FB7F8948091400790914107846090934107809340072FBF99
S28400B4000895CF93DF93DC0112964C9150E0FA013197E031F10508F053C0E75EFC4D0C94E8F7DC011C96ED91FC911D970E963DC0DC011B96ED91FC911C970D9636C0DC011796ED91FC91189709962FC0DC015196ED91FC915297439628C0DC015396ED91FC9154974596199543C0DC011996ED91FC911A970B9619C0DC011E96ED91FC911D
S28400B4801F97409612C0FC01C08DC470D0E0018CF28DE02D4B961995CD2B51F511C0DC011496ED91FC9115970696199509C08091671A8E7F03C08091671A8D7F8093671A1092F6192091671A8091071A9091081A892B11F4222361F02FB7F8948091400790914107846090934107809340072FBFDF91CF910895CF93DF938091F6198823A2
S28400B50019F0833009F06AC08091671A882389F080FF09C08FE08093F6190E94046961EF0E945C675BC080E18093F6190E94DCDD55C08091A802882309F450C0C091071AD091081A209709F449C087E09AE10E9407328A818093F619D093F919C093F8198A8190E0FC013197EE30F10518F5E75DFC4D0C94E8F70E944B651AC00E942565D9
S28400B58017C05CD415C0C7D713C0AAD411C00E943CDC0EC00E9483DC0BC00E941A6708C0EED006C052D304C00E94E8DE01C01ED4811114C01092F6198091071A9091081A892B61F02FB7F8948091400790914107846090934107809340072FBFDF91CF91089527E0FC012283F6CE28E0FC012283F2CE2BE0FC012283EECE22E0FC01228337
S28400B600EACECF93DF93EC018B81882331F183E08A838093F6191092081A1092071A1092671A69EA72E085E20E948231BE0187E09AE10E9443328FD98AEF99E10E9434E52FB7F8948091400790914107846090934107809340072FBF04C084E08A83CE01BADEDF91CF9108952AE0FC012283B3CE25E0FC012283AFCE21E0FC012283ABCEC8
S28400B68026E0FC012283A7CE2CE0FC012283A3CE2DE0FC0122839FCE2091F619233011F00C94D7A608952091F619233011F00C947CAF08952091F619233011F00C94F9A208952091F619233011F00C94CCB208952091F619233011F00C94C4AA08952091F619233011F00C94A4B208958091671A81608093671A8091F619811101C05ECEDC
