:100000000C949F260C9407F00C9433F00C945FF042
:100010000C948BF00C94B7F00C94E3F00C940FF16B
:100020000C943BF10C9467F10C9493F10C94E6263C
:100030000C94E6260C9418EC0C94E6260C946EECCA
:100040000C94E6260C94E6260C94E6260C94E62600
:100050000C94E6260C94E6260C94E6260C94E626F0
:100060000C94BEF20C94D1EE0C9474EE0C94A3EEAE
:100070000C94E6260C944FF20C9426F20C94E6268F
:100080000C94E6260C94E6260C94E6260C94E626C0
:100090000C946BEF0C940EEF0C943DEF0C94BFF1AD
:1000A0000C94E6260C94E6260C9410DE0C9473E077
:1000B0000C94E6260C94E6260C94E6260C94E62690
:1000C0000C94E6260C94E6260C94E6260C94E62680
:1000D0000C94E6260C94E6260C94E6260C94E62670
:1000E0000C94E6260C94E6260C94E6260C94E62660
:1000F0000C94CFE00C94E6260C94E6260C94F7E0E2
:100100000C94E6260C94E6260C94E6260C94E6263F
:100110000C94E6260C94E6260C94E6260C941FE13B
:100120000C94E6260C94E6260C94E6260C94E6261F
:100130000C94E62600000000000000000000000013
:1001400000000000000000000000000000000000AF
:10015000000000000000000000000000000000009F
:10016000000000000000000000000000000000008F
:10017000000000000000000000000000000000007F
:10440000740E16001900670C03001800A307BD0006
:104410001700161301001600CA13080015005713E1
:10442000010014004E1302001300BA13010026000D
:104430005D1301001E004D1301000F00D413010095
:104440000E00BE1301000D00C61302000C0017136E
:1044500001000B00111302000A00341311000900BF
:104460002A13010008002913010007002813010086
:104470000600BB1301000500C413010004000C1367
:10448000040003004513080002000A1301000100A4
:10449000EE1208000000744712002E009847150025
:1044A0002D00C24719002C00F44704002A00FC47E5
:1044B00011002900524F6F4E904F904F904F744E05
:1044C0007E4E904F904F864E8B4EB34EBC4E904FCB
:1044D000C14EC94ED34E904FDC4EE14E904FEA4E46
:1044E000254F374F904F2A4F324F524F524F524F16
:1044F000494F494F494F494F494F494F494F494FFC
:10450000494F494F494F494F494F494F494F494FEB
:10451000494FFD4E494F904F904F904F904F904FC5
:10452000904F904F904F904F904F904F904F904F93
:10453000904F494F444F524F494FF74E3C4F544FC5
:10454000524F6B4F794F804F524F524F524FEC505A
:1045500059503351335133515F50645007513351E7
:1045600067506A507B508050335183508650895039
:1045700033518E50915007519650E050F5503351C1
:10458000E350E6505D50E950E9500751075107519B
:10459000075107510751075107510751075107515B
:1045A000075107510751075107510751C65007518D
:1045B00033513351335133513351335133513351DB
:1045C0003351335133513351335133510751FD502E
:1045D00000510751BE50F8500F511851125115514A
:1045E000335126512B51315138523A5245523C5297
:1045F0003E5240524252175248524A5217524D525E
:10460000A252A552A952AC52B052B452B752BB52A8
:10461000BB5217575557555755571E573B572C5791
:1046200033576657255742574257495755575D5795
:104630006157C157C457C757C757C957D357CD57E5
:10464000D057E057CB57D657D857DA57DD57C95907
:10465000CC59ED59CF59D359ED59D759ED59E259A4
:10466000E559EB59545D015E105E0F5D575E575E74
:104670000C5E105E155E435E2C5E575E575E435EB9
:10468000425D455E5D9665967C96EE96EE96459605
:104690005296EE96EE96EE969C96AB96C896D4966B
:1046A000EE96429670960E96DB9ADB9A049A0C9AD6
:1046B0000C9A199A199A369A369A369A949A949A22
:1046C000949A2F9BDB9ADAA82CA900A904A904A923
:1046D00004A904A904A908A908A967BC6ABC0BBD60
:1046E0000BBD6FBC0BBD79BC62BD62BD62BD62BD5E
:1046F00062BD62BD62BD62BD62BD0BBD0BBD62BD70
:1047000062BC74BC0BBDE8C736C836C836C836C8EC
:1047100036C825C80FC82DC836C81FC836C829C80E
:1047200031C80CCAE7CAC4CBEFCB2ECC5ACDA3CD2F
:1047300085D385D385D385D385D385D385D385D3B9
:1047400085D3DACCE8CC85D385D30FCDA6CB8DD558
:1047500095D5A7D5B0D5B2D5B4D5B6D5B9D58CD663
:1047600004D704D7B2D6BBD6CBD6D4D6D7D6DAD6D2
:10477000DDD6E3D6000001000200030004000500BE
:1047800006000700080009000A000B000C000D00DD
:104790000E000F001E0018000000010002000300C0
:1047A0000400050006000700080009000A000B00CD
:1047B0000C000D000E000F001E0013001400150069
:1047C00016000000010002000300040005000600BE
:1047D0000700080009000A000B000C000D000E0085
:1047E0000F001E001300140015001600170018001B
:1047F0001900260013001400150016000000010027
:10480000020003000400050006000700080009007C
:104810000A000B000C000D000E000F001E000C061D
:104820000000A3070000FD060000600800009707D5
:104830000000000000008A080000F40D00004C0E8B
:1048400000009E0B0000F00B0000BA0B0000270CCC
:1048500000006A0C0000AE0D000000000000000027
:104860000000670C0000740E000000000000000053
:104870000000000000000000000000000000000038
:104880000000000000000000000000000000000028
:104890000000000000000000000000000000000018
:1048A00000008A0E0000B20E000091060000A64A29
:1048B0000200AA4A0100AD4A0100AB4A0200B04A18
:1048C0000100B14A0100B24A0100B34A0100B44AF2
:1048D0000100B54A0100B64A0200AE4A0200B84AD9
:1048E0000100B94A0100D24A0200C34A0100C44A89
:1048F0000100C54A0100CE4A0400BA4A0100BB4A81
:104900000400BF4A0100C04A0100CA4A0100CB4A64
:104910000100CC4A0200000000000000000000007E
:104920000000000000000000000000000000000087
:104930000000000000000000000000000000000077
:10494000000000000000C14A0100C24A0100D44A30
:104950000100D54A0100D64A0100D74A01000000F3
:104960000000C64A0400A84A0200EE120800F8122D
:104970000100061304000A1301000C130400C21303
:104980000100C3130100CA130800C61302004E132E
:10499000020057130100BE130100D4130100C41319
:1049A0000100131301001413010015130100161365
:1049B0000100111302001713010018130100C013A6
:1049C0000100BF130100C9120100CA120100451302
:1049D00008002B13040020130400241304002813E0
:1049E0000100291301002A13010034131100BB1325
:1049F00001002F13010030130400B8120100CB1284
:104A000002004D130100101301000000000000001F
:104A10000000B912010000000000000000000000CA
:104A20000000000000000000000000000000000086
:104A30000000000000000000000000000000000076
:104A40000000191305001E1301001F1301000000D0
:104A50000000000000000000000000000000000056
:104A600000000000000000000000FA120100000039
:104A70000000000000000000000000000000000036
:104A80000000000000000000000000000000000026
:104A9000000000000000000000000B1301000013E4
:104AA0000100F912010085006C00010000070500FB
:104AB00007040205040204000308FF1400000001BB
:104AC00008030303020A901A00000100000000001E
:104AD0000303141061620003001E000003F4008051
:104AE0000000013412000303000002000000000077
:104AF00003034C1D000010270000010001E8030023
:104B00000004E80300001041746D656C2020202033
:104B10002020202020202001AAAAAAAAAAFECA009A
:104B2000020301000000000000000000000000007F
:104B3000000005FF00000000000000000000000071
:104B40000000000000000000000000000000000065
:104B50000000000000000000000000000000000055
:104B60000000000000000000000000000000000045
:104B70000000000000000000000000000000000035
:104B80000000000000000000000000000000000025
:104B90000000000000000000000000000000000015
:104BA0000000000002010002020508080000FFFFEB
:104BB00034120000000000000000020201194078D9
:104BC0004500000000000000000000000002977C8B
:104BD00075770107DF9721720101DF9721720101CB
:104BE000567C888F0101DB7BE79E0101DB7BB69E53
:104BF0000107907B11720101387B038501010000E0
:104C00000000010700000000010100000000010396
:104C100000000B6A010400000B6A0105000000009F
:104C2000010600000000010D000000000101DF97F7
:104C30000000000100000000010E0000000001075C
:104C400000000000010A0000000001000000000058
:104C50000101000000000101000000000000000050
:104C6000FE7500090000FE75000C0000FE750000D6
:104C70000000FE750099786B7E9E9562A89E74D4A4
:104C80009BAE79547A247311815A873776109F35F9
:104C900079A3738C72000000005672D98000000066
:104CA00000C067D06A56682B684F680000C767D598
:104CB000674468CE67C66A7E67C269C969386ABADE
:104CC000695D680000206B0201020303020201011A
:104CD00001010101010101020201010102010202BF
:104CE00002020202010202020202020103030202A4
:104CF0000399A6C59C7C95F89D0000FBA47B8EB211
:104D0000A900000000E4B6FFBBBAC5C7BE95D399A1
:104D1000C481E281E281E281E2F3E3BBE144F3E9B1
:104D2000EB24DF62DE7EEA1EED22EAAFE82AE782AC
:104D3000E2D4E300E513E3D2E3FEE411E30011243F
:104D400080913618823159F084B780FD04C08F718C
:104D50008093361807C081E08093361803C081E144
:104D60008093361814BE8091600088618093600043
:104D700010926000E7E3F8E18DEC01C0819390E7C9
:104D8000E030F907D9F3D0F311241FBEC0E0D0E71B
:104D9000DEBFCDBF00E00CBF13E0A0E0B2E0ECE16D
:104DA000FBEE01E00BBF02C007900D92A231B107EC
:104DB000D9F728E1A2E1B3E001C01D92A633B20702
:104DC000E1F70E94E5300E94FB30FDCF0C9400001B
:104DD0007F937FB7F8949D9AA5988AEF4DD08AEF7C
:104DE0004BD09D9886E448D081E0959980E08F93E0
:104DF00080EF42D08F917FBF7F9108957F937FB7DF
:104E0000F8949D9AA59886E037D09D988AE034D092
:104E1000889495990894881F8F9384E62DD08F915C
:104E20007FBF7F9108959F937F9398E0E7DF8795F9
:104E300077959A959923D1F7872F7F919F91089520
:104E40007F937FB7F894A5989D9A8F9386E014D0AE
:104E50008F91879508F49D988F9384E60DD08F915C
:104E60009D987FBF7F9108959F9398E0E9DF9A9581
:104E70009923E1F79F9108950000000000000000D1
:104E80008A958823C9F708955F937F937FB7F89435
:104E9000CF93DF93C0E0D0E07F935091B200709148
:104EA000B2007517E1F3739521965091B200571730
:104EB000D9F77F91CE01DF91CF917FBF7F915F9135
:104EC0000895CF93DF93EC0180E00E94453180E9A3
:104ED00095E00E9409E26CA18EA19FA170D162E0D1
:104EE00088EC92E06CD1DF91CF910895FC01878529
:104EF000811120C06EE373E081E290E00E941432E1
:104F000080913E03811112C02BE044E352E16CE238
:104F100080E092E088D128E141E05AE06CE280E054
:104F200092E081D16CE280E092E049D181E00E9480
:104F3000453104C067E083EC92E041D12FB7F8948B
:104F400080918E0490918F04906190938F04809350
:104F50008E042FBF089580E00C9451310895CF93B3
:104F600080913F03813009F445C048F1823009F057
:104F70005BC081E090E090931E0380931D039093AB
:104F80001C0380931B0380931A0380911F03807F6F
:104F9000816080931F038AE193E0909316038093CE
:104FA000150381E697E2909318038093170382E13B
:104FB00093E00E94024183E080933F0329C0D0D058
:104FC00084EF91E0A0E0B0E0809396059093970580
:104FD000A0939805B0939905C1E0C0939A058BEA18
:104FE00097E290939C0580939B050E945D31C0934E
:104FF0003F030EC086E797E290933D0380933C0306
:1050000086E293E00E94E1C482E080933F030CC0FB
:105010002FB7F89480918E0490918F0490619093B3
:105020008F0480938E042FBFCF9108950895089523
:1050300008950895CF92DF92FF920F931F93CF931D
:10504000DF93E42FF0E0F0903C042AEF30E02F19DA
:1050500031092E173F0734F150913B0420E030E036
:10506000EC01C60FD11D0AEF10E02E173F07ACF47C
:10507000852F90E0BC01605C7C4F6B01BE01620F2C
:10508000731FDB015C91D6015C932F5F3F4F01964C
:10509000B8010E940DF4582FE8CF50933B04F40E52
:1050A000F0923C04DF91CF911F910F91FF90DF9020
:1050B000CF9008951F93CF93DF9310926F041092B7
:1050C000700410913C04112309F446C080913A0405
:1050D000EDE3F4E01333E0F4212F30E0CAEFD0E049
:1050E000AF014D535440421753075CF490E0DC018C
:1050F000A05CBC4F4C9141930196BE010E940DF4FF
:10510000EFCF80933A0410936F0410923C0418C0C0
:105110002AEF30E090E0DC01A05CBC4F4C91419361
:105120000196B9010E940DF494E0EF36F90791F76A
:1051300080933A0482E380936F04125310933C04EB
:1051400081E08093700440916F0450E06DE374E05F
:105150008FE695E00E9469E5DF91CF911F91089558
:1051600088EC80937A0510927B0589E190E090931A
:105170007D0580937C0586E080937E0510927F05F7
:105180001092800510928F0510928405109283056D
:105190001092860510928505109288051092870559
:1051A00010928A05109289058AE598E290938E05FF
:1051B00080938D058FE695E00C940AE50895462FBF
:1051C00020917004222319F060E034CF0895FC018F
:1051D000ADE3B4E0633370F4862F90E09D012D536E
:1051E0003440281739071CF421912D93F7CF4093B1
:1051F0006F040CC021912D9324E0AF36B207D1F794
:1052000022E320936F04425362E314DF81E0809332
:10521000700440916F0450E06DE374E08FE695E018
:105220000C9469E5089570E030E0F9013396E617D3
:10523000F707DCF463E070E0280F391FE42FEF700C
:10524000CA018F7099270A9710F480E301C087E3A1
:105250008E0FF901E60FF71F808384E0569547957E
:105260008A95E1F76150710948F70895A2E0B0E02E
:10527000ECE3F9E20C9491F46C010091D3051091E8
:10528000D405E12CF12C8091D7059091D805E81632
:10529000F906A8F45801B8016C5F7F4F42E050E076
:1052A000CE0101960E9457F50A5F1F4F29813A816E
:1052B0002C153D0539F08FEFE81AF80AE4CF80E0AD
:1052C00090E001C0C5012296EAE00C94ADF4ADE097
:1052D000B0E0EDE6F9E20C9493F47C016B0123E07D
:1052E000969587952A95E1F7FC01ED52FA4F228DAC
:1052F00030E0B70167707727062E02C036952795F4
:105300000A94E2F78E010F5F1F4F20FF42C027E093
:10531000EDEEF5E0D80101900D922A95E1F7A0E0BD
:1053200020E030E04A2F50E048175907D8F4F80140
:10533000E40FF51F4081542F569555754575540F50
:10534000452F4695469543735373450F4083E42F8D
:10535000EF7042954F7050E04E0F511D240F351FD6
:10536000AF5FE0CFE0E0D801A80FB91F4E2F50E0AB
:105370004617570780F44C9150E00E2E02C0569508
:1053800047950A94E2F741705527240F351FEF5FC8
:10539000EDCF2FEF3FEF1B870A8746E0429FC0010A
:1053A000439F900D112404969987888786E090E0AA
:1053B0009D878C8769E17BE2CE01089672D18D8151
:1053C0009E81E816F90639F084E090EA909307068A
:1053D00080930606E1D589819A81F60191838083C5
:1053E0002D96E8E00C94AFF4A6E0B0E0EAEFF9E225
:1053F0000C9495F47C018B0180E090E0FC0133E09B
:10540000F695E7953A95E1F7EE0DFF1D6081AC0149
:1054100047705527262F30E0042E02C03695279579
:105420000A94E2F720FF0DC021E030E001C0220F16
:105430004A95EAF720952623208318DF009731F458
:1054400031C0019683339105C9F62CC046E050E087
:10545000BC01CE0101960E9457F589819A81F8011D
:1054600093838283B8018D819E8131DFF801808131
:1054700091810596918380838B819C819583848320
:1054800082819381892B39F480E090EA909307061A
:105490008093060681D58D819E81F7019087878351
:1054A00081E006C08FEF9FEFF7019087878380E050
:1054B0002696E6E00C94B1F4A8E0B0E0E2E6FAE269
:1054C0000C948FF47C01A090D505B090D605FC011A
:1054D000868182FD09C000E010E0812C76E0972EE5
:1054E000CC24C394D12C0CC047E050E06FEF70E0A7
:1054F000C7010E9487F56DC0882483940F5F1F4FFA
:105500008091D9059091DA050817190708F05BC05A
:10551000909EB001919E700D11246A0D7B1D46E096
:1055200050E0CE0101960E9457F52D813E81F90190
:1055300063E0F695E7956A95E1F7EE0DFF1D408172
:1055400027703327842F90E0022E02C0969587950E
:105550000A94E2F780FFD2CFC60102C0880F991FDC
:105560002A95E2F79C01209524232083812C882D05
:1055700090E02B813C818217930708F0BDCF880F04
:10558000991F69817A81680F791F42E050E0CE014E
:1055900007960E9457F58F819885FC0153E0F69598
:1055A000E7955A95E1F7EE0DFF1D87709927960153
:1055B00002C0220F331F8A95E2F7C9019081982B10
:1055C00090838394D4CF882021F000E010E0812CD8
:1055D00097CF2896ECE00C94ABF4CF93DF93EC01DB
:1055E0008FEF9FEF98878F8387E0FB01DE010190AB
:1055F0000D928A95E1F7CE015FDFEDEEF5E0919136
:1056000088818923899385E0E43FF807C1F7DF911A
:10561000CF9108958091010690910206A7C2089546
:105620001092FE058AE09BE2909300068093FF05AE
:1056300008950895E6EEF5E0DC013D91CD0120816D
:10564000232B2193B5E0ED3EFB07B1F780910306D4
:1056500084608093030608950E94A8E8882311F0CF
:10566000DFD5FACF0895A2E0B0E0E9E3FBE20C94C5
:1056700097F48B0189839A83EFDFB80189819A813E
:105680000E94CBE7019631F08BE20931180721F433
:10569000E3DF02C081E001C080E02296E4E00C94E8
:1056A000B3F4A2E0B0E0E7E5FBE20C9497F48B01E1
:1056B00089839A83D1DFB80189819A810E9458E752
:1056C000019631F08BE20931180721F4C5DF02C0E1
:1056D00081E001C080E02296E4E00C94B3F4A2E102
:1056E000B0E0E5E7FBE20C948CF480910306982F80
:1056F00092609093030682FF0AC066EE75E081E730
:1057000094E06BDF809103068B7F80930306CC24AB
:10571000C394D12C7E013DE0E30EF11C55E0A52E93
:10572000B12C4E0182E1880E911CBE01695F7F4F52
:1057300081E794E059DE882309F462C06090780420
:1057400070907904F30163E0F695E7956A95E1F7C7
:10575000ED52FA4FC30187709927960102C0220FBC
:10576000331F8A95E2F7C901809593898923838B3A
:10577000FC82EB82BE82AD828F81988505979A83E9
:10578000898369E17BE2CE0101968BDF4B855C85E5
:1057900069857A8580E05ED0582E8D8558123AC092
:1057A0008889998968167906A9F52B853C858E85A7
:1057B0009F852817390771F59C828B82DE82CD8206
:1057C00000E010E02B853C850217130708F0ADCFF1
:1057D0002F813885200F311F3A83298369E17BE2CD
:1057E000CE0101965EDFAB81BC81E985FA85E00FD1
:1057F000F11F9C91808198130DC00F5F1F4FE2CF66
:10580000809103068D7F8093030660E070E08FE057
:1058100001D21CC05D86798A688A8B859C859F87AA
:105820008E87FC82EB8285E090E09E838D838F8162
:10583000988505979A8389836FE67BE2CE01079668
:1058400012DF69E17BE2CE0101960DDF6296EFE0A7
:105850000C94A8F4FB01460F571FE417F50719F045
:105860009191890FFACF08954F925F927F928F9214
:105870009F92AF92BF92CF92DF92EF92FF920F93DF
:105880001F93CF93DF93CDB7DEB762970FB6F8942F
:10589000DEBF0FBECDBF80E094E49093D40580932B
:1058A000D30586E994E49093D6058093D50506E95F
:1058B00014E400501444C80166E070E00E94F9F35B
:1058C000892B39F080E290EA9093070680930606D0
:1058D00063D326E030E0C801B9010E94F9F340919A
:1058E000D7055091D805642B752B7093D80560931C
:1058F000D70504EB14E406591444C801B9010E9409
:10590000F9F3892B39F081E290EA909307068093AE
:10591000060642D3C80166E070E00E94F9F3809168
:10592000D9059091DA05682B792B7093DA0560938D
:10593000D9050091D3051091D4051092DB05109282
:10594000DC051092DD051092DE0587E0EDEEF5E056
:10595000DF011D928A95E9F7D12CEE24E394F12C16
:105960008091D7059091D8052D2D30E02817390763
:10597000C8F546E050E0B801CE0101960E9457F507
:105980002B813C812B5F3F4F8091DB059091DC05A3
:10599000A091DD05B091DE05820F931FA11DB11D01
:1059A0008093DB059093DC05A093DD05B093DE05C5
:1059B0008D819E81FC0133E0F695E7953A95E1F7FC
:1059C000ED52FA4F87709927970102C0220F331FBB
:1059D0008A95E2F7C901928D982B928F0A5F1F4F2B
:1059E000D394BECF26E0289F6001299FD00C1124BC
:1059F00034E0C30ED11CE12CF12CCE010796988B1C
:105A00008F8786E090E09A8B898BA12CB12C00E0E7
:105A100010E096E0792E22E2822E20EA922EF80102
:105A200083E0F695E7958A95E1F7ED52FA4F828D7E
:105A300090E098012770332702C0969587952A95A4
:105A4000E2F780FF41C07A9CC0017B9C900D11243D
:105A500004969E878D8769E17BE2CE010D9621DE5B
:105A60008B859C858017910749F48F819885A9853E
:105A7000BA858C159D05AE05BF0559F01C870B87AF
:105A8000CF82D886E986FA8669E17BE2CE010D965F
:105A9000EADDC801EBDB2C01009729F490920706A0
:105AA0008092060679D246E050E0B201CE0101961E
:105AB0000E9457F58B819C810596C80ED91EE11C6A
:105AC000F11C8FEFA81AB80A0F5F1F4F033311059F
:105AD00009F0A5CFA5DD62960FB6F894DEBF0FBE24
:105AE000CDBFDF91CF911F910F91FF90EF90DF908D
:105AF000CF90BF90AF909F908F907F905F904F908E
:105B0000089520E0FC013191CF01311105C02F5FD4
:105B10002730C1F780E0089581E0089527E0FB0178
:105B200011922A95E9F7FC0123E0F695E7952A956D
:105B3000E1F7E60FF71F8770992721E030E001C0F9
:105B4000220F8A95EAF78081822B8083CB01B4CC27
:105B50000895ADEEB5E0FC013D9120812323219312
:105B600025E0A43FB207C1F7CCCF0895A7E0B0E08D
:105B7000ECEBFDE20C9498F4BE016F5F7F4FCEDF3B
:105B8000CE010196E6DFCE010196BBDF182F8823F8
:105B900039F0CE0101964EDD8091030681FF9FDD35
:105BA000812F2796E3E00C94B4F408950895A2E0C1
:105BB000B0E0EDEDFDE20C9499F480917A04882335
:105BC000E9F0BE016F5F7F4F81E290E02DD4BE010E
:105BD0006E5F7F4F8DE190E027D48981823071F430
:105BE0008A8181110BC086ED9DE29093830480939E
:105BF00082048BE794E00E9475C102C00E9477DFA7
:105C00002296E2E00C94B5F480917A0408950C9405
:105C1000A7EA0895A0E0B0E0E0E1FEE20C9491F480
:105C2000B82E7B01082F10E093E0169507959A9502
:105C3000E1F78770C1E0D0E001C0CC0F8A95EAF7A8
:105C4000AC2E8FE38B1538F484E090E89093070630
:105C500080930606A1D1F801EC57FB4F80818C237D
:105C600011F1C0918C04D0918D0485E0C82E80E89C
:105C7000D82E2097C1F0FE01E00FF11F82818A210A
:105C800071F02A853B85232B29F4D0920706C09218
:105C9000060682D1EA85FB85B7018B2D19950990FF
:105CA000D881C02DE6CFCDB7DEB7EAE00C94ADF4D5
:105CB000E82FF0E023E0F695E7952A95E1F7EC5719
:105CC000FB4F208130E0877041E050E002C0440F7C
:105CD000551F8A95E2F72423352381E0232B09F40D
:105CE00080E00895282F30E043E0369527954A95C7
:105CF000E1F7620F731F877021E030E001C0220FCF
:105D00008A95EAF7FB019281922381E009F480E011
:105D100008951F93CF93DF93182FEB01803438F051
:105D200023E030E8309307062093060635D1BE0104
:105D3000812FD8DF81112AC0BE018CE894E09AD06F
:105D400081110BC088E0FE013296DF011D928A9519
:105D5000E9F7BE018CE894E09DD0412F50E063E06C
:105D6000569547956A95E1F7177021E030E001C03C
:105D7000220F1A95EAF7C40FD51F8A81822B8A83D6
:105D8000FA01EC57FB4F8081822B8083DF91CF910A
:105D90001F9108951F93CF93DF93182FEB01803449
:105DA00038F023E030E83093070620930606F4D05D
:105DB000BE01812F97DF882369F1212F30E073E046
:105DC000369527957A95E1F7177041E050E0012E5E
:105DD00001C0440F0A94EAF7942F9095C20FD31F85
:105DE0008A8189238A83E0918C04F0918D04309715
:105DF00059F0DF01A20FB31F12968C91842351F446
:105E00000190F081E02DF3CFF901EC57FB4F808139
:105E100089238083DF91CF911F910895DC01ED915B
:105E2000FC911197309721F0208131812D933C9383
:105E3000CF01089561157105A1F0DC01ED91FC9190
:105E40001197E617F70759F4208131812D933C9380
:105E50000FC0808191818617970729F0FC01309748
:105E6000C1F780E00895DB018D919C91918380833F
:105E700081E00895DC01ED91FC91309739F0E6174F
:105E8000F70731F00190F081E02DF7CF80E0089521
:105E900081E008950F931F93CF93DF938C01EB0163
:105EA000E9DF882349F080E090E89093070680932B
:105EB00006065AD080E014C019821882D801ED91EC
:105EC000FC911197309719F4CD93DC9308C0808131
:105ED0009181009711F0FC01FACFD183C08381E05A
:105EE000DF91CF911F910F910895CF93DF93FC0124
:105EF00082819381009781F40E945BE2C22FD32FAD
:105F00000E94385144E0FC0121913191CF01C22718
:105F1000D3274150C1F7CE010E944CF581E0809318
:105F200032028AE392E00E9409E2DF91CF91089564
:105F30008CE292E00C94A95108958091320288235A
:105F400069F08AE392E00E9439E285E79FE290934C
:105F500039028093380210923202EACF08958AE320
:105F600092E00C9439E2089582E090E09093090663
:105F700080930806809106069091070690930B0681
:105F800080930A06E0910406F0910506309719F017
:105F900088E096E01995089583E090E090930906D3
:105FA00080930806809106069091070690930B0651
:105FB00080930A06E0910406F0910506309719F0E7
:105FC00088E096E019950895EF920F93FC016183A4
:105FD00072834F3740F081E090E8909307068093FA
:105FE0000606C2DF20C0403808F04FE7440F80812A
:105FF00081700187842BE0FA80F9808334832383C6
:10600000CB01AC016081669504962181328174E0F8
:10601000679F200D311D11244217530720F4DC0126
:1060200011971C92EECF0F91EF900895A0E0B0E091
:10603000ECE1F0E30C9492F4EC018B01B42E0E949D
:106040005BE269017A018D819E81AF81B885A701EC
:106050009601281B390B4A0B5B0BCA01B9012B8136
:106060003C8140E050E00E9420F42F3F3105410583
:10607000510518F42223F9F001C02FEF89819A818C
:10608000BC0138813695049649815A81E4E03E9FEF
:10609000400D511D11246417750748F4FC0132911D
:1060A000432F231708F4422F341B3083E9CFCD82CE
:1060B000DE82EF82F886A981BA814881842F869595
:1060C0009D0154E0859F200D311D1124C901E0E0A0
:1060D000F0E0A817B907C0F413965C911397552305
:1060E00059F02D913C9111972017310729F4129600
:1060F0002C9112972B15C1F0309719F0238152176C
:1061000008F4FD011496E5CF40FD06C0309771F00C
:10611000838181110BC002C0309751F0118300833D
:10612000B2828985838304C080E003C082E001C01D
:1061300081E0CDB7DEB7E9E00C94AEF4FECE089571
:106140000895CF93DF93609147027091480280E0F9
:1061500090E0E1E0F0E09F01082E02C0220F331F23
:106160000A94E2F740918E0450918F0446235723FE
:1061700042235323452B11F16FB7F89440918E04BD
:1061800050918F04209530952423352330938F042C
:1061900020938E046FBFFC01EE0FFF1FE553FD4FF0
:1061A000C081D181209739F486E090E8909307066A
:1061B00080930606F1DEFE01199504C001968F302A
:1061C000910549F6DF91CF9108950E9402E00E9467
:1061D000C5B0882371F02FB7F89480918E04909108
:1061E0008F04806190938F0480938E042FBF81E091
:1061F000089582E00895A5DF60E070E08BE20ADD9B
:1062000080918E0490918F04892B09F4D0DC209129
:106210008E0430918F0481E0232B09F480E00895EF
:1062200090CF0895FC012081211105C021E0219328
:10623000CF010C9409E20895FC012081213021F462
:106240001192CF010C9439E20895A5E0B0E0EBE2A1
:10625000F1E30C9495F47C012A833B834C835D83AA
:106260006983EADFF7011082698163872A813B81B4
:106270004C815D812783308741875287158704874A
:106280002596E6E00C94B1F40895813031F018F0D1
:10629000823029F008952F9A08952E9A08952C9A05
:1062A0000895813031F018F0823029F008952F9848
:1062B00008952E9808952C980895279A269A249A3E
:1062C0002F9881E0EEDF82E0ECDF80E0089589E343
:1062D000EDECF2E1DF011D928A95E9F7EEEEF2E1D5
:1062E00081E080839AE091831282138284831582F5
:1062F0001682178295E09093F8128093001387E03E
:106300008093F91247E850E066E37BE48EE493E182
:106310000E9457F543E150E063E27BE48AEB92E1AF
:106320000E9457F543E050E060E27BE487EB92E1A6
:106330000E9457F548E450E068ED7AE486E093E186
:106340000E9457F58BEA9CE0ECE0F6E0DF019C014F
:106350001D9221503040E1F70895A4E0B0E0E3EB56
:10636000F1E30C9499F4BC011A8219821C821B82FD
:106370008827811521E0920769F0811522E09207B4
:10638000B9F0892BE9F4660F771F660F771F6659FE
:10639000764B07C07727660F771F660F771F62550A
:1063A000774B44E050E0CE0101960E9457F50FC0B4
:1063B0007727660F771F660F771F625E774BF1CFE7
:1063C0008AE090E69093070680930606E5DD6981F2
:1063D0007A818B819C812496E2E00C94B5F477DF7E
:1063E00043CA0895A4E0B0E0E8EFF1E30C9495F41B
:1063F0007C018B01B2DFEE24E11422E0F20669F0A9
:1064000026E030E6309307062093060669837A83F8
:106410008B839C83C1DD7A816981F80171836083FC
:106420002496E6E00C94B1F4A4E0B0E0EAE1F2E3F3
:106430000C9495F48C017B0190DFE114F10479F464
:1064400020E030E6309307062093060669837A83BE
:106450008B839C83A1DD9C818B817A81698100275C
:106460000115110549F0011521E0120751F4AC01A5
:10647000C7010E9457F50CC0AC01C7010E946DF521
:1064800007C081E090E6909307068093060684DDBE
:106490002496E6E00C94B1F4A0E0B0E0E2E5F2E38B
:1064A0000C9493F48C01EB0158DF6B017C01209775
:1064B00039F484E090E690930706809306066CDD3D
:1064C00000270115110539F085E090E69093070645
:1064D0008093060661DDA701BE01C6010E946DF52D
:1064E000CDB7DEB7E8E00C94AFF4FC0195A5892F99
:1064F000887090FF09C0882379F081E021A532A53A
:106500002236310550F408C0882331F081E021A5FE
:1065100032A52436310508F480E08170089521E029
:1065200030E001C0220F8A95EAF780919304822B14
:10653000809393042FB7F89480918E0490918F04E8
:10654000806290938F0480938E042FBF0895CF9321
:10655000DF93E091DA13F091DB138E179F0718F4A5
:1065600082E894E446C08E1B9F0B6CE670E00E94AC
:10657000F9F38091D513681718F083E894E439C0D3
:106580008CE6689FE00DF11D11248781869590E0CF
:106590008230910559F014F00397D1F58091D91309
:1065A0008823B1F181508093D91332C08091D813E0
:1065B000882319F081508093D813DF01AC5ABF4F64
:1065C000CD91DC912091DD133091DE13CE01821B41
:1065D000930B63E270E00E94F9F3C217D30718F43B
:1065E00084E894E406C08091D613681740F085E8EB
:1065F00094E49093070680930606B6DC0CC0D9019C
:1066000083E2689FA00DB11D11248C9181111C9211
:1066100087818E7F8783DF91CF910895CF93DF931A
:10662000EC0118A68EA19FA1892B39F484E494E48F
:106630009093070680930606AFDCEEA1FFA1CE0182
:1066400088961995DF91CF910895EF92FF920F935D
:106650001F93CF93DF93A091D5134091DA135091FC
:10666000DB1320E030E090E09A1709F45AC0FA01F9
:10667000E20FF31FB90164597F4FB781B0FD63C0CA
:106680007F0194E5E90EF11CD7011D921C92823026
:10669000B1F010F08330F1F59091D9134091D713F8
:1066A000941708F03EC09F5F9093D9131382148211
:1066B0001582168290859F709087128235C0109146
:1066C000D8139091D613191760F50091DC134091FF
:1066D000DD135091DE1390E09017B9F0EA014D5DA3
:1066E0005F4FBA0163527109DB016C9161110BC0FC
:1066F0001F5F1093D81341E048836896D701CD936C
:10670000DC93428302C09F5FE7CF4091DC134913C3
:106710000BC007C081E894E49093070680930606B7
:106720003BDC80E090E012C09085907F9087880FDE
:1067300081608783118210828091DA139091DB133C
:10674000820F931F03C09F5F9B018ECFCDB7DEB733
:10675000E6E00C94B1F42091A40421502093A40409
:10676000BC018EEB94E096DB81E0D9CE0F931F93B2
:10677000CF93DF938C01C0919404D09195048091C4
:1067800090049091910480519140813F954048F44C
:10679000B80184E994E07EDBCD2B59F480E0BFDEC4
:1067A00008C083E694E49093070680930606F4DB22
:1067B000EFCFDF91CF911F910F910895BC016151EF
:1067C000710980EC94E066DB81E0A9CE2091A404FD
:1067D0002F5F2093A4040C943F916F927F929F921D
:1067E000AF92BF92CF92DF92EF92FF920F931F93DF
:1067F000CF93DF931F92CDB7DEB78C017B01FB01F6
:10680000E25AFF4F8BEA93E3918380833E9782E0C5
:106810008083D80159968D919C915A973196918396
:1068200080839E968C919E973796808331961082B6
:1068300031969D968C919D978095881F8827881FFB
:106840008083319681E08083319680839D968C9100
:106850009D9786FD0BC021E059968D919C915A978A
:10686000883F9F4F08F020E0822F01C081E0F701B0
:10687000E35AFF4F81708083C80137DEF701ED5A7C
:10688000FF4F6F0197012C5A3F4F3901882309F4BC
:1068900042C09090871440918814242F30E080915A
:1068A0008B1490E001972817390739F4D80199968D
:1068B0008C91499D80191124982EA92CB12CC501C9
:1068C0004E968236910538F081E594E49093070660
:1068D0008093060661DB30918714209188148091A3
:1068E0009D1490919E14F80163A574A5329F600DCC
:1068F000711D1124A5014E960E946DF58AE0890D47
:10690000D6018C9380919D1490919E144496F3012E
:10691000918380830EC0D80199968C919997885F56
:1069200080839B968D919C919C970897D9018D931C
:106930009C93F301C080D180D6012C912C7F2F7EB7
:106940002C93F801818D928D237F883F9F4F10F00B
:106950002860D6012C93F60180818F7D8083D80139
:106960009D969C9192FD03C08F7B808322C08064A2
:10697000F6018083D70118962C911897207F21600B
:1069800018962C93C8012983B0DD29812F708823A4
:1069900041F080918D148295807F822BF701808752
:1069A00008C08091B8128295807F822BD7011896FB
:1069B0008C93C8019ADDF60190818823A1F090683C
:1069C00090839091881480858C7F911106C081609E
:1069D000808780918B14818709C082608087809135
:1069E0008814818703C09F77F6019083D80193961E
:1069F0008C919397F601818396968D919C919797B0
:106A00009383828394968D919C91959795838483AB
:106A100098968C918683C80168DD882331F0809137
:106A20008C14D60117968C9308C08091BB0491E01A
:106A3000980F9093BB04F6018783C7010996C6DEC1
:106A400080E00F90DF91CF911F910F91FF90EF9019
:106A5000DF90CF90BF90AF909F907F906F90089500
:106A6000E0919B14F0919C14BF0180819181B5CE7F
:106A7000EAE7F4E1F0934B14E0934A1492E0909328
:106A800046142091ED133091EE1330934814209367
:106A900047149BE09093491410924E1410924F1497
:106AA00091E09093501490935114109252142EE947
:106AB00037E33093551420935414909353149081DA
:106AC00090789260906890839091F41390937B14E7
:106AD0002091F0133091F11330937D1420937C14A6
:106AE0002091F2133091F31330937F1420937E148E
:106AF0009091EF13909380149091F51390938114DB
:106B000092E0909382149091EB1390938314909160
:106B1000EC139093841490918514909363141092C5
:106B2000E6131092E7131092E8131092E913809382
:106B3000DF138FEF93E14ACEA4E0B0E0E2EAF5E3A1
:106B40000C9497F4182FBE016F5F7F4F8AE190E09D
:106B50006BDC2091A9043091AA044091AB045091C0
:106B6000AC04A12FB0E00E9479F409811A812B8135
:106B70003C81600F711F821F931F2496E4E00C94E8
:106B8000B3F40F931F93CF93DF93EC018C01075560
:106B90001109FC013C970190F081E02D6FEF81819C
:106BA00092810E945E88882361F0FE0132978BEA11
:106BB00093E39183808323971882C8010E942F91C9
:106BC00002C0CE01C8DDDF91CF911F910F910895D2
:106BD0006CED73E180E191E027DC6DED73E18EE017
:106BE00092E000DC8091DD139091DE1320E0309183
:106BF000DC13231748F4FC0133E2239FE00DF11D61
:106C0000112410822F5FF3CF65ED73E18FE091E0E7
:106C10000BDC6AED73E18DE092E0E4DB2091D513AB
:106C2000E091DA13F091DB1380E0821739F097815D
:106C30009E7F97838F5FE459FF4FF7CF9091DC13CE
:106C40009093D6138093D7131092D8131092D91320
:106C500067E874E188E291E0E7DB65EE73E189E2E1
:106C600091E0E2DB64EE73E188E191E0DDDB8091AD
:106C7000E413882351F060EE73E18FE092E0B2DB21
:106C80006DE974E180E192E0ADDB3091E413209195
:106C9000E5138091E0139091E113329F800D911DD7
:106CA00011249093E3138093E2131092DF1308955D
:106CB00065EC74E082E192E095DB64EC74E087E1DE
:106CC00091E0B2DB8091C404E091C504F091C60468
:106CD000882349F0309739F489E294E490930706C9
:106CE0008093060641C99F0146E1849F200D311D16
:106CF0001124C90128EAE817F90718F4258B7696BC
:106D0000FACF08951F93CF93DF93EC01162F0097CE
:106D1000B1F08D819E81892B91F084E994E07ED839
:106D20001F83ED81FE81CE01079619958091940411
:106D300090919504892B59F080E0F1DB08C08BE637
:106D400094E4909307068093060626D9E6CFDF9158
:106D5000CF911F910895A1E1B0E0E1EBF6E30C942F
:106D600089F48C01262E29873A874B875C870E94FD
:106D700006DEE091AD0429853A854B855C85EE23DE
:106D800061F13090D513C090B004D090B104E09080
:106D9000B204F090B3042B013C014C185D086E085E
:106DA0007F084D825E826F827886E091DA13F091DF
:106DB000DB13198A66246A94762C430169827A82ED
:106DC0008B829C8246015701861A970AA80AB90A43
:106DD0008D869E86AF86B88A0BC00FEE17E3A3C0E0
:106DE000A781A0FD09C0A989AF5FA98BE459FF4F16
:106DF000B989B311F5CF40C0B085BF70B23099F7F3
:106E0000AA7FA23081F783809480A580B680811408
:106E10009104A104B10439F3E017F10721F34D8087
:106E20005E806F807884481459046A047B0468F497
:106E30004D845E846F847888840C951CA61CB71CD6
:106E400083829482A582B68204C013821482158242
:106E5000168283809480A580B68049805A806B809A
:106E60007C8084149504A604B70408F0BCCF898202
:106E70009A82AB82BC82B7CF211046C08090E613C5
:106E80009090E713A090E813B090E9138114910457
:106E9000A104B104C9F12B013C014C185D086E0836
:106EA0007F08481459046A047B0488F4C80CD91C70
:106EB000EA1CFB1CC61AD70AE80AF90AC092E613B4
:106EC000D092E713E092E813F092E91308C0109211
:106ED000E6131092E7131092E8131092E9138091D1
:106EE000E6139091E713A091E813B091E91349805C
:106EF0005A806B807C8084159505A605B70520F423
:106F000089839A83AB83BC8389819A81AB81BC815D
:106F1000281739074A075B0710F4DA01C9010FEE99
:106F200017E39C01AD0161E08DEA94E08ED98DEA12
:106F300094E078D96196E2E10C94A5F48091A404E0
:106F400081508093A4048091DF13833009F43CC006
:106F5000823039F082E594E4909307068093060628
:106F60001BD8E0918614EE2379F181E08093DF1342
:106F7000A091B912B0E011972AE030E00E9473F4BA
:106F80009B01AC018091A5049091A604A091A70457
:106F9000B091A804280F391F4A1F5B1FA091B81297
:106FA000B0E00E9479F49B01AC016093E61370930A
:106FB000E7138093E8139093E913E150E09386146C
:106FC00061E080E090E0C7CE1092DF131092E613EC
:106FD0001092E7131092E8131092E9130895A4E0B9
:106FE000B0E0E5EFF7E30C9491F42FEF3FEFA90148
:106FF00010E0AA24AA94B12C8091D513181708F098
:1070000054C0E091DA13F091DB138CE6189FE00D89
:10701000F11D1124678160FF46C07085872F8F7036
:10702000823009F040C0862F8A7F8230E1F583816B
:107030009481A581B681C090B404D090B504E0904D
:10704000B604F090B7048C199D09AE09BF0983837B
:107050009483A583B6830097A105B105E9F4872F32
:10706000807F846080876E7F663059F4C501009010
:10707000B91202C0880F991F0A94E2F78095809395
:107080008A1481E029833A834B835C8348DA29811F
:107090003A814B815C8107C082179307A407B5072B
:1070A00010F49C01AD011F5FA7CF8091E613909172
:1070B000E713A091E813B091E9130097A105B1057A
:1070C00051F1C090B404D090B504E090B604F090B3
:1070D000B7048C199D09AE09BF098093E6139093FC
:1070E000E713A093E813B093E9130097A105B10546
:1070F00059F482E029833A834B835C83B9DC29818C
:107100003A814B815C8107C082179307A407B507BA
:1071100010F49C01AD012F3FEFEF3E074E075E07D5
:1071200051F00FEE17E361E08DEA94E08ED88DEA1E
:1071300094E078D803C08DEA94E07ED82496EAE003
:107140000C94ADF4A0E0B0E0E8EAF8E30C9490F41D
:107150008C01962EC091C504D091C6048091C404C0
:107160006E0196E1899FC00CD11C1124F80185891C
:10717000811109C07E01F6E1EF0EF11C58018CE08F
:10718000A80EB11C09C085E294E432C08A3A89F0A5
:107190006696F6E1EF0EF11CF801CC15DD0508F05E
:1071A0004AC0908521853285F70131978081843AE4
:1071B00069F7F7013E9780819813EACF89859A8510
:1071C0002817390729F748E050E0B801CE010E949E
:1071D00060F5892BE9F6F8018385F7013B979081EB
:1071E0008913D6CF813059F0833091F086E294E450
:1071F00090930706809306060E94B42F1DC0F801E5
:10720000248535858C859D852817390709F617C093
:10721000F8019489F701329780819813B9CF48E03B
:1072200050E0BE01645F7F4FC5010E9460F5892B6D
:1072300009F0AECF04C0958A80E090E001C0CE0195
:10724000CDB7DEB7EBE00C94ACF4CF93DF93EC0159
:107250000097B1F18AEA8D8B0E94385148E050E0E6
:10726000BC01CE010E9460F5892B51F582E88D8B1F
:10727000888581508E3F20F58B858330C9F48C89B9
:1072800081508E3FE8F42C853D854E855F85688969
:1072900079898A899B89A0E00E94F4F471F480E1E5
:1072A00094E490930706809306060E94B42F08C0CA
:1072B000813019F086EA8D8B03C01D8A81E001C000
:1072C00080E0DF91CF910895CF93DF93EC01009799
:1072D00061F169AB4115510551F0FA0140815181CD
:1072E000628173814AAB5BAB6CAB7DAB04C01AAA05
:1072F0001BAA1CAA1DAAEFA5F8A9309749F484E59A
:1073000094E490930706809306060E94B42F0DC064
:10731000CE01C1961995CE01E8D8882331F010929C
:107320009C1410929B1481E0FAD8DF91CF910895BC
:10733000A1E0B0E0EEE9F9E30C9497F48C01FC01D4
:10734000208131818091DD139091DE132817390758
:1073500040F487E494E490930706809306060E9425
:10736000CC2FF801808191812091DD133091DE13C3
:10737000821B930B63E270E00E94F9F38091D613B5
:10738000681750F088E494E490930706809306060B
:1073900069830E94CC2F69818091DD139091DE1367
:1073A000F3E26F9F800D911D11242196E4E00C946F
:1073B000B3F4FC0120814597211107C0BC0182EC88
:1073C00094E00E944A2F81E0AAC840E050E069EAB8
:1073D0007BCFA3E0B0E0EFEEF9E30C9497F48C01DF
:1073E000675F7F4F7A836983BE016D5F7F4F8EE059
:1073F00090E01AD88B81D80199965C919997409129
:10740000BB04882309F442C089819A81FC01E95BAD
:10741000FF4F21E0208359962D913C915A97319648
:10742000318320833296585F50839B96ED91FC9177
:107430009C979C01255B3F4F3897D901ED93FC93B6
:107440008FEF8183D80196968D919C919797938326
:10745000828394968D919C91959795838483989639
:107460008C91868381E0840F8093BB044783D9018C
:10747000ED91FC918081807888608F778083E981AD
:10748000FA81EB5AFF4F8BEA93E344C089819A81DA
:10749000FC01E95BFF4F22E0208331962DEF3FEFA7
:1074A000318320833296575F5083D8019B96ED91AC
:1074B000FC919C979C01255B3F4F3997D901ED9337
:1074C000FC93D80159968D919C915A979283818310
:1074D00096968D919C9197979483838394968D91A2
:1074E0009C9195979683858398968C91878381E06C
:1074F000840F8093BB044087D901ED91FC9180817A
:1075000080788C608F778083E981FA81EB5AFF4F16
:1075100081EC95E391838083E981FA81D8019E967D
:107520008C919E97E15BFF4F8083E981FA81E05B5C
:10753000FF4F8091B7128083E981FA81EF5AFF4FA4
:107540009D968C918095881F8827881F8083E9816C
:10755000FA81EE5AFF4F81E08083E981FA81ED5A8A
:10756000FF4F8083E981FA81EC5AFF4F8083898144
:107570009A812CD980E02396E4E00C94B3F4DC01EA
:10758000ED91FC9190939C1480939B14109288141D
:10759000109289148091B81280938D1420918714D1
:1075A00030E081A592A5B9010E94F9F3462F6093BE
:1075B0008B1481A592A5B9010E94F9F3892B19F0CA
:1075C0004F5F40938B148FEF90E00090B91202C090
:1075D000880F991F0A94E2F780958E7F80938A1412
:1075E0008091BB0491E0980F9093BB0480938C141E
:1075F0000895A0E0B0E0EFEFFAE30C9490F4EC0112
:107600006B01942E59010091C5041091C60480911C
:10761000C404780196E1899FE00CF11C11242097A5
:1076200061F0C017D107F0F583E294E49093070668
:10763000809306060E94CC2F35C0E801CE01801B46
:10764000910B66E170E00E94F9F3892B79F084E2F6
:1076500094E490930706809306060E94CC2F06C000
:107660001D89143A39F01A3A29F06696CE15DF05CD
:10767000B8F313C088859812F8CF89859A85C81603
:10768000D90699F748E050E0B501CE010E9460F5B7
:10769000892B59F7143A49F703C080E090E004C001
:1076A000CE0102C06696CACFCDB7DEB7EBE00C9430
:1076B000ACF44F925F927F928F929F92AF92BF9263
:1076C000CF92DF92EF92FF920F931F93CF93DF93AE
:1076D0001F92CDB7DEB72C017B010E9438516C019F
:1076E00057018AE6A80EB11CF501008111814114F1
:1076F000510431F0E114F10419F0C114D10451F432
:1077000084E194E490930706809306060E94B42FC8
:1077100088EA5EC058EAF20166A177A1960140A509
:10772000C801598366DF8C015981009709F44FC065
:10773000F20186899789892B19F5F8017384F3E0A2
:107740007F121EC048018CE0880E911CC4010E946B
:1077500011C1892BA9F4F2017286D2011D9688E02D
:10776000F40101900D928A95E1F789EF9BE3F20114
:10777000978B868BC20106960E9406C180E028C0C6
:10778000F50111830083F80183858330B1F4C801CA
:107790000C960E9411C1009711F459EABCCFF80170
:1077A0002489F20123A3FC0180819181F201928F4F
:1077B000818FB701C20111D80BC0F801848595856E
:1077C000F201928F818FB701C20103DE01C0852FC4
:1077D0000F90DF91CF911F910F91FF90EF90DF906D
:1077E000CF90BF90AF909F908F907F905F904F9081
:1077F0000895FF920F931F93CF93DF938C01055150
:1078000011092091D513C091DA13D091DB13F12C1B
:10781000F216E9F08F8180FF16C088819981801768
:10782000910789F4BE01C80144DF882381F040E05C
:1078300050E0682FC80148DDCE010E94A73281E0E8
:107840000E948F3204C0F394C459DF4FE1CF80917E
:10785000D513F81640F085E194E4909307068093E1
:1078600006060E94CC2FCDB7DEB7E5E00C94B2F44B
:10787000EF92FF921F93CF93DF931F921F92CDB78A
:10788000DEB77B010097A1F06115710589F0FC015D
:10789000178A168AF701E659FF4F11821082B70145
:1078A00008DF182F882389F0C7010E94A7320DC076
:1078B00023E134E4309307062093060689839A83F4
:1078C0000E94CC2F89819A81E2CF812F0F900F9057
:1078D000DF91CF911F91FF90EF900895A1E0B0E06C
:1078E000E4E7FCE30C9495F48C01262FDC01ED9089
:1078F000FC90009709F444C0E114F10409F440C07D
:107900002E3C61F0822F8F7D803D41F0213D11F0B2
:1079100082E005C0F70185A587FFFACF83E0F80173
:10792000EB59FF4F4081518162817381D701D2961B
:107930004D935D936D937C93D597D1962C93833023
:1079400071F0D801ED91FC91808D811108C0F70193
:10795000178A168AB801C701ACDE883AE1F4A7019C
:107960004E5C5F4FD701D1966C91F8018081918177
:10797000ABDCC8010E94A73281E00E948F320BC0AD
:107980008FE494E4909307068093060629830E946F
:10799000CC2F2981B5CF2196E6E00C94B1F4CF939A
:1079A000DF93EC0152DC882309F454C060E0CE017F
:1079B000C9DB892BC1F5209709F43EC08D8981115F
:1079C0003BC05091C4042091C5043091C60440E0EE
:1079D000451781F0C9012A5E3F4FF9013197608157
:1079E000683A31F424EAFC01258B009731F432C067
:1079F0004F5FEECF8EEA8D8B2DC0209719F03D8919
:107A0000332349F087E294E49093070680930606B7
:107A10000E94B42F1AC036E1FE01DC0101900D92E4
:107A20003A95E1F706C066EACE018CDB009791F04B
:107A300024EAFC01258B09C080E294E490930706B8
:107A4000809306060E94CC2FBCCF60E070E080E1FE
:107A50000E940A2EDF91CF910895CF93DF93EC011E
:107A60000097D9F08091C5049091C604C817D90732
:107A7000A0F02091C40436E1239F800D911D1124B4
:107A8000C817D90750F48D89843A11F08A3A71F4F5
:107A900088EA8D8BDF91CF91089581E294E49093F1
:107AA0000706809306060E94CC2FEDCF82E294E475
:107AB00090930706809306060E94CC2FE9CFCF93C0
:107AC000DF93EC01C2DB882359F064EACE013ADB94
:107AD000009731F0C2DF60E070E080E10E940A2E82
:107AE000DF91CF9108952091C5043091C60400978D
:107AF00051F0FC0176968091C40496E1899F200D97
:107B0000311D112408C0F901F6CF8589843A49F066
:107B10008A3A39F07696E217F307B8F380E090E0FE
:107B20000895CF010895CF93DF93EC01BC0182EC5F
:107B300094E00E944A2F1F8A1E8A81E00E948F32A1
:107B4000DF91CF910895CF93DF93EC01BC0180ECDE
:107B500094E00E944A2F1B8A1A8A81E00E948F3289
:107B6000DF91CF910895AAE0B0E0E9EBFDE30C943A
:107B70008FF41091F812BE01665F7F4F87E091E0AD
:107B80000E941432BE016F5F7F4F8AE190E00E9435
:107B90001432C980DA80EB80FC80812F90E0A0E075
:107BA000B0E08C159D05AE05BF0578F0CC0CDD1C52
:107BB000EE1CFF1CC982DA82EB82FC82BE016F5F81
:107BC0007F4F8AE190E00E944C32C12ED12C87E099
:107BD000C80ED11CEE24D7FCE094FE2CC092A90460
:107BE000D092AA04E092AB04F092AC042A8530E073
:107BF000A3E0B0E00E9464F49B01AC01C701B601B0
:107C00000E94DEF309811A812B813C81600F711F74
:107C1000821F931F6093A5047093A6048093A7040A
:107C20009093A80481E08887BE01675F7F4F87E05B
:107C300091E00E941432BE01685F7F4F84E290E0C1
:107C40000E941432898590E0A0E0B0E0880F991F6F
:107C5000AA1FBB1F8F3F9105A105B10529F020F098
:107C60008FEF90E0A0E0B0E00E949C35E885EE2325
:107C700009F45AC0812C912C54018B019C010150B4
:107C80001E4F2F4F3F4F800E911EA21EB31E660F38
:107C9000771F881F991FE15081F7188675016401CD
:107CA00029E0F694E794D794C7942A95D1F7D501A3
:107CB000C4019170AA27BB2741E050E060E070E06A
:107CC000892B8A2B8B2B19F440E050E0BA01C40EAB
:107CD000D51EE61EF71E1E821D821F82BE01695F31
:107CE0007F4F81E191E00E941432BE016B5F7F4FB4
:107CF00088E092E00E94F231970186010F3F110562
:107D00002105310529F020F00FEF10E020E030E0F0
:107D10006D817E81C12CEE24E39420E032E04F811E
:107D200086E994E00E94E42F2A96ECE00C94ABF4F0
:107D3000882331F00E9449F58093BB041092A4047B
:107D40001092C3041092C2041092C1041092C00495
:107D50001092BF041092BE041092BD041092BC0495
:107D60008AE090E0A0E0B0E08093941490939514A2
:107D7000A0939614B093971480E395E390939A148C
:107D80008093991481E0809398141092EC131092D0
:107D9000F5131092EA131092F1131092F01310924F
:107DA000EB131092EF131092F3131092F213109240
:107DB000EE131092ED131092F4131092DF13109241
:107DC000E6131092E7131092E8131092E9138CE671
:107DD000E6EFF3E1DF011D928A95E9F783E2E2E63F
:107DE000F4E1DF011D928A95E9F78091E51390E0B7
:107DF00001962091E413289FA001299F500D112482
:107E000060E070E08091E0139091E1130E9487F5AB
:107E10008AE794E190934B1480934A14A4CE4F9236
:107E20005F927F928F929F92AF92BF92CF92DF929A
:107E3000EF92FF920F931F93CF93DF931F92CDB7D3
:107E4000DEB77C01009781F02C0127E0421A51082F
:107E500080919404909195048415950529F4D2019C
:107E600012968C91893149F086E694E49093070646
:107E7000809306060E94B42FCBC08091900490910D
:107E800091048115B7E09B0709F07FC00091C204FF
:107E90001091C3040115110551F082EC94E00E9489
:107EA0000E2F40E050E063EAC8010EDAEFCF6CE637
:107EB000C62ED12C7CE6772EE2E4AE2EE4E4BE2E74
:107EC000F3E48F2EF4E49F2E0091BE041091BF04C2
:107ED0000115110509F444C0B8018EEB94E00E942D
:107EE0001A2F8091DA139091DB13F801E81BF90B3C
:107EF000CF01B6010E94F9F38091D513681740F0C5
:107F0000B0920706A092060669830E94CC2F698171
:107F1000E091DA13F091DB13679DE00DF11D112460
:107F2000808191812781269530E02130310561F0F3
:107F30002230310549F2232B61F4A8014B5F5F4FDA
:107F4000D80112966C9103C040E050E067EABCD9BA
:107F5000BBCF90920706809206060E94CC2FB4CF2A
:107F600010E08091D5131817D8F48091DA1390910E
:107F7000DB13BCE61B9F800D911D1124FC012781A2
:107F800020FD0E94A7321F5FECCF8115924041F087
:107F900087E694E490930706809306060E94CC2F10
:107FA000109293041092920481E0C2DE0E94E835A0
:107FB0000E94583682E393E090939104809390045A
:107FC000D7018C91F201828784E994E00E940E2F00
:107FD000D20118968D919C911997892B41F489E6CD
:107FE00094E490930706809306060E94CC2FD2015A
:107FF0001896ED91FC911997C701039619958091F8
:10800000940490919504892B19F080E00E948F329E
:108010000F90DF91CF911F910F91FF90EF90DF9024
:10802000CF90BF90AF909F908F907F905F904F9038
:108030000895CF93DF93C0919404D0919504209735
:1080400041F484E694E490930706809306060E9428
:10805000CC2F8A818A38F9F0853C09F44FC08931E8
:1080600009F06CC08091900490919104803191400E
:1080700019F480E092E002C080E097E090939104D0
:10808000809390048FE09FE39E838D83CE010396BF
:108090000E941CA85BC0809190049091910482334F
:1080A00023E0920719F08031964049F48FE394E081
:1080B000909391048093900456DD1D8202C083EA60
:1080C0008D8384E994E00E940E2F8B819C81892B03
:1080D00041F48AE694E490930706809306060E9492
:1080E000CC2FEB81FC81CE010596199580919404EB
:1080F00090919504892B51F180E018C080919004F3
:10810000909191048F339440A1F480E095E0909396
:1081100091048093900482E090E09C838B838DEAAD
:1081200094E00E941C311092A40481E00E948F32DE
:108130000DC063EACE010E94823608C085E694E451
:1081400090930706809306060E94CC2FDF91CF9173
:108150000895AAE0B0E0EFEAF0E40C9499F4DC01B1
:108160001396ED91FC9114972181328140E450E007
:108170005A834983AE01495F5F4F5C834B8341E083
:1081800050E05E834D836F3FBFEF7B0719F437FFED
:1081900015C003C02617370789F098878F837A8721
:1081A0006987BE016F5F7F4F8EE10E940A2E81E0DA
:1081B0002D813E81232B19F080E001C081E02A96B9
:1081C000E2E00C94B5F4009729F48091A204909118
:1081D000A3040895FC01808191810895CF93C82F55
:1081E000E0E0F0E0CF01EFDFFC01009739F0A38180
:1081F000B4818C91C813F6CFCF0102C080E090E02B
:10820000CF910895CF93DF93EC010097D9F086EAE0
:108210008F83EB81FC813097A9F080819FEF980FCD
:10822000903F80F4DBDF892B69F421E08D819E8112
:10823000892B09F020E02A83BE0182EA94E00E94A3
:108240004A2F1F82DF91CF910895DF92EF92FF9224
:108250000F931F93CF93DF938C01009741F480E33A
:1082600094E490930706809306060E94CC2FC0E00A
:10827000D0E0A1E3EA2EA4E4FA2ECE01A4DFEC01C3
:10828000009789F18A818111F8CF8B819C81892B9C
:1082900031F4F0920706E09206060E94CC2FF80116
:1082A00060A171A1CE0155DF882339F3EB81FC81F8
:1082B000D0806D2DF801878190850E945E8888238B
:1082C000E1F2F801D18AED81FE81309749F482E331
:1082D00094E490930706809306060E94B42F03C08F
:1082E000C8011995CACFCDB7DEB7E7E00C94B0F45A
:1082F000A1E3B0E0EEE7F1E40C948FF48C01B62E2C
:10830000DC015C96ED90FC905D9757966D917C91A9
:108310005897F701478186E994E00E941630882338
:1083200009F414C1D70111968C919FEF980F9E3FCD
:1083300028F454DF6C01009719F408C1C12CD12C2A
:10834000F801248985899689213009F022E02F835C
:1083500099878887D70111968C918A8BF801878934
:10836000908D0E9414C1FC01009799F083E08B8BE3
:108370007081618152814381348125819681878119
:108380007E8B6F8B588F498F3A8F2B8F9C8F8D8F61
:1083900002C082E08B8BD80157968D919C915897A3
:1083A0009D8B8C8B59968D919C915A979F8F8E8F18
:1083B000F701868188A3848195819AA389A382810C
:1083C00093819CA38BA35B968C9190E09C012A5097
:1083D00031093EA32DA319A6208127FD04C09C01CD
:1083E0002850310906C02085237029F49C012950AA
:1083F00031093EA32DA32DA13EA1821B930BF801B1
:10840000248D358D280F391F38A72FA3BAA684A134
:108410008BA7868D8CA740A151A162A173A14DA706
:108420005EA76FA778AB878D89ABD7018C9187FF4B
:1084300048C018968C918370823009F042C0E09158
:10844000E213F091E313808190E09EA38DA38080DE
:10845000912CAA24A394B12C2091EA1330E08091AE
:10846000E0139091E113A216B3064CF5E091E213EC
:10847000F091E313EA0DFB1D408150E02091E513DC
:108480002A9DB0012B9D700D1124680F791F880D56
:10849000991D0E946DF5E091E213F091E313EA0D4E
:1084A000FB1D20818DA19EA1820F911D9EA38DA3F6
:1084B000BFEFAB1ABB0A8081880E911CCDCF98A765
:1084C0008FA3C114D10449F0D6011596ED91FC910A
:1084D0001697CE010196199539C0F801848981302B
:1084E00021F4CE010196B1DE31C0D70111968C91F5
:1084F0008F3F41F5E12CF12CC70165DE7C0100972F
:1085000029F1D7011396ED91FC911497808188236E
:1085100099F312968C918111EFCF69A17AA1C701CD
:1085200018DE882349F3D7011396ED91FC91149737
:1085300080818A8B1596ED91FC911697CE0101965C
:108540001995DACFCE0101960E9488C8C8010E9411
:108550000E33E196ECE00C94ABF4A1E0B0E0E3EB79
:10856000F2E40C9491F45C01DC015C960D911C9199
:108570005D97F80181812FEF280F2E3F80F429832A
:108580002DDE7C012981009751F0D80114966D9160
:108590007C911597DEDD882309F405C105C02E3FC7
:1085A00008F401C1E12CF12CF801808187FF04C09F
:1085B0009085937009F0F7C086FFF7C08C70883003
:1085C00009F4F1C0D50157968D919C915897883F39
:1085D000BFEF9B0708F0E7C0E114F10421F0F701B9
:1085E00022812111E0C0D5015C960D911C915D970F
:1085F000F801208126FD02C090E0D2C02370213016
:1086000009F027E0F090D513E091DA13F091DB1335
:1086100030E0422F50E0B801640F751F3F15E9F0BC
:10862000A781A530B1F4DF01AF5ABF4F0D90BC91C7
:10863000A02D8A179B0769F4DF01AC5ABF4FCD907C
:10864000DC90C40ED51EDB01EC90D601DC90ED145D
:1086500099F23F5FE459FF4FE1CF82E029830E9406
:1086600025332981009741F2FC01EC5AFF4F01901C
:10867000F081E02DDF0158973FEA11963C93119766
:108680001396BC92AE92129762E0DC01A05BBF4FE2
:108690006C93D50157964D915C915897DC01AF5A78
:1086A000BF4F11965C934E9317961C9211961C9295
:1086B00031E011963C9311963C9311961C924BEA33
:1086C00053E3129611965C934E9311973C9330812D
:1086D0003C7F32603083D8014C914C70337F342B17
:1086E00030834C914295417040FB34F93E7D3F7B95
:1086F00030834C9147FB442740F940FB37F93083E6
:108700004C9130E0DC01AD5ABF4F7D0144FF0DC0FC
:10871000D5015C964D915C915D97420F531FDA0134
:108720002C912183F701608337C048E04C93D80136
:1087300016964C911697418312964D915C91139722
:108740005383428314964D915C91159755834483CE
:1087500011964C914683D5015C964D915C915D9745
:10876000420F531FDA012C912783D8012C9127FF48
:1087700013C018962C91237031F41086F7012081D4
:108780002F5F208309C0D7012C912D5F2C93D80136
:1087900018962C912370208709960E94E63391E069
:1087A00081E08927A1C190E001C091E0F8018081BA
:1087B00087FF92C18085837009F48EC1D5015C96D4
:1087C0000D911C915D975B968C91F801F18420913D
:1087D000E413222309F487C196EFE92EE80E809175
:1087E000DF13813009F456C030F0843008F06BC1DB
:1087F00080E494E46AC1D084B1E0DB1274C12F1527
:1088000008F471C18091E5138E1508F46CC190E0F5
:108810000196289FA001299F500D112460E070E06F
:108820008091E0139091E1130E9487F58FEA809385
:108830008514D092DF13F092EA13F5018789908DA9
:108840009093EE138093ED13D80111968C911197AC
:108850008093EF1312968D919C9113979093F1133F
:108860008093F01314968D919C9115979093F31328
:108870008093F21316968C9116978093F4131796A3
:108880008C918093F5138091B81280938614109286
:10889000EB13F12CF8018085982F9370923011F032
:1088A000F11021C18C7F09F01EC18091EA138F1550
:1088B00008F419C12091ED133091EE13D5015796AC
:1088C0008D919C9158972817390709F00CC1909108
:1088D000EF13F8018181981306C12091F0133091B4
:1088E000F113828193812817390709F0FCC0209188
:1088F000F2133091F313848195812817390709F019
:10890000F2C09091F41386819813EDC09091F51305
:1089100087819813E8C02091EB134091B9120F2D75
:1089200010E0822F90E0840F911D081719070CF0BA
:10893000DAC08F2D642F0E94EDF3D92EF21668F461
:108940008F2D891B8093EB1321E030E001C0220FB3
:108950004A95EAF721952093EC132091E513809135
:10896000E0139091E1134E2D50E0D5015C966D918E
:108970007C915D97665F7F4FF29E800D911D112463
:108980000E946DF5E091E213F091E313E00FF11F07
:10899000E0827091EB132091EA137F1111C0909146
:1089A000B912822F8F19981708F4892F41E050E0EF
:1089B000082E01C0440F0A94EAF741954093EC1346
:1089C00041E050E00D2C01C0440F0A94EAF7609199
:1089D000EC13642B6093EC136F3F79F4FF24FA944B
:1089E000F70E822F90E04091B91250E0871B910959
:1089F000481759070CF4CA01F80E8F2D90E030E0AB
:108A0000215031098217930751F46F3F21F483E01D
:108A10000E94383563C082E00E94383564C0A0915E
:108A2000B912B0E011979D01270F311D82179307EE
:108A300011F06F3F09F582E00E9438358091EC1308
:108A40008F3F09F050C08091B9129091EB13980FAD
:108A50009093EB132091EA1321502F19821708F4F9
:108A6000282F81E090E0022E01C0880F0A94EAF7D7
:108A700081958093EC1337C02AE030E00E9473F4B4
:108A80009B01AC018091A5049091A604A091A7043C
:108A9000B091A804280F391F4A1F5B1FA091B8127C
:108AA000B0E00E9479F49B01AC016093E6137093EF
:108AB000E7138093E8139093E91361E080E090E07E
:108AC0000E94AB3610C083E594E490930706809330
:108AD00006060E94CC2F07C0992329F06FEAC50132
:108AE00007DC80E001C081E02196EAE00C94ADF45F
:108AF000A4E3B0E0EEE7F5E40C9489F4C0909004B0
:108B0000D090910420E1C21621E0D20609F46CC194
:108B10002EE4222E24E4322EAA24A394B12C8EEB30
:108B200094E00E940E2F7C01009709F45DC1009132
:108B3000DA131091DB13C701801B910B6CE670E018
:108B40000E94F9F38091D513681748F089E494E402
:108B500090930706809306060E94B42F45C13CE619
:108B6000639F000D111D1124D80117968C91B0E15F
:108B7000CB16B6E0DB0621F0C114E5E0DE0699F580
:108B80008E7F843019F5C8018C5A9F4F0E94983906
:108B90004C01DC0111966C91119712968D919C916C
:108BA0001397892B51F4EAE4F4E4F0930706E09379
:108BB00006066CAB0E94CC2F6CA9D70112968C9143
:108BC000811104C0F4018281938192DBA7014B5F84
:108BD0005F4F63EAD8018D919C910E946439C7016F
:108BE0000E94A7329CCF8695482E512CB1E04B169F
:108BF0005104B1F054F4452809F0EFC0D7011296A2
:108C00006C91C8010E946E3C8ACFF2E04F1651046D
:108C100009F4BCC023E04216510409F47CC0DDC055
:108C2000F80180858F70813009F079CF8080918044
:108C3000D70119968C910E949C359B01AC01A091A3
:108C4000B812F801808582958F70A81BC20102C0FE
:108C5000880F991FAA95E2F7DC010E9483F42B018B
:108C60003C01D70112966C91611115C04382548268
:108C7000658276820E9449F59170B301A201480F86
:108C8000591F611D711DD80113964D935D936D930E
:108C90007C9316972EC06E3C51F0603F41F0603DD2
:108CA00031F0613D89F4F40195A597FF0DC0A7014E
:108CB0004B5F5F4FC4010E946439C7010E94A73215
:108CC00081E00E948F3290C0D80113964D925D9240
:108CD0006D927C9216970E9449F59170B301A201A2
:108CE000480F591F611D711DF8014383548365832B
:108CF0007683D80118968C911897807F8260189699
:108D00008C93189713962D913D914D915C911697E8
:108D100060E0C80104C2F80180858F70813009F0DD
:108D2000FECE2091881430E080918B1490E0019762
:108D30002817390709F4B5C1E091B91270918A1466
:108D4000272F30E080E090E0682F8E1708F0A9C14F
:108D50000196A901062E02C0559547950A94E2F79F
:108D600040FFF2CFC501062E01C0880F0A94EAF732
:108D70008095872380938A1480918914860F80932D
:108D800088148EE894E10E9409E2C9CEC8018C5A89
:108D90009F4F0E9498398C01DC0111966C911197BC
:108DA00012968D919C911397892B51F4EDE4F4E484
:108DB000F0930706E09306066CAB0E94CC2F6CA9DB
:108DC000D80112968D919C91139792DAC7010E9457
:108DD000A73281E00E948F32A2CE30920706209205
:108DE00006060E94CC2F9BCE1BAA1AAAAEED4A2ED5
:108DF000A3E35A2EBFEA2B2E13E0312EAA24A3940C
:108E0000B12C66246A94712C95E4892E94E4992EF1
:108E100080EC94E00E940E2F8C01C0909004D090C2
:108E20009104009751F1F80182899389892B09F007
:108E300079C1048CF58DE02D80818370813009F03B
:108E400071C18281853009F46DC1D80157968D9129
:108E50009C9158970E9414C1892B09F063C122E0AC
:108E6000F80126838789908D90878783538A428A69
:108E7000C80102960E9406C1CBCFC1FE11C050E5C9
:108E8000C52E54E4D52E62E0462E72E1A72E74E47E
:108E9000B72EE8E05E2EF9ED8F2EF9E39F2E3BC052
:108EA0000091C2041091C3040115110509F458C0C2
:108EB000B80182EC94E00E941A2F40E050E063EA8F
:108EC000C8010E946439ECCF808D833081F5780130
:108ED000FBE1EF0EF11CC7010E9411C1892B39F58E
:108EE000D8011D96F701852D01900D928A95E1F725
:108EF000D80158968C9158971A968C931A97579632
:108F00009C928E925697C80106960E9406C182ECEA
:108F100094E00E940E2F0091C2041091C304011529
:108F20001105F1F0F80186899789892B69F2809102
:108F30009B1490919C14892B09F4BEC2C8010E9415
:108F40007532882309F4B8C2C8010E94753288239B
:108F500009F4B2C2F8010081118101151105A1F7D0
:108F600080919004909191048115B5E09B0721F0C8
:108F70008031F6E09F0769F5F12C0EC02CE6F29ED9
:108F800080011124E091DA13F091DB13E00FF11F5F
:108F90008781833031F0F3948091D513F81670F304
:108FA00020C080858F70843011F08230A1F740E0BE
:108FB00050E063EA808191810E9464398091DA13E4
:108FC0009091DB13800F911F805A9F4F0E94A73210
:108FD000E2CF8F33944029F4F12C8091D513F81609
:108FE00048F080919004909191048115954009F08A
:108FF00080C351C00091DA131091DB138CE6F89E08
:10900000000D111D1124D80117968C91179780FF20
:1090100040C018969C911897292F2F702430C9F5BD
:10902000282F2A7F2230A9F5907F79F19160905105
:1090300018969C938E7F823071F4C80109960E9425
:10904000E633F801238134814581568160E0C8010F
:109050000E94AB361EC08630E1F480918A148E7F68
:1090600080938A14809189148093881480918D1440
:10907000815080938D14E0919B14F0919C14BF015A
:10908000808191810E94ED3304C067EAC8010E948B
:109090006E3CF394A2CF8091A404882309F4AAC261
:1090A00028C3F70181850E949C359B01AC01A091EA
:1090B000B812F801808582958F70A81BC50102C087
:1090C000880F991FAA95E2F7DC010E9483F42B0117
:1090D0003C0100919B1410919C140E9449F59170E1
:1090E000B301A201480F591F611D711DD8011396CC
:1090F0004D935D936D937C931697E0919B14F09143
:109100009C148085807F8260808780919B149091E1
:109110009C14FC01238134814581568160E00E94CA
:10912000AB36FDCCD8015C96ED90FC905D97BFE32B
:10913000CB16B4E0DB0669F0D7018C9183708130E7
:1091400041F0F80185A1811104C0C8010E940E33CD
:10915000A4C1D7014C91642F607446FF11C0509197
:10916000D8132091D51330E08091D91390E0850F6A
:10917000911D821793074CF78091D613581728F743
:10918000242F2C70243009F3662331F0842F837050
:109190008230D9F243FDD9CF45FDD7CFF801D4882D
:1091A000F1E0DF1671F032E0D312CFCF4370842F9D
:1091B00090E0009721F0029709F47AC0C6CF2C30D6
:1091C00031F0C801CAD9882309F467C1BECFD801DC
:1091D00057966D917C915897F701408586E994E008
:1091E0000E941630882309F4B0CFD8015B968C9189
:1091F000893008F4AACFB1E0BF83F7018181928161
:1092000099878887D80157968D919C9158970E948D
:1092100014C1FC01009791F03B8A708161815281F9
:10922000438134812581968187817E8B6F8B588F16
:10923000498F3A8F2B8F9C8F8D8F01C0DB8AF8016D
:109240008789908D9D8B8C8B818D928D9F8F8E8F3A
:10925000D70117968C91179788A315968D919C919D
:1092600016979AA389A313968D919C9114979CA30A
:109270008BA3838D90E009979EA38DA3848D958DFC
:10928000099698A78FA319A62AA684A18BA7868DD5
:109290008CA780A191A1A2A1B3A18DA79EA7AFA7E2
:1092A000B8AB878D89ABCE0101960E9425414DCF89
:1092B000423031F090920706809206060E94CC2F31
:1092C000C090DA13D090DB138091D513F6012CE611
:1092D000829FE00DF11D1124CF01C816D90608F0B8
:1092E00034CFD60117966C91179760FFD2C01896AD
:1092F0002C9118972F70223009F0CBC0F601EC5A50
:10930000FF4F0190F081E02D2D913C91D8015796AF
:109310004D915C915897D90159962D913C915A974E
:109320004217530709F0B5C0D70117963C9117971C
:1093300027813213AEC014964D915C91159724810C
:1093400035814217530709F0A4C012964D915C91E4
:109350001397228133814217530709F09AC011965F
:109360003C9111972681321394C016963C9121812D
:1093700032138FC06E7F623031F4F6018085807FBA
:10938000836080873FC0663009F083C0D70119969B
:109390009C911997809189149813D7CE6091B91236
:1093A000262F30E0C501062E01C0880F0A94EAF787
:1093B00081951A969C911A97982B1A969C931A97B6
:1093C000F6018085807F836080871A96EC91EF3F5D
:1093D00099F540918B1450E070918914E70FCA0100
:1093E000871B9109281739070CF4C9018E0F809348
:1093F000881490E0415051098417950741F4C60143
:109400000E94BF3A60E0C6010E946E3C9ECE760F7D
:10941000709389148091B81280938D14709388147E
:10942000930102C0220F331F6A95E2F7B9016095DC
:109430006E7F60938A1423C0E095E0938A1480E0E5
:1094400090E02E2F30E0782F8617C8F40196A901FE
:10945000072E02C0559547950A94E2F740FFF3CFD7
:10946000C501072E01C0880F0A94EAF780958E2364
:1094700080938A1480918914870F80938814E091D7
:109480009B14F0919C14BF01808191810E94ED3367
:109490005CCE3CE6C30ED11C20CFD8015E968C91E9
:1094A0005E978AAB5F968C918BABBE016E5C7F4FF3
:1094B0008BE30E940A2EACCCC8010E94753288232F
:1094C00061F080919D1490919E14892B09F4BDC088
:1094D000D8019D968C9182FFB8C0F80181A592A514
:1094E0008536910518F085A583FFB1C0D8019896FF
:1094F0003C90332031F0832D0E94EE40892B09F4FB
:1095000048C0F80185A5208D382F347082FF0AC02D
:10951000223031F4818D928D883F9F4FD0F502C06B
:109520002130B9F18EEF820F823038F4D801939652
:109530008C91815F8E3068F18CC021118AC03323F9
:1095400009F487C0F80166A077A092D67C01009745
:1095500019F080E090E00CC0B0920706A0920606D9
:109560000E94B42F76C0DC011B962C91213089F02B
:109570009701432DB3010E94F93A0097A1F769C002
:10958000813008F475C0823009F49AC0833009F440
:109590008AC026EAE12CF12C612C712CB80182ECF6
:1095A00094E02CAB0E941A2F2CA921111CC0E114AD
:1095B000F10431F4D0920706C09206060E94CC2F27
:1095C000F30111830083C8010E947532882319F0CA
:1095D000C3010E94BF3AB301C801F7011995282FB2
:1095E000882309F498CC40E050E0622FC8010E9423
:1095F000643991CC0091940410919504F801828112
:10960000853C41F08DE694E490930706809306062E
:109610000E94CC2FD80113968D919C9114978D7F29
:1096200014969C938E931397892B09F062C080E067
:109630000E94983E80E196E090939104809390047C
:1096400060E0C8010E94823654C02AEAA3CF20EA13
:10965000A1CFD80158968C91813009F091CF80E04C
:109660000E9425333C0139EEE32E39E3F32E0DC081
:10967000C8010E947532882371F083E00E9425336F
:109680003C0148E3E42E4CE3F42E6114710409F428
:1096900067CC20E083CFF80185A582FF02C081E07E
:1096A000EDCF80E0EBCFC8014B960E9411C100972F
:1096B000F1F0DC018D919C91F801928F818F408EA9
:1096C000C8010E947532882311F083E008C0D801D8
:1096D0009D968C9182FF02C081E001C080E00E94D3
:1096E00025333C012DEEE22E23E3F22ECECF29EAE4
:1096F00051CFE496E2E10C94A5F4AFE1B0E0E3E8E9
:10970000FBE40C9496F4009749F485E495E4909377
:109710000706809306060E94B42F82C0FC012081B8
:10972000233009F07DC0218132813A83298328E0EA
:109730003396DE01139601900D922A95E1F7FC0114
:1097400023852B87248535853D872C8728E03E9609
:10975000DE011E9601900D922A95E1F7FC01218D04
:109760002D8F238D2E8F0789108DF688F6E0FF153B
:1097700008F056C0F8018081982F9370933009F05B
:109780004FC0807E09F04CC08181811149C0BE016B
:10979000615E7F4F85E190E00E941432F8012081E4
:1097A00026952695277030E08F8D90E02817390791
:1097B000B9F58281982F9370933091F5982F907F0F
:1097C00079F58C708C3091F481E08B87F8E0FF158F
:1097D00038F5F801838194819F878E876FEF0E940F
:1097E0005E888823E9F0F80129E003C0F801329788
:1097F00027E085819681998F888F878190859F8BBF
:109800008E8BF21AFA8E020F111D1C8F0B8FE091B6
:10981000A004F091A104309719F0CE01019619959A
:109820006F96E5E00C94B2F480E191E0909391049E
:1098300080939004109295041092940410929304D3
:10984000109292041092A3041092A2040E94E83590
:109850000C943BA8CF93DF93EC0169E472E085E2BE
:109860000E94892E69E472E088E30E94892E209785
:1098700049F480E694E490930706809306060E94DC
:10988000B42F05C089E18A83CE010E94B633DF91EF
:10989000CF910895009741F481E694E490930706F0
:1098A000809306060C94B42F2AE8FC0122830C94C2
:1098B000B633009741F482E694E4909307068093D0
:1098C00006060C94B42F25ECFC0122830C94B633CD
:1098D000CF933091DC138091DD139091DE1320E063
:1098E000231751F08396FC01B3974081442311F074
:1098F00081E029C02F5FF4CFC0E08091D513C81755
:10990000E0F40E94042E9CE6C99F9001112440912E
:10991000DA135091DB13FA01E20FF31F882341F0B1
:10992000878180FF08C080858F70823021F0E0CF72
:10993000878180FDDDCFCF5FE0CF81E09091DF13A5
:10994000911101C080E0CF9108951F93CF93DF93D1
:10995000EB01853239F41881BBDF91E09827912320
:1099600098831FC08833E9F438814091D513E09182
:10997000DA13F091DB1380E0841771F0278120FF68
:1099800007C090859F70923019F42A7F223031F001
:109990008F5FE459FF4FF0CF80E001C081E0832B5F
:1099A0008883DF91CF911F910895FC01808184FD10
:1099B0000C9458360895A2E0B0E0E1EEFCE40C947B
:1099C00099F4E0919204F09193042F2F30E09E2FB0
:1099D0009F5F983008F090E0692F70E0A901092E90
:1099E00002C0569547950A94E2F740FF26C090932F
:1099F000920481E090E0062E01C0880F0A94EAF7F5
:109A00008F2780939304660F771F6354744B42E053
:109A100050E0CE0101960E9457F589819A81892BE9
:109A200041F480E094E490930706809306060E9438
:109A3000CC2FE981FA81199504C0E913C9CFE093CD
:109A4000920480919304882361F02FB7F894809159
:109A50008E0490918F04806290938F0480938E0483
:109A60002FBF2296E2E00C94B5F48091011385306B
:109A700091F028F4882349F0823069F004C08431E1
:109A800041F0863141F080E008958091FA128B30E8
:109A900010F488E0089582E00895833014F083E0A4
:109AA0001BC096E0980F923010F48BEF15C098E031
:109AB000980F923010F489EF0FC09AE0980F92300F
:109AC00010F487EF09C09EE0980F943010F484EFF3
:109AD00003C0823F0CF48FEE8093FF120895C5DF20
:109AE000282F220F220F280F30E0A90160E8869F5F
:109AF000400D511D1124CA01089580910113853034
:109B0000E9F028F4882349F0823079F004C08431E8
:109B100089F0863189F080E008958091FA128823D7
:109B200049F08B3058F489E108958091FA1281113F
:109B300005C002C082E3089588E2089580E1089597
:109B4000CF93DF93EC01D9DFE82F9E01A0ECB3E0C7
:109B50000E9464F49B01AC01AE2FB0E00E9479F446
:109B600028EE33E040E050E00E9420F4CA01B90141
:109B7000DF91CF910895CF93DF93B1DFEC01BDDF8B
:109B8000282F2C9FC0012D9F900D1124BC0180E037
:109B900090E028EE33E040E050E00E9420F42F5F98
:109BA0002093F812DF91CF910895CF93DF938BE04C
:109BB0008093FA1280E098EFAFEFB7E08093FB124A
:109BC0009093FC12A093FD12B093FE126FEF72E11E
:109BD00083E090E00E9414328091FF125EDF6FEF0D
:109BE00072E183E090E00E944C321092011377DF23
:109BF000909303138093021338DF94E0899F800DC4
:109C000011248093041331DF8093051386E390E0E1
:109C1000A0E0B0E08093CD129093CE12A093CF122B
:109C2000B093D0121092D1121092D21281E0809390
:109C3000D3121092D5121092D4121092D6120E9402
:109C400049F58093D712E8EDF2E18FEF80838183AD
:109C5000828383838483858386838783CFEFDFEF4B
:109C6000D093E112C093E0120E9449F58093E21272
:109C700085E08093E31284E08093E41283E0809394
:109C8000E5128093E612D093E812C093E71280E2C7
:109C90008093E9121092EA121092EB12D093ED1217
:109CA000C093EC121092F6121092F71264DFDF915B
:109CB000CF910895A4E0B0E0E0E6FEE40C9499F4BE
:109CC000DC014C9150E0CA01805491098534910522
:109CD00008F0DFC0865A9D4DFC010C945EF411968D
:109CE0008C918093D21208C011968D919C911297FD
:109CF0009093D5128093D41280E015C111968C9167
:109D0000853308F00FC18093D612F6CF11968C914F
:109D10008093D712F1CF11968C9111978093D8121E
:109D200012968C9112978093D91213968C91139757
:109D30008093DA1214968C9114978093DB12159607
:109D40008C9115978093DC1216968C9116978093C0
:109D5000DD1217968C9117978093DE1218968C91CE
